{
  "contractName": "WaqfChain",
  "abi": [
    {
      "constant": true,
      "inputs": [],
      "name": "name",
      "outputs": [
        {
          "name": "",
          "type": "string"
        }
      ],
      "payable": false,
      "stateMutability": "view",
      "type": "function",
      "signature": "0x06fdde03"
    },
    {
      "constant": true,
      "inputs": [],
      "name": "productCount",
      "outputs": [
        {
          "name": "",
          "type": "uint256"
        }
      ],
      "payable": false,
      "stateMutability": "view",
      "type": "function",
      "signature": "0xe0f6ef87"
    },
    {
      "constant": true,
      "inputs": [
        {
          "name": "",
          "type": "uint256"
        }
      ],
      "name": "waqfEvents",
      "outputs": [
        {
          "name": "id",
          "type": "uint256"
        },
        {
          "name": "name",
          "type": "string"
        },
        {
          "name": "details",
          "type": "string"
        },
        {
          "name": "product_type",
          "type": "string"
        },
        {
          "name": "price",
          "type": "uint256"
        },
        {
          "name": "closed",
          "type": "bool"
        }
      ],
      "payable": false,
      "stateMutability": "view",
      "type": "function",
      "signature": "0xfdcc7a73"
    },
    {
      "inputs": [],
      "payable": false,
      "stateMutability": "nonpayable",
      "type": "constructor",
      "signature": "constructor"
    },
    {
      "anonymous": false,
      "inputs": [
        {
          "indexed": false,
          "name": "id",
          "type": "uint256"
        },
        {
          "indexed": false,
          "name": "name",
          "type": "string"
        },
        {
          "indexed": false,
          "name": "details",
          "type": "string"
        },
        {
          "indexed": false,
          "name": "product_type",
          "type": "string"
        },
        {
          "indexed": false,
          "name": "price",
          "type": "uint256"
        },
        {
          "indexed": false,
          "name": "closed",
          "type": "bool"
        }
      ],
      "name": "WaqfEventCreated",
      "type": "event",
      "signature": "0x90678c8da1ad3e0f570215e5982a57e053251d8dc8bac893b81ee98d6be8b444"
    },
    {
      "constant": false,
      "inputs": [
        {
          "name": "_name",
          "type": "string"
        },
        {
          "name": "_details",
          "type": "string"
        },
        {
          "name": "_product_types",
          "type": "string"
        },
        {
          "name": "_price",
          "type": "uint256"
        }
      ],
      "name": "createProduct",
      "outputs": [],
      "payable": false,
      "stateMutability": "nonpayable",
      "type": "function",
      "signature": "0x1b61040d"
    }
  ],
  "bytecode": "0x6080604052600060015534801561001557600080fd5b506040805190810160405280600981526020017f57617166436861696e000000000000000000000000000000000000000000000081525060009080519060200190610061929190610067565b5061010c565b828054600181600116156101000203166002900490600052602060002090601f016020900481019282601f106100a857805160ff19168380011785556100d6565b828001600101855582156100d6579182015b828111156100d55782518255916020019190600101906100ba565b5b5090506100e391906100e7565b5090565b61010991905b808211156101055760008160009055506001016100ed565b5090565b90565b610cb38061011b6000396000f3fe608060405260043610610062576000357c0100000000000000000000000000000000000000000000000000000000900463ffffffff16806306fdde03146100675780631b61040d146100f7578063e0f6ef87146102f7578063fdcc7a7314610322575b600080fd5b34801561007357600080fd5b5061007c6104c7565b6040518080602001828103825283818151815260200191508051906020019080838360005b838110156100bc5780820151818401526020810190506100a1565b50505050905090810190601f1680156100e95780820380516001836020036101000a031916815260200191505b509250505060405180910390f35b34801561010357600080fd5b506102f56004803603608081101561011a57600080fd5b810190808035906020019064010000000081111561013757600080fd5b82018360208201111561014957600080fd5b8035906020019184600183028401116401000000008311171561016b57600080fd5b91908080601f016020809104026020016040519081016040528093929190818152602001838380828437600081840152601f19601f820116905080830192505050505050509192919290803590602001906401000000008111156101ce57600080fd5b8201836020820111156101e057600080fd5b8035906020019184600183028401116401000000008311171561020257600080fd5b91908080601f016020809104026020016040519081016040528093929190818152602001838380828437600081840152601f19601f8201169050808301925050505050505091929192908035906020019064010000000081111561026557600080fd5b82018360208201111561027757600080fd5b8035906020019184600183028401116401000000008311171561029957600080fd5b91908080601f016020809104026020016040519081016040528093929190818152602001838380828437600081840152601f19601f82011690508083019250505050505050919291929080359060200190929190505050610565565b005b34801561030357600080fd5b5061030c6109cb565b6040518082815260200191505060405180910390f35b34801561032e57600080fd5b5061035b6004803603602081101561034557600080fd5b81019080803590602001909291905050506109d1565b6040518087815260200180602001806020018060200186815260200185151515158152602001848103845289818151815260200191508051906020019080838360005b838110156103b957808201518184015260208101905061039e565b50505050905090810190601f1680156103e65780820380516001836020036101000a031916815260200191505b50848103835288818151815260200191508051906020019080838360005b8381101561041f578082015181840152602081019050610404565b50505050905090810190601f16801561044c5780820380516001836020036101000a031916815260200191505b50848103825287818151815260200191508051906020019080838360005b8381101561048557808201518184015260208101905061046a565b50505050905090810190601f1680156104b25780820380516001836020036101000a031916815260200191505b50995050505050505050505060405180910390f35b60008054600181600116156101000203166002900480601f01602080910402602001604051908101604052809291908181526020018280546001816001161561010002031660029004801561055d5780601f106105325761010080835404028352916020019161055d565b820191906000526020600020905b81548152906001019060200180831161054057829003601f168201915b505050505081565b600084511115156105de576040517f08c379a000000000000000000000000000000000000000000000000000000000815260040180806020018281038252600d8152602001807f6e616d6520697320656d7074790000000000000000000000000000000000000081525060200191505060405180910390fd5b60008351111515610657576040517f08c379a00000000000000000000000000000000000000000000000000000000081526004018080602001828103825260108152602001807f64657461696c7320697320656d7074790000000000000000000000000000000081525060200191505060405180910390fd5b600082511115156106d0576040517f08c379a00000000000000000000000000000000000000000000000000000000081526004018080602001828103825260168152602001807f70726f6475637420747970657320697320656d7074790000000000000000000081525060200191505060405180910390fd5b600081111515610748576040517f08c379a00000000000000000000000000000000000000000000000000000000081526004018080602001828103825260158152602001807f70726963657320747970657320697320656d707479000000000000000000000081525060200191505060405180910390fd5b60016000815480929190600101919050555060c0604051908101604052806001548152602001858152602001848152602001838152602001828152602001600015158152506002600060015481526020019081526020016000206000820151816000015560208201518160010190805190602001906107c8929190610be2565b5060408201518160020190805190602001906107e5929190610be2565b506060820151816003019080519060200190610802929190610be2565b506080820151816004015560a08201518160050160006101000a81548160ff0219169083151502179055509050507f90678c8da1ad3e0f570215e5982a57e053251d8dc8bac893b81ee98d6be8b4446001548585858560006040518087815260200180602001806020018060200186815260200185151515158152602001848103845289818151815260200191508051906020019080838360005b838110156108b857808201518184015260208101905061089d565b50505050905090810190601f1680156108e55780820380516001836020036101000a031916815260200191505b50848103835288818151815260200191508051906020019080838360005b8381101561091e578082015181840152602081019050610903565b50505050905090810190601f16801561094b5780820380516001836020036101000a031916815260200191505b50848103825287818151815260200191508051906020019080838360005b83811015610984578082015181840152602081019050610969565b50505050905090810190601f1680156109b15780820380516001836020036101000a031916815260200191505b50995050505050505050505060405180910390a150505050565b60015481565b6002602052806000526040600020600091509050806000015490806001018054600181600116156101000203166002900480601f016020809104026020016040519081016040528092919081815260200182805460018160011615610100020316600290048015610a835780601f10610a5857610100808354040283529160200191610a83565b820191906000526020600020905b815481529060010190602001808311610a6657829003601f168201915b505050505090806002018054600181600116156101000203166002900480601f016020809104026020016040519081016040528092919081815260200182805460018160011615610100020316600290048015610b215780601f10610af657610100808354040283529160200191610b21565b820191906000526020600020905b815481529060010190602001808311610b0457829003601f168201915b505050505090806003018054600181600116156101000203166002900480601f016020809104026020016040519081016040528092919081815260200182805460018160011615610100020316600290048015610bbf5780601f10610b9457610100808354040283529160200191610bbf565b820191906000526020600020905b815481529060010190602001808311610ba257829003601f168201915b5050505050908060040154908060050160009054906101000a900460ff16905086565b828054600181600116156101000203166002900490600052602060002090601f016020900481019282601f10610c2357805160ff1916838001178555610c51565b82800160010185558215610c51579182015b82811115610c50578251825591602001919060010190610c35565b5b509050610c5e9190610c62565b5090565b610c8491905b80821115610c80576000816000905550600101610c68565b5090565b9056fea165627a7a7230582040be2528356d3fabd3f039c32a76852c872d4c7e7ebefc1ceface9c99c59be020029",
  "source": "pragma solidity ^0.5.0;\r\n\r\ncontract WaqfChain {\r\n    string public name;\r\n    uint public productCount = 0;\r\n \r\n    modifier onlyOwner {\r\n        require(msg.sender == 0xaF8Ee7b8a7ceE30DF29239418B4407D7C19214AB, 'You are not an admin');\r\n        _;\r\n    }\r\n\r\n    struct WaqfEvent {\r\n        uint id;\r\n        string name;\r\n        string details;\r\n        string product_type;\r\n        uint price;\r\n        bool closed;\r\n    }\r\n\r\n    event WaqfEventCreated(\r\n        uint id,\r\n        string name,\r\n        string details,\r\n        string product_type,\r\n        uint price,\r\n        bool closed\r\n    );\r\n\r\n    mapping(uint => WaqfEvent) public waqfEvents;\r\n\r\n    constructor() public {\r\n        name = \"WaqfChain\";\r\n    }\r\n\r\n    function createProduct(string memory _name, string memory _details, string memory _product_types, uint _price) public {\r\n        require(bytes(_name).length > 0, 'name is empty');\r\n        require(bytes(_details).length > 0, 'details is empty');\r\n        require(bytes(_product_types).length > 0, 'product types is empty');\r\n        require(_price > 0, 'prices types is empty');\r\n        productCount ++;\r\n        waqfEvents[productCount] = WaqfEvent(productCount, _name, _details, _product_types, _price, false);\r\n        emit WaqfEventCreated(productCount, _name, _details, _product_types, _price, false);\r\n    }\r\n}",
  "sourcePath": "D:/Blockchain/Project/starter_kit/src/contracts/WaqfChain.sol",
  "compiler": {
    "name": "solc",
    "version": "0.5.0+commit.1d4f565a.Emscripten.clang"
  },
  "schemaVersion": "3.0.2",
  "updatedAt": "2020-08-26T12:33:32.953Z",
  "devdoc": {
    "methods": {}
  },
  "userdoc": {
    "methods": {}
  }
}