{
  "contractName": "WaqfChain",
  "abi": [
    {
      "constant": true,
      "inputs": [],
      "name": "name",
      "outputs": [
        {
          "name": "",
          "type": "string"
        }
      ],
      "payable": false,
      "stateMutability": "view",
      "type": "function",
      "signature": "0x06fdde03"
    },
    {
      "constant": true,
      "inputs": [],
      "name": "sendCount",
      "outputs": [
        {
          "name": "",
          "type": "uint256"
        }
      ],
      "payable": false,
      "stateMutability": "view",
      "type": "function",
      "signature": "0x6ed65dae"
    },
    {
      "constant": true,
      "inputs": [
        {
          "name": "",
          "type": "uint256"
        }
      ],
      "name": "createAccount",
      "outputs": [
        {
          "name": "id",
          "type": "uint256"
        },
        {
          "name": "name",
          "type": "string"
        },
        {
          "name": "username",
          "type": "string"
        },
        {
          "name": "email",
          "type": "string"
        },
        {
          "name": "password",
          "type": "string"
        },
        {
          "name": "userAddress",
          "type": "address"
        }
      ],
      "payable": false,
      "stateMutability": "view",
      "type": "function",
      "signature": "0xcab13915"
    },
    {
      "constant": true,
      "inputs": [],
      "name": "productCount",
      "outputs": [
        {
          "name": "",
          "type": "uint256"
        }
      ],
      "payable": false,
      "stateMutability": "view",
      "type": "function",
      "signature": "0xe0f6ef87"
    },
    {
      "constant": true,
      "inputs": [],
      "name": "accountCount",
      "outputs": [
        {
          "name": "",
          "type": "uint256"
        }
      ],
      "payable": false,
      "stateMutability": "view",
      "type": "function",
      "signature": "0xe4af29fc"
    },
    {
      "constant": true,
      "inputs": [
        {
          "name": "",
          "type": "uint256"
        }
      ],
      "name": "waqfEvents",
      "outputs": [
        {
          "name": "id",
          "type": "uint256"
        },
        {
          "name": "name",
          "type": "string"
        },
        {
          "name": "details",
          "type": "string"
        },
        {
          "name": "product_type",
          "type": "string"
        },
        {
          "name": "price",
          "type": "uint256"
        },
        {
          "name": "owner",
          "type": "address"
        },
        {
          "name": "closed",
          "type": "bool"
        }
      ],
      "payable": false,
      "stateMutability": "view",
      "type": "function",
      "signature": "0xfdcc7a73"
    },
    {
      "inputs": [],
      "payable": false,
      "stateMutability": "nonpayable",
      "type": "constructor",
      "signature": "constructor"
    },
    {
      "anonymous": false,
      "inputs": [
        {
          "indexed": true,
          "name": "id",
          "type": "uint256"
        },
        {
          "indexed": false,
          "name": "name",
          "type": "string"
        },
        {
          "indexed": false,
          "name": "details",
          "type": "string"
        },
        {
          "indexed": false,
          "name": "product_type",
          "type": "string"
        },
        {
          "indexed": false,
          "name": "price",
          "type": "uint256"
        },
        {
          "indexed": false,
          "name": "owner",
          "type": "address"
        },
        {
          "indexed": true,
          "name": "ownerAddress",
          "type": "address"
        },
        {
          "indexed": false,
          "name": "closed",
          "type": "bool"
        }
      ],
      "name": "WaqfEventCreated",
      "type": "event",
      "signature": "0xb42a33e9d9fa79d202870b04356f7bdd71bc6c571cf188fd0f777c7b23af39f2"
    },
    {
      "anonymous": false,
      "inputs": [
        {
          "indexed": true,
          "name": "id",
          "type": "uint256"
        },
        {
          "indexed": false,
          "name": "name",
          "type": "string"
        },
        {
          "indexed": false,
          "name": "username",
          "type": "string"
        },
        {
          "indexed": false,
          "name": "email",
          "type": "string"
        },
        {
          "indexed": false,
          "name": "password",
          "type": "string"
        },
        {
          "indexed": true,
          "name": "userAddress",
          "type": "address"
        }
      ],
      "name": "accountCreated",
      "type": "event",
      "signature": "0x9a6fbf17002de0ec51587331553a6e99a598b99035e4dd10c1c64e866e5b60b5"
    },
    {
      "anonymous": false,
      "inputs": [
        {
          "indexed": true,
          "name": "id",
          "type": "uint256"
        },
        {
          "indexed": true,
          "name": "waqfId",
          "type": "uint256"
        },
        {
          "indexed": false,
          "name": "name",
          "type": "string"
        },
        {
          "indexed": false,
          "name": "price",
          "type": "uint256"
        },
        {
          "indexed": false,
          "name": "seller",
          "type": "address"
        },
        {
          "indexed": false,
          "name": "sender",
          "type": "address"
        },
        {
          "indexed": true,
          "name": "senderAddress",
          "type": "address"
        }
      ],
      "name": "SendWaqfCreated",
      "type": "event",
      "signature": "0x13da99543681fc852b62949ab1d5a9e540e5dc6b2b61974730727512793d7986"
    },
    {
      "constant": false,
      "inputs": [
        {
          "name": "_name",
          "type": "string"
        },
        {
          "name": "_username",
          "type": "string"
        },
        {
          "name": "_email",
          "type": "string"
        },
        {
          "name": "_password",
          "type": "string"
        }
      ],
      "name": "createAccounts",
      "outputs": [],
      "payable": false,
      "stateMutability": "nonpayable",
      "type": "function",
      "signature": "0x10ddf9fe"
    },
    {
      "constant": false,
      "inputs": [
        {
          "name": "_name",
          "type": "string"
        },
        {
          "name": "_details",
          "type": "string"
        },
        {
          "name": "_product_types",
          "type": "string"
        },
        {
          "name": "_price",
          "type": "uint256"
        }
      ],
      "name": "createProduct",
      "outputs": [],
      "payable": false,
      "stateMutability": "nonpayable",
      "type": "function",
      "signature": "0x1b61040d"
    },
    {
      "constant": false,
      "inputs": [
        {
          "name": "_id",
          "type": "uint256"
        },
        {
          "name": "_price",
          "type": "uint256"
        }
      ],
      "name": "sendWaqf",
      "outputs": [],
      "payable": true,
      "stateMutability": "payable",
      "type": "function",
      "signature": "0x7da532b4"
    }
  ],
  "bytecode": "0x60806040526000600155600060025560006003553480156200002057600080fd5b506040805190810160405280600981526020017f57617166436861696e0000000000000000000000000000000000000000000000815250600090805190602001906200006e92919062000075565b5062000124565b828054600181600116156101000203166002900490600052602060002090601f016020900481019282601f10620000b857805160ff1916838001178555620000e9565b82800160010185558215620000e9579182015b82811115620000e8578251825591602001919060010190620000cb565b5b509050620000f89190620000fc565b5090565b6200012191905b808211156200011d57600081600090555060010162000103565b5090565b90565b611f9880620001346000396000f3fe608060405260043610610099576000357c0100000000000000000000000000000000000000000000000000000000900463ffffffff16806306fdde031461009e57806310ddf9fe1461012e5780631b61040d146103bb5780636ed65dae146105bb5780637da532b4146105e6578063cab139151461061e578063e0f6ef8714610850578063e4af29fc1461087b578063fdcc7a73146108a6575b600080fd5b3480156100aa57600080fd5b506100b3610a7e565b6040518080602001828103825283818151815260200191508051906020019080838360005b838110156100f35780820151818401526020810190506100d8565b50505050905090810190601f1680156101205780820380516001836020036101000a031916815260200191505b509250505060405180910390f35b34801561013a57600080fd5b506103b96004803603608081101561015157600080fd5b810190808035906020019064010000000081111561016e57600080fd5b82018360208201111561018057600080fd5b803590602001918460018302840111640100000000831117156101a257600080fd5b91908080601f016020809104026020016040519081016040528093929190818152602001838380828437600081840152601f19601f8201169050808301925050505050505091929192908035906020019064010000000081111561020557600080fd5b82018360208201111561021757600080fd5b8035906020019184600183028401116401000000008311171561023957600080fd5b91908080601f016020809104026020016040519081016040528093929190818152602001838380828437600081840152601f19601f8201169050808301925050505050505091929192908035906020019064010000000081111561029c57600080fd5b8201836020820111156102ae57600080fd5b803590602001918460018302840111640100000000831117156102d057600080fd5b91908080601f016020809104026020016040519081016040528093929190818152602001838380828437600081840152601f19601f8201169050808301925050505050505091929192908035906020019064010000000081111561033357600080fd5b82018360208201111561034557600080fd5b8035906020019184600183028401116401000000008311171561036757600080fd5b91908080601f016020809104026020016040519081016040528093929190818152602001838380828437600081840152601f19601f820116905080830192505050505050509192919290505050610b1c565b005b3480156103c757600080fd5b506105b9600480360360808110156103de57600080fd5b81019080803590602001906401000000008111156103fb57600080fd5b82018360208201111561040d57600080fd5b8035906020019184600183028401116401000000008311171561042f57600080fd5b91908080601f016020809104026020016040519081016040528093929190818152602001838380828437600081840152601f19601f8201169050808301925050505050505091929192908035906020019064010000000081111561049257600080fd5b8201836020820111156104a457600080fd5b803590602001918460018302840111640100000000831117156104c657600080fd5b91908080601f016020809104026020016040519081016040528093929190818152602001838380828437600081840152601f19601f8201169050808301925050505050505091929192908035906020019064010000000081111561052957600080fd5b82018360208201111561053b57600080fd5b8035906020019184600183028401116401000000008311171561055d57600080fd5b91908080601f016020809104026020016040519081016040528093929190818152602001838380828437600081840152601f19601f82011690508083019250505050505050919291929080359060200190929190505050611038565b005b3480156105c757600080fd5b506105d0611545565b6040518082815260200191505060405180910390f35b61061c600480360360408110156105fc57600080fd5b81019080803590602001909291908035906020019092919050505061154b565b005b34801561062a57600080fd5b506106576004803603602081101561064157600080fd5b8101908080359060200190929190505050611972565b60405180878152602001806020018060200180602001806020018673ffffffffffffffffffffffffffffffffffffffff1673ffffffffffffffffffffffffffffffffffffffff16815260200185810385528a818151815260200191508051906020019080838360005b838110156106db5780820151818401526020810190506106c0565b50505050905090810190601f1680156107085780820380516001836020036101000a031916815260200191505b50858103845289818151815260200191508051906020019080838360005b83811015610741578082015181840152602081019050610726565b50505050905090810190601f16801561076e5780820380516001836020036101000a031916815260200191505b50858103835288818151815260200191508051906020019080838360005b838110156107a757808201518184015260208101905061078c565b50505050905090810190601f1680156107d45780820380516001836020036101000a031916815260200191505b50858103825287818151815260200191508051906020019080838360005b8381101561080d5780820151818401526020810190506107f2565b50505050905090810190601f16801561083a5780820380516001836020036101000a031916815260200191505b509a505050505050505050505060405180910390f35b34801561085c57600080fd5b50610865611c2e565b6040518082815260200191505060405180910390f35b34801561088757600080fd5b50610890611c34565b6040518082815260200191505060405180910390f35b3480156108b257600080fd5b506108df600480360360208110156108c957600080fd5b8101908080359060200190929190505050611c3a565b604051808881526020018060200180602001806020018781526020018673ffffffffffffffffffffffffffffffffffffffff1673ffffffffffffffffffffffffffffffffffffffff1681526020018515151515815260200184810384528a818151815260200191508051906020019080838360005b8381101561096f578082015181840152602081019050610954565b50505050905090810190601f16801561099c5780820380516001836020036101000a031916815260200191505b50848103835289818151815260200191508051906020019080838360005b838110156109d55780820151818401526020810190506109ba565b50505050905090810190601f168015610a025780820380516001836020036101000a031916815260200191505b50848103825288818151815260200191508051906020019080838360005b83811015610a3b578082015181840152602081019050610a20565b50505050905090810190601f168015610a685780820380516001836020036101000a031916815260200191505b509a505050505050505050505060405180910390f35b60008054600181600116156101000203166002900480601f016020809104026020016040519081016040528092919081815260200182805460018160011615610100020316600290048015610b145780601f10610ae957610100808354040283529160200191610b14565b820191906000526020600020905b815481529060010190602001808311610af757829003601f168201915b505050505081565b60008451111515610b95576040517f08c379a000000000000000000000000000000000000000000000000000000000815260040180806020018281038252600d8152602001807f6e616d6520697320656d7074790000000000000000000000000000000000000081525060200191505060405180910390fd5b60008351111515610c0e576040517f08c379a00000000000000000000000000000000000000000000000000000000081526004018080602001828103825260118152602001807f757365726e616d6520697320656d70747900000000000000000000000000000081525060200191505060405180910390fd5b60008251111515610c87576040517f08c379a000000000000000000000000000000000000000000000000000000000815260040180806020018281038252600e8152602001807f656d61696c20697320656d70747900000000000000000000000000000000000081525060200191505060405180910390fd5b60008151111515610d00576040517f08c379a00000000000000000000000000000000000000000000000000000000081526004018080602001828103825260118152602001807f70617373776f726420697320656d70747900000000000000000000000000000081525060200191505060405180910390fd5b60036000815480929190600101919050555060c06040519081016040528060035481526020018581526020018481526020018381526020018281526020013373ffffffffffffffffffffffffffffffffffffffff16815250600560006003548152602001908152602001600020600082015181600001556020820151816001019080519060200190610d93929190611e71565b506040820151816002019080519060200190610db0929190611e71565b506060820151816003019080519060200190610dcd929190611e71565b506080820151816004019080519060200190610dea929190611e71565b5060a08201518160050160006101000a81548173ffffffffffffffffffffffffffffffffffffffff021916908373ffffffffffffffffffffffffffffffffffffffff1602179055509050503373ffffffffffffffffffffffffffffffffffffffff166003547f9a6fbf17002de0ec51587331553a6e99a598b99035e4dd10c1c64e866e5b60b5868686866040518080602001806020018060200180602001858103855289818151815260200191508051906020019080838360005b83811015610ec0578082015181840152602081019050610ea5565b50505050905090810190601f168015610eed5780820380516001836020036101000a031916815260200191505b50858103845288818151815260200191508051906020019080838360005b83811015610f26578082015181840152602081019050610f0b565b50505050905090810190601f168015610f535780820380516001836020036101000a031916815260200191505b50858103835287818151815260200191508051906020019080838360005b83811015610f8c578082015181840152602081019050610f71565b50505050905090810190601f168015610fb95780820380516001836020036101000a031916815260200191505b50858103825286818151815260200191508051906020019080838360005b83811015610ff2578082015181840152602081019050610fd7565b50505050905090810190601f16801561101f5780820380516001836020036101000a031916815260200191505b509850505050505050505060405180910390a350505050565b600084511115156110b1576040517f08c379a000000000000000000000000000000000000000000000000000000000815260040180806020018281038252600d8152602001807f6e616d6520697320656d7074790000000000000000000000000000000000000081525060200191505060405180910390fd5b6000835111151561112a576040517f08c379a00000000000000000000000000000000000000000000000000000000081526004018080602001828103825260108152602001807f64657461696c7320697320656d7074790000000000000000000000000000000081525060200191505060405180910390fd5b600082511115156111a3576040517f08c379a00000000000000000000000000000000000000000000000000000000081526004018080602001828103825260168152602001807f70726f6475637420747970657320697320656d7074790000000000000000000081525060200191505060405180910390fd5b60008111151561121b576040517f08c379a00000000000000000000000000000000000000000000000000000000081526004018080602001828103825260158152602001807f70726963657320747970657320697320656d707479000000000000000000000081525060200191505060405180910390fd5b60016000815480929190600101919050555060e06040519081016040528060015481526020018581526020018481526020018381526020018281526020013373ffffffffffffffffffffffffffffffffffffffff168152602001600015158152506004600060015481526020019081526020016000206000820151816000015560208201518160010190805190602001906112b7929190611e71565b5060408201518160020190805190602001906112d4929190611e71565b5060608201518160030190805190602001906112f1929190611e71565b506080820151816004015560a08201518160050160006101000a81548173ffffffffffffffffffffffffffffffffffffffff021916908373ffffffffffffffffffffffffffffffffffffffff16021790555060c08201518160050160146101000a81548160ff0219169083151502179055509050503373ffffffffffffffffffffffffffffffffffffffff166001547fb42a33e9d9fa79d202870b04356f7bdd71bc6c571cf188fd0f777c7b23af39f286868686336000604051808060200180602001806020018781526020018673ffffffffffffffffffffffffffffffffffffffff1673ffffffffffffffffffffffffffffffffffffffff1681526020018515151515815260200184810384528a818151815260200191508051906020019080838360005b83811015611432578082015181840152602081019050611417565b50505050905090810190601f16801561145f5780820380516001836020036101000a031916815260200191505b50848103835289818151815260200191508051906020019080838360005b8381101561149857808201518184015260208101905061147d565b50505050905090810190601f1680156114c55780820380516001836020036101000a031916815260200191505b50848103825288818151815260200191508051906020019080838360005b838110156114fe5780820151818401526020810190506114e3565b50505050905090810190601f16801561152b5780820380516001836020036101000a031916815260200191505b50995050505050505050505060405180910390a350505050565b60025481565b611553611ef1565b6004600084815260200190815260200160002060e0604051908101604052908160008201548152602001600182018054600181600116156101000203166002900480601f0160208091040260200160405190810160405280929190818152602001828054600181600116156101000203166002900480156116155780601f106115ea57610100808354040283529160200191611615565b820191906000526020600020905b8154815290600101906020018083116115f857829003601f168201915b50505050508152602001600282018054600181600116156101000203166002900480601f0160208091040260200160405190810160405280929190818152602001828054600181600116156101000203166002900480156116b75780601f1061168c576101008083540402835291602001916116b7565b820191906000526020600020905b81548152906001019060200180831161169a57829003601f168201915b50505050508152602001600382018054600181600116156101000203166002900480601f0160208091040260200160405190810160405280929190818152602001828054600181600116156101000203166002900480156117595780601f1061172e57610100808354040283529160200191611759565b820191906000526020600020905b81548152906001019060200180831161173c57829003601f168201915b50505050508152602001600482015481526020016005820160009054906101000a900473ffffffffffffffffffffffffffffffffffffffff1673ffffffffffffffffffffffffffffffffffffffff1673ffffffffffffffffffffffffffffffffffffffff1681526020016005820160149054906101000a900460ff161515151581525050905060008160a0015190508073ffffffffffffffffffffffffffffffffffffffff166108fc349081150290604051600060405180830381858888f1935050505015801561182e573d6000803e3d6000fd5b506002600081548092919060010191905055503373ffffffffffffffffffffffffffffffffffffffff16846002547f13da99543681fc852b62949ab1d5a9e540e5dc6b2b61974730727512793d7986856020015187863360405180806020018581526020018473ffffffffffffffffffffffffffffffffffffffff1673ffffffffffffffffffffffffffffffffffffffff1681526020018373ffffffffffffffffffffffffffffffffffffffff1673ffffffffffffffffffffffffffffffffffffffff168152602001828103825286818151815260200191508051906020019080838360005b8381101561192f578082015181840152602081019050611914565b50505050905090810190601f16801561195c5780820380516001836020036101000a031916815260200191505b509550505050505060405180910390a450505050565b6005602052806000526040600020600091509050806000015490806001018054600181600116156101000203166002900480601f016020809104026020016040519081016040528092919081815260200182805460018160011615610100020316600290048015611a245780601f106119f957610100808354040283529160200191611a24565b820191906000526020600020905b815481529060010190602001808311611a0757829003601f168201915b505050505090806002018054600181600116156101000203166002900480601f016020809104026020016040519081016040528092919081815260200182805460018160011615610100020316600290048015611ac25780601f10611a9757610100808354040283529160200191611ac2565b820191906000526020600020905b815481529060010190602001808311611aa557829003601f168201915b505050505090806003018054600181600116156101000203166002900480601f016020809104026020016040519081016040528092919081815260200182805460018160011615610100020316600290048015611b605780601f10611b3557610100808354040283529160200191611b60565b820191906000526020600020905b815481529060010190602001808311611b4357829003601f168201915b505050505090806004018054600181600116156101000203166002900480601f016020809104026020016040519081016040528092919081815260200182805460018160011615610100020316600290048015611bfe5780601f10611bd357610100808354040283529160200191611bfe565b820191906000526020600020905b815481529060010190602001808311611be157829003601f168201915b5050505050908060050160009054906101000a900473ffffffffffffffffffffffffffffffffffffffff16905086565b60015481565b60035481565b6004602052806000526040600020600091509050806000015490806001018054600181600116156101000203166002900480601f016020809104026020016040519081016040528092919081815260200182805460018160011615610100020316600290048015611cec5780601f10611cc157610100808354040283529160200191611cec565b820191906000526020600020905b815481529060010190602001808311611ccf57829003601f168201915b505050505090806002018054600181600116156101000203166002900480601f016020809104026020016040519081016040528092919081815260200182805460018160011615610100020316600290048015611d8a5780601f10611d5f57610100808354040283529160200191611d8a565b820191906000526020600020905b815481529060010190602001808311611d6d57829003601f168201915b505050505090806003018054600181600116156101000203166002900480601f016020809104026020016040519081016040528092919081815260200182805460018160011615610100020316600290048015611e285780601f10611dfd57610100808354040283529160200191611e28565b820191906000526020600020905b815481529060010190602001808311611e0b57829003601f168201915b5050505050908060040154908060050160009054906101000a900473ffffffffffffffffffffffffffffffffffffffff16908060050160149054906101000a900460ff16905087565b828054600181600116156101000203166002900490600052602060002090601f016020900481019282601f10611eb257805160ff1916838001178555611ee0565b82800160010185558215611ee0579182015b82811115611edf578251825591602001919060010190611ec4565b5b509050611eed9190611f47565b5090565b60e0604051908101604052806000815260200160608152602001606081526020016060815260200160008152602001600073ffffffffffffffffffffffffffffffffffffffff1681526020016000151581525090565b611f6991905b80821115611f65576000816000905550600101611f4d565b5090565b9056fea165627a7a723058208c3966aa10f892b1ba93849c251bdd23f3f5bd88380d18462d4ae3f9a848cc590029",
  "source": "pragma solidity ^0.5.0;\r\n\r\ncontract WaqfChain {\r\n    string public name;\r\n    uint public productCount = 0;\r\n    uint public sendCount = 0;\r\n    uint public accountCount = 0;\r\n    // APPLY ONLY OWNER!!!!!!!!!!!!!!!!!!!!!!!!!!!!!!!!!!!\r\n    modifier onlyOwner {\r\n        require(msg.sender == 0xc8136a608036C7FbbF7d052a70b76EDeAB864Ab4, 'You are not an admin');\r\n        _;\r\n    }\r\n// nama user => {id waqf}\r\n    struct WaqfEvent {\r\n        uint id;\r\n        string name;\r\n        string details;\r\n        string product_type;\r\n        uint price;\r\n        address payable owner;\r\n        bool closed;\r\n    }\r\n\r\n    struct CreateAccount {\r\n        uint id;\r\n        string name;\r\n        string username;\r\n        string email;\r\n        string password;\r\n        address userAddress;\r\n    }\r\n\r\n    event WaqfEventCreated(\r\n        uint indexed id,\r\n        string name,\r\n        string details,\r\n        string product_type,\r\n        uint price,\r\n        address payable owner,\r\n        address indexed ownerAddress,\r\n        bool closed\r\n    );\r\n\r\n    event accountCreated(\r\n        uint indexed id,\r\n        string name,\r\n        string username,\r\n        string email,\r\n        string password,\r\n        address indexed userAddress\r\n    );\r\n\r\n    event SendWaqfCreated(\r\n        uint indexed id,\r\n        uint indexed waqfId,\r\n        string name,\r\n        uint price,\r\n        address payable seller,\r\n        address payable sender, \r\n        address indexed senderAddress\r\n    );\r\n\r\n    mapping(uint => WaqfEvent) public waqfEvents;\r\n    mapping(uint => CreateAccount) public createAccount;\r\n\r\n    constructor() public {\r\n        name = \"WaqfChain\";\r\n    }\r\n\r\n    function createAccounts(string memory _name, string memory _username, string memory _email, string memory _password) public {\r\n        require(bytes(_name).length > 0, 'name is empty');\r\n        require(bytes(_username).length > 0, 'username is empty');\r\n        require(bytes(_email).length > 0, 'email is empty');\r\n        require(bytes(_password).length > 0, 'password is empty');\r\n        accountCount++;\r\n        createAccount[accountCount] = CreateAccount(accountCount, _name, _username, _email, _password, msg.sender);\r\n        emit accountCreated(accountCount, _name, _username, _email, _password, msg.sender);\r\n    }\r\n\r\n    function createProduct(string memory _name, string memory _details, string memory _product_types, uint _price) public {\r\n        require(bytes(_name).length > 0, 'name is empty');\r\n        require(bytes(_details).length > 0, 'details is empty');\r\n        require(bytes(_product_types).length > 0, 'product types is empty');\r\n        require(_price > 0, 'prices types is empty');\r\n        productCount ++;\r\n        waqfEvents[productCount] = WaqfEvent(productCount, _name, _details, _product_types, _price, msg.sender, false);\r\n        emit WaqfEventCreated(productCount, _name, _details, _product_types, _price, msg.sender, msg.sender, false);\r\n    }\r\n\r\n    function sendWaqf(uint _id, uint _price) public payable{\r\n        WaqfEvent memory _waqfevent = waqfEvents[_id];\r\n        address payable _owner = _waqfevent.owner;\r\n        address(_owner).transfer(msg.value);\r\n        sendCount ++;\r\n        emit SendWaqfCreated(sendCount, _id, _waqfevent.name, _price, _owner, msg.sender, msg.sender);\r\n    }   \r\n}",
  "sourcePath": "D:/Blockchain/Project/waqf-chain/src/contracts/WaqfChain.sol",
  "compiler": {
    "name": "solc",
    "version": "0.5.0+commit.1d4f565a.Emscripten.clang"
  },
  "schemaVersion": "3.0.2",
  "updatedAt": "2020-09-12T09:36:42.649Z",
  "devdoc": {
    "methods": {}
  },
  "userdoc": {
    "methods": {}
  }
}