{
  "contractName": "WaqfChain",
  "abi": [
    {
      "constant": true,
      "inputs": [],
      "name": "name",
      "outputs": [
        {
          "name": "",
          "type": "string"
        }
      ],
      "payable": false,
      "stateMutability": "view",
      "type": "function",
      "signature": "0x06fdde03"
    },
    {
      "constant": true,
      "inputs": [
        {
          "name": "",
          "type": "uint256"
        }
      ],
      "name": "updateWaqfEvents",
      "outputs": [
        {
          "name": "id",
          "type": "uint256"
        },
        {
          "name": "waqfId",
          "type": "uint256"
        },
        {
          "name": "data_1",
          "type": "string"
        },
        {
          "name": "date_1",
          "type": "string"
        },
        {
          "name": "location",
          "type": "string"
        },
        {
          "name": "moneyUsed",
          "type": "string"
        },
        {
          "name": "admin",
          "type": "address"
        }
      ],
      "payable": false,
      "stateMutability": "view",
      "type": "function",
      "signature": "0x4de2e748"
    },
    {
      "constant": true,
      "inputs": [],
      "name": "updateCount",
      "outputs": [
        {
          "name": "",
          "type": "uint256"
        }
      ],
      "payable": false,
      "stateMutability": "view",
      "type": "function",
      "signature": "0x69b4ecc9"
    },
    {
      "constant": true,
      "inputs": [],
      "name": "sendCount",
      "outputs": [
        {
          "name": "",
          "type": "uint256"
        }
      ],
      "payable": false,
      "stateMutability": "view",
      "type": "function",
      "signature": "0x6ed65dae"
    },
    {
      "constant": true,
      "inputs": [],
      "name": "closeCount",
      "outputs": [
        {
          "name": "",
          "type": "uint256"
        }
      ],
      "payable": false,
      "stateMutability": "view",
      "type": "function",
      "signature": "0xbaa03fd0"
    },
    {
      "constant": true,
      "inputs": [],
      "name": "adminAccount",
      "outputs": [
        {
          "name": "",
          "type": "address"
        }
      ],
      "payable": false,
      "stateMutability": "view",
      "type": "function",
      "signature": "0xc26e9118"
    },
    {
      "constant": true,
      "inputs": [
        {
          "name": "",
          "type": "uint256"
        }
      ],
      "name": "createAccount",
      "outputs": [
        {
          "name": "id",
          "type": "uint256"
        },
        {
          "name": "name",
          "type": "string"
        },
        {
          "name": "username",
          "type": "string"
        },
        {
          "name": "email",
          "type": "string"
        },
        {
          "name": "password",
          "type": "string"
        },
        {
          "name": "userAddress",
          "type": "address"
        }
      ],
      "payable": false,
      "stateMutability": "view",
      "type": "function",
      "signature": "0xcab13915"
    },
    {
      "constant": true,
      "inputs": [],
      "name": "productCount",
      "outputs": [
        {
          "name": "",
          "type": "uint256"
        }
      ],
      "payable": false,
      "stateMutability": "view",
      "type": "function",
      "signature": "0xe0f6ef87"
    },
    {
      "constant": true,
      "inputs": [],
      "name": "accountCount",
      "outputs": [
        {
          "name": "",
          "type": "uint256"
        }
      ],
      "payable": false,
      "stateMutability": "view",
      "type": "function",
      "signature": "0xe4af29fc"
    },
    {
      "constant": true,
      "inputs": [
        {
          "name": "",
          "type": "uint256"
        }
      ],
      "name": "waqfEvents",
      "outputs": [
        {
          "name": "id",
          "type": "uint256"
        },
        {
          "name": "name",
          "type": "string"
        },
        {
          "name": "details",
          "type": "string"
        },
        {
          "name": "product_type",
          "type": "string"
        },
        {
          "name": "price",
          "type": "uint256"
        },
        {
          "name": "owner",
          "type": "address"
        },
        {
          "name": "closed",
          "type": "bool"
        }
      ],
      "payable": false,
      "stateMutability": "view",
      "type": "function",
      "signature": "0xfdcc7a73"
    },
    {
      "inputs": [],
      "payable": false,
      "stateMutability": "nonpayable",
      "type": "constructor",
      "signature": "constructor"
    },
    {
      "anonymous": false,
      "inputs": [
        {
          "indexed": true,
          "name": "id",
          "type": "uint256"
        },
        {
          "indexed": false,
          "name": "name",
          "type": "string"
        },
        {
          "indexed": false,
          "name": "details",
          "type": "string"
        },
        {
          "indexed": false,
          "name": "product_type",
          "type": "string"
        },
        {
          "indexed": false,
          "name": "price",
          "type": "uint256"
        },
        {
          "indexed": false,
          "name": "owner",
          "type": "address"
        },
        {
          "indexed": true,
          "name": "ownerAddress",
          "type": "address"
        },
        {
          "indexed": false,
          "name": "closed",
          "type": "bool"
        }
      ],
      "name": "WaqfEventCreated",
      "type": "event",
      "signature": "0xb42a33e9d9fa79d202870b04356f7bdd71bc6c571cf188fd0f777c7b23af39f2"
    },
    {
      "anonymous": false,
      "inputs": [
        {
          "indexed": true,
          "name": "id",
          "type": "uint256"
        },
        {
          "indexed": false,
          "name": "name",
          "type": "string"
        },
        {
          "indexed": false,
          "name": "username",
          "type": "string"
        },
        {
          "indexed": false,
          "name": "email",
          "type": "string"
        },
        {
          "indexed": false,
          "name": "password",
          "type": "string"
        },
        {
          "indexed": true,
          "name": "userAddress",
          "type": "address"
        }
      ],
      "name": "accountCreated",
      "type": "event",
      "signature": "0x9a6fbf17002de0ec51587331553a6e99a598b99035e4dd10c1c64e866e5b60b5"
    },
    {
      "anonymous": false,
      "inputs": [
        {
          "indexed": true,
          "name": "id",
          "type": "uint256"
        },
        {
          "indexed": true,
          "name": "waqfId",
          "type": "uint256"
        },
        {
          "indexed": false,
          "name": "name",
          "type": "string"
        },
        {
          "indexed": false,
          "name": "price",
          "type": "uint256"
        },
        {
          "indexed": false,
          "name": "seller",
          "type": "address"
        },
        {
          "indexed": false,
          "name": "sender",
          "type": "address"
        },
        {
          "indexed": true,
          "name": "senderAddress",
          "type": "address"
        }
      ],
      "name": "SendWaqfCreated",
      "type": "event",
      "signature": "0x13da99543681fc852b62949ab1d5a9e540e5dc6b2b61974730727512793d7986"
    },
    {
      "anonymous": false,
      "inputs": [
        {
          "indexed": true,
          "name": "id",
          "type": "uint256"
        },
        {
          "indexed": true,
          "name": "waqfId",
          "type": "uint256"
        },
        {
          "indexed": false,
          "name": "data_1",
          "type": "string"
        },
        {
          "indexed": false,
          "name": "date_1",
          "type": "string"
        },
        {
          "indexed": false,
          "name": "location",
          "type": "string"
        },
        {
          "indexed": false,
          "name": "moneyUsed",
          "type": "string"
        },
        {
          "indexed": false,
          "name": "admin",
          "type": "address"
        }
      ],
      "name": "updateWaqf",
      "type": "event",
      "signature": "0x94e6392964f71a3fdcb9eb55166da9ba5bcd6320df2847eb524d0e57613fbaec"
    },
    {
      "anonymous": false,
      "inputs": [
        {
          "indexed": false,
          "name": "id",
          "type": "uint256"
        },
        {
          "indexed": false,
          "name": "waqfId",
          "type": "uint256"
        },
        {
          "indexed": false,
          "name": "sender",
          "type": "address"
        }
      ],
      "name": "waqfClosedCreated",
      "type": "event",
      "signature": "0x8df8b3eb734edb91db6c4dab55bec8085b4f8ce89bbfe44c2a3fa016a184f89c"
    },
    {
      "constant": false,
      "inputs": [
        {
          "name": "_name",
          "type": "string"
        },
        {
          "name": "_username",
          "type": "string"
        },
        {
          "name": "_email",
          "type": "string"
        },
        {
          "name": "_password",
          "type": "string"
        }
      ],
      "name": "createAccounts",
      "outputs": [],
      "payable": false,
      "stateMutability": "nonpayable",
      "type": "function",
      "signature": "0x10ddf9fe"
    },
    {
      "constant": false,
      "inputs": [
        {
          "name": "_name",
          "type": "string"
        },
        {
          "name": "_details",
          "type": "string"
        },
        {
          "name": "_product_types",
          "type": "string"
        },
        {
          "name": "_price",
          "type": "uint256"
        }
      ],
      "name": "createProduct",
      "outputs": [],
      "payable": false,
      "stateMutability": "nonpayable",
      "type": "function",
      "signature": "0x1b61040d"
    },
    {
      "constant": false,
      "inputs": [
        {
          "name": "_id",
          "type": "uint256"
        },
        {
          "name": "_price",
          "type": "uint256"
        }
      ],
      "name": "sendWaqf",
      "outputs": [],
      "payable": true,
      "stateMutability": "payable",
      "type": "function",
      "signature": "0x7da532b4"
    },
    {
      "constant": false,
      "inputs": [
        {
          "name": "_waqfId",
          "type": "uint256"
        }
      ],
      "name": "closeWaqfStatus",
      "outputs": [],
      "payable": false,
      "stateMutability": "nonpayable",
      "type": "function",
      "signature": "0x903210eb"
    },
    {
      "constant": false,
      "inputs": [
        {
          "name": "_waqfId",
          "type": "uint256"
        },
        {
          "name": "_data",
          "type": "string"
        },
        {
          "name": "_date",
          "type": "string"
        },
        {
          "name": "_location",
          "type": "string"
        },
        {
          "name": "_usedMoney",
          "type": "string"
        }
      ],
      "name": "updatingWaqf",
      "outputs": [],
      "payable": false,
      "stateMutability": "nonpayable",
      "type": "function",
      "signature": "0xcf604853"
    }
  ],
  "bytecode": "0x608060405260006001556000600255600060035560006004556000600555737f66cfc691119188ad1e25dd4504cdf2d611d0c4600660006101000a81548173ffffffffffffffffffffffffffffffffffffffff021916908373ffffffffffffffffffffffffffffffffffffffff1602179055503480156200007f57600080fd5b506040805190810160405280600981526020017f57617166436861696e000000000000000000000000000000000000000000000081525060009080519060200190620000cd929190620000d4565b5062000183565b828054600181600116156101000203166002900490600052602060002090601f016020900481019282601f106200011757805160ff191683800117855562000148565b8280016001018555821562000148579182015b82811115620001475782518255916020019190600101906200012a565b5b5090506200015791906200015b565b5090565b6200018091905b808211156200017c57600081600090555060010162000162565b5090565b90565b6135a180620001936000396000f3fe6080604052600436106100db576000357c0100000000000000000000000000000000000000000000000000000000900463ffffffff16806306fdde03146100e057806310ddf9fe146101705780631b61040d146103fd5780634de2e748146105fd57806369b4ecc9146108365780636ed65dae146108615780637da532b41461088c578063903210eb146108c4578063baa03fd0146108ff578063c26e91181461092a578063cab1391514610981578063cf60485314610bb3578063e0f6ef8714610e4a578063e4af29fc14610e75578063fdcc7a7314610ea0575b600080fd5b3480156100ec57600080fd5b506100f5611078565b6040518080602001828103825283818151815260200191508051906020019080838360005b8381101561013557808201518184015260208101905061011a565b50505050905090810190601f1680156101625780820380516001836020036101000a031916815260200191505b509250505060405180910390f35b34801561017c57600080fd5b506103fb6004803603608081101561019357600080fd5b81019080803590602001906401000000008111156101b057600080fd5b8201836020820111156101c257600080fd5b803590602001918460018302840111640100000000831117156101e457600080fd5b91908080601f016020809104026020016040519081016040528093929190818152602001838380828437600081840152601f19601f8201169050808301925050505050505091929192908035906020019064010000000081111561024757600080fd5b82018360208201111561025957600080fd5b8035906020019184600183028401116401000000008311171561027b57600080fd5b91908080601f016020809104026020016040519081016040528093929190818152602001838380828437600081840152601f19601f820116905080830192505050505050509192919290803590602001906401000000008111156102de57600080fd5b8201836020820111156102f057600080fd5b8035906020019184600183028401116401000000008311171561031257600080fd5b91908080601f016020809104026020016040519081016040528093929190818152602001838380828437600081840152601f19601f8201169050808301925050505050505091929192908035906020019064010000000081111561037557600080fd5b82018360208201111561038757600080fd5b803590602001918460018302840111640100000000831117156103a957600080fd5b91908080601f016020809104026020016040519081016040528093929190818152602001838380828437600081840152601f19601f820116905080830192505050505050509192919290505050611116565b005b34801561040957600080fd5b506105fb6004803603608081101561042057600080fd5b810190808035906020019064010000000081111561043d57600080fd5b82018360208201111561044f57600080fd5b8035906020019184600183028401116401000000008311171561047157600080fd5b91908080601f016020809104026020016040519081016040528093929190818152602001838380828437600081840152601f19601f820116905080830192505050505050509192919290803590602001906401000000008111156104d457600080fd5b8201836020820111156104e657600080fd5b8035906020019184600183028401116401000000008311171561050857600080fd5b91908080601f016020809104026020016040519081016040528093929190818152602001838380828437600081840152601f19601f8201169050808301925050505050505091929192908035906020019064010000000081111561056b57600080fd5b82018360208201111561057d57600080fd5b8035906020019184600183028401116401000000008311171561059f57600080fd5b91908080601f016020809104026020016040519081016040528093929190818152602001838380828437600081840152601f19601f82011690508083019250505050505050919291929080359060200190929190505050611632565b005b34801561060957600080fd5b506106366004803603602081101561062057600080fd5b8101908080359060200190929190505050611c04565b60405180888152602001878152602001806020018060200180602001806020018673ffffffffffffffffffffffffffffffffffffffff1673ffffffffffffffffffffffffffffffffffffffff16815260200185810385528a818151815260200191508051906020019080838360005b838110156106c05780820151818401526020810190506106a5565b50505050905090810190601f1680156106ed5780820380516001836020036101000a031916815260200191505b50858103845289818151815260200191508051906020019080838360005b8381101561072657808201518184015260208101905061070b565b50505050905090810190601f1680156107535780820380516001836020036101000a031916815260200191505b50858103835288818151815260200191508051906020019080838360005b8381101561078c578082015181840152602081019050610771565b50505050905090810190601f1680156107b95780820380516001836020036101000a031916815260200191505b50858103825287818151815260200191508051906020019080838360005b838110156107f25780820151818401526020810190506107d7565b50505050905090810190601f16801561081f5780820380516001836020036101000a031916815260200191505b509b50505050505050505050505060405180910390f35b34801561084257600080fd5b5061084b611ec6565b6040518082815260200191505060405180910390f35b34801561086d57600080fd5b50610876611ecc565b6040518082815260200191505060405180910390f35b6108c2600480360360408110156108a257600080fd5b810190808035906020019092919080359060200190929190505050611ed2565b005b3480156108d057600080fd5b506108fd600480360360208110156108e757600080fd5b81019080803590602001909291905050506122f9565b005b34801561090b57600080fd5b5061091461284f565b6040518082815260200191505060405180910390f35b34801561093657600080fd5b5061093f612855565b604051808273ffffffffffffffffffffffffffffffffffffffff1673ffffffffffffffffffffffffffffffffffffffff16815260200191505060405180910390f35b34801561098d57600080fd5b506109ba600480360360208110156109a457600080fd5b810190808035906020019092919050505061287b565b60405180878152602001806020018060200180602001806020018673ffffffffffffffffffffffffffffffffffffffff1673ffffffffffffffffffffffffffffffffffffffff16815260200185810385528a818151815260200191508051906020019080838360005b83811015610a3e578082015181840152602081019050610a23565b50505050905090810190601f168015610a6b5780820380516001836020036101000a031916815260200191505b50858103845289818151815260200191508051906020019080838360005b83811015610aa4578082015181840152602081019050610a89565b50505050905090810190601f168015610ad15780820380516001836020036101000a031916815260200191505b50858103835288818151815260200191508051906020019080838360005b83811015610b0a578082015181840152602081019050610aef565b50505050905090810190601f168015610b375780820380516001836020036101000a031916815260200191505b50858103825287818151815260200191508051906020019080838360005b83811015610b70578082015181840152602081019050610b55565b50505050905090810190601f168015610b9d5780820380516001836020036101000a031916815260200191505b509a505050505050505050505060405180910390f35b348015610bbf57600080fd5b50610e48600480360360a0811015610bd657600080fd5b810190808035906020019092919080359060200190640100000000811115610bfd57600080fd5b820183602082011115610c0f57600080fd5b80359060200191846001830284011164010000000083111715610c3157600080fd5b91908080601f016020809104026020016040519081016040528093929190818152602001838380828437600081840152601f19601f82011690508083019250505050505050919291929080359060200190640100000000811115610c9457600080fd5b820183602082011115610ca657600080fd5b80359060200191846001830284011164010000000083111715610cc857600080fd5b91908080601f016020809104026020016040519081016040528093929190818152602001838380828437600081840152601f19601f82011690508083019250505050505050919291929080359060200190640100000000811115610d2b57600080fd5b820183602082011115610d3d57600080fd5b80359060200191846001830284011164010000000083111715610d5f57600080fd5b91908080601f016020809104026020016040519081016040528093929190818152602001838380828437600081840152601f19601f82011690508083019250505050505050919291929080359060200190640100000000811115610dc257600080fd5b820183602082011115610dd457600080fd5b80359060200191846001830284011164010000000083111715610df657600080fd5b91908080601f016020809104026020016040519081016040528093929190818152602001838380828437600081840152601f19601f820116905080830192505050505050509192919290505050612b37565b005b348015610e5657600080fd5b50610e5f613237565b6040518082815260200191505060405180910390f35b348015610e8157600080fd5b50610e8a61323d565b6040518082815260200191505060405180910390f35b348015610eac57600080fd5b50610ed960048036036020811015610ec357600080fd5b8101908080359060200190929190505050613243565b604051808881526020018060200180602001806020018781526020018673ffffffffffffffffffffffffffffffffffffffff1673ffffffffffffffffffffffffffffffffffffffff1681526020018515151515815260200184810384528a818151815260200191508051906020019080838360005b83811015610f69578082015181840152602081019050610f4e565b50505050905090810190601f168015610f965780820380516001836020036101000a031916815260200191505b50848103835289818151815260200191508051906020019080838360005b83811015610fcf578082015181840152602081019050610fb4565b50505050905090810190601f168015610ffc5780820380516001836020036101000a031916815260200191505b50848103825288818151815260200191508051906020019080838360005b8381101561103557808201518184015260208101905061101a565b50505050905090810190601f1680156110625780820380516001836020036101000a031916815260200191505b509a505050505050505050505060405180910390f35b60008054600181600116156101000203166002900480601f01602080910402602001604051908101604052809291908181526020018280546001816001161561010002031660029004801561110e5780601f106110e35761010080835404028352916020019161110e565b820191906000526020600020905b8154815290600101906020018083116110f157829003601f168201915b505050505081565b6000845111151561118f576040517f08c379a000000000000000000000000000000000000000000000000000000000815260040180806020018281038252600d8152602001807f6e616d6520697320656d7074790000000000000000000000000000000000000081525060200191505060405180910390fd5b60008351111515611208576040517f08c379a00000000000000000000000000000000000000000000000000000000081526004018080602001828103825260118152602001807f757365726e616d6520697320656d70747900000000000000000000000000000081525060200191505060405180910390fd5b60008251111515611281576040517f08c379a000000000000000000000000000000000000000000000000000000000815260040180806020018281038252600e8152602001807f656d61696c20697320656d70747900000000000000000000000000000000000081525060200191505060405180910390fd5b600081511115156112fa576040517f08c379a00000000000000000000000000000000000000000000000000000000081526004018080602001828103825260118152602001807f70617373776f726420697320656d70747900000000000000000000000000000081525060200191505060405180910390fd5b60046000815480929190600101919050555060c06040519081016040528060045481526020018581526020018481526020018381526020018281526020013373ffffffffffffffffffffffffffffffffffffffff1681525060086000600454815260200190815260200160002060008201518160000155602082015181600101908051906020019061138d92919061347a565b5060408201518160020190805190602001906113aa92919061347a565b5060608201518160030190805190602001906113c792919061347a565b5060808201518160040190805190602001906113e492919061347a565b5060a08201518160050160006101000a81548173ffffffffffffffffffffffffffffffffffffffff021916908373ffffffffffffffffffffffffffffffffffffffff1602179055509050503373ffffffffffffffffffffffffffffffffffffffff166004547f9a6fbf17002de0ec51587331553a6e99a598b99035e4dd10c1c64e866e5b60b5868686866040518080602001806020018060200180602001858103855289818151815260200191508051906020019080838360005b838110156114ba57808201518184015260208101905061149f565b50505050905090810190601f1680156114e75780820380516001836020036101000a031916815260200191505b50858103845288818151815260200191508051906020019080838360005b83811015611520578082015181840152602081019050611505565b50505050905090810190601f16801561154d5780820380516001836020036101000a031916815260200191505b50858103835287818151815260200191508051906020019080838360005b8381101561158657808201518184015260208101905061156b565b50505050905090810190601f1680156115b35780820380516001836020036101000a031916815260200191505b50858103825286818151815260200191508051906020019080838360005b838110156115ec5780820151818401526020810190506115d1565b50505050905090810190601f1680156116195780820380516001836020036101000a031916815260200191505b509850505050505050505060405180910390a350505050565b600660009054906101000a900473ffffffffffffffffffffffffffffffffffffffff1673ffffffffffffffffffffffffffffffffffffffff163373ffffffffffffffffffffffffffffffffffffffff161415156116f7576040517f08c379a00000000000000000000000000000000000000000000000000000000081526004018080602001828103825260148152602001807f596f7520617265206e6f7420616e2061646d696e00000000000000000000000081525060200191505060405180910390fd5b60008451111515611770576040517f08c379a000000000000000000000000000000000000000000000000000000000815260040180806020018281038252600d8152602001807f6e616d6520697320656d7074790000000000000000000000000000000000000081525060200191505060405180910390fd5b600083511115156117e9576040517f08c379a00000000000000000000000000000000000000000000000000000000081526004018080602001828103825260108152602001807f64657461696c7320697320656d7074790000000000000000000000000000000081525060200191505060405180910390fd5b60008251111515611862576040517f08c379a00000000000000000000000000000000000000000000000000000000081526004018080602001828103825260168152602001807f70726f6475637420747970657320697320656d7074790000000000000000000081525060200191505060405180910390fd5b6000811115156118da576040517f08c379a00000000000000000000000000000000000000000000000000000000081526004018080602001828103825260158152602001807f70726963657320747970657320697320656d707479000000000000000000000081525060200191505060405180910390fd5b60016000815480929190600101919050555060e06040519081016040528060015481526020018581526020018481526020018381526020018281526020013373ffffffffffffffffffffffffffffffffffffffff1681526020016000151581525060076000600154815260200190815260200160002060008201518160000155602082015181600101908051906020019061197692919061347a565b50604082015181600201908051906020019061199392919061347a565b5060608201518160030190805190602001906119b092919061347a565b506080820151816004015560a08201518160050160006101000a81548173ffffffffffffffffffffffffffffffffffffffff021916908373ffffffffffffffffffffffffffffffffffffffff16021790555060c08201518160050160146101000a81548160ff0219169083151502179055509050503373ffffffffffffffffffffffffffffffffffffffff166001547fb42a33e9d9fa79d202870b04356f7bdd71bc6c571cf188fd0f777c7b23af39f286868686336000604051808060200180602001806020018781526020018673ffffffffffffffffffffffffffffffffffffffff1673ffffffffffffffffffffffffffffffffffffffff1681526020018515151515815260200184810384528a818151815260200191508051906020019080838360005b83811015611af1578082015181840152602081019050611ad6565b50505050905090810190601f168015611b1e5780820380516001836020036101000a031916815260200191505b50848103835289818151815260200191508051906020019080838360005b83811015611b57578082015181840152602081019050611b3c565b50505050905090810190601f168015611b845780820380516001836020036101000a031916815260200191505b50848103825288818151815260200191508051906020019080838360005b83811015611bbd578082015181840152602081019050611ba2565b50505050905090810190601f168015611bea5780820380516001836020036101000a031916815260200191505b50995050505050505050505060405180910390a350505050565b6009602052806000526040600020600091509050806000015490806001015490806002018054600181600116156101000203166002900480601f016020809104026020016040519081016040528092919081815260200182805460018160011615610100020316600290048015611cbc5780601f10611c9157610100808354040283529160200191611cbc565b820191906000526020600020905b815481529060010190602001808311611c9f57829003601f168201915b505050505090806003018054600181600116156101000203166002900480601f016020809104026020016040519081016040528092919081815260200182805460018160011615610100020316600290048015611d5a5780601f10611d2f57610100808354040283529160200191611d5a565b820191906000526020600020905b815481529060010190602001808311611d3d57829003601f168201915b505050505090806004018054600181600116156101000203166002900480601f016020809104026020016040519081016040528092919081815260200182805460018160011615610100020316600290048015611df85780601f10611dcd57610100808354040283529160200191611df8565b820191906000526020600020905b815481529060010190602001808311611ddb57829003601f168201915b505050505090806005018054600181600116156101000203166002900480601f016020809104026020016040519081016040528092919081815260200182805460018160011615610100020316600290048015611e965780601f10611e6b57610100808354040283529160200191611e96565b820191906000526020600020905b815481529060010190602001808311611e7957829003601f168201915b5050505050908060060160009054906101000a900473ffffffffffffffffffffffffffffffffffffffff16905087565b60025481565b60035481565b611eda6134fa565b6007600084815260200190815260200160002060e0604051908101604052908160008201548152602001600182018054600181600116156101000203166002900480601f016020809104026020016040519081016040528092919081815260200182805460018160011615610100020316600290048015611f9c5780601f10611f7157610100808354040283529160200191611f9c565b820191906000526020600020905b815481529060010190602001808311611f7f57829003601f168201915b50505050508152602001600282018054600181600116156101000203166002900480601f01602080910402602001604051908101604052809291908181526020018280546001816001161561010002031660029004801561203e5780601f106120135761010080835404028352916020019161203e565b820191906000526020600020905b81548152906001019060200180831161202157829003601f168201915b50505050508152602001600382018054600181600116156101000203166002900480601f0160208091040260200160405190810160405280929190818152602001828054600181600116156101000203166002900480156120e05780601f106120b5576101008083540402835291602001916120e0565b820191906000526020600020905b8154815290600101906020018083116120c357829003601f168201915b50505050508152602001600482015481526020016005820160009054906101000a900473ffffffffffffffffffffffffffffffffffffffff1673ffffffffffffffffffffffffffffffffffffffff1673ffffffffffffffffffffffffffffffffffffffff1681526020016005820160149054906101000a900460ff161515151581525050905060008160a0015190508073ffffffffffffffffffffffffffffffffffffffff166108fc349081150290604051600060405180830381858888f193505050501580156121b5573d6000803e3d6000fd5b506003600081548092919060010191905055503373ffffffffffffffffffffffffffffffffffffffff16846003547f13da99543681fc852b62949ab1d5a9e540e5dc6b2b61974730727512793d7986856020015187863360405180806020018581526020018473ffffffffffffffffffffffffffffffffffffffff1673ffffffffffffffffffffffffffffffffffffffff1681526020018373ffffffffffffffffffffffffffffffffffffffff1673ffffffffffffffffffffffffffffffffffffffff168152602001828103825286818151815260200191508051906020019080838360005b838110156122b657808201518184015260208101905061229b565b50505050905090810190601f1680156122e35780820380516001836020036101000a031916815260200191505b509550505050505060405180910390a450505050565b600660009054906101000a900473ffffffffffffffffffffffffffffffffffffffff1673ffffffffffffffffffffffffffffffffffffffff163373ffffffffffffffffffffffffffffffffffffffff161415156123be576040517f08c379a00000000000000000000000000000000000000000000000000000000081526004018080602001828103825260148152602001807f596f7520617265206e6f7420616e2061646d696e00000000000000000000000081525060200191505060405180910390fd5b600081111515612436576040517f08c379a00000000000000000000000000000000000000000000000000000000081526004018080602001828103825260128152602001807f7761716620696420697320696e76616c6964000000000000000000000000000081525060200191505060405180910390fd5b6005600081548092919060010191905055506124506134fa565b6007600083815260200190815260200160002060e0604051908101604052908160008201548152602001600182018054600181600116156101000203166002900480601f0160208091040260200160405190810160405280929190818152602001828054600181600116156101000203166002900480156125125780601f106124e757610100808354040283529160200191612512565b820191906000526020600020905b8154815290600101906020018083116124f557829003601f168201915b50505050508152602001600282018054600181600116156101000203166002900480601f0160208091040260200160405190810160405280929190818152602001828054600181600116156101000203166002900480156125b45780601f10612589576101008083540402835291602001916125b4565b820191906000526020600020905b81548152906001019060200180831161259757829003601f168201915b50505050508152602001600382018054600181600116156101000203166002900480601f0160208091040260200160405190810160405280929190818152602001828054600181600116156101000203166002900480156126565780601f1061262b57610100808354040283529160200191612656565b820191906000526020600020905b81548152906001019060200180831161263957829003601f168201915b50505050508152602001600482015481526020016005820160009054906101000a900473ffffffffffffffffffffffffffffffffffffffff1673ffffffffffffffffffffffffffffffffffffffff1673ffffffffffffffffffffffffffffffffffffffff1681526020016005820160149054906101000a900460ff161515151581525050905060018160c0019015159081151581525050806007600084815260200190815260200160002060008201518160000155602082015181600101908051906020019061272792919061347a565b50604082015181600201908051906020019061274492919061347a565b50606082015181600301908051906020019061276192919061347a565b506080820151816004015560a08201518160050160006101000a81548173ffffffffffffffffffffffffffffffffffffffff021916908373ffffffffffffffffffffffffffffffffffffffff16021790555060c08201518160050160146101000a81548160ff0219169083151502179055509050507f8df8b3eb734edb91db6c4dab55bec8085b4f8ce89bbfe44c2a3fa016a184f89c6005548333604051808481526020018381526020018273ffffffffffffffffffffffffffffffffffffffff1673ffffffffffffffffffffffffffffffffffffffff168152602001935050505060405180910390a15050565b60055481565b600660009054906101000a900473ffffffffffffffffffffffffffffffffffffffff1681565b6008602052806000526040600020600091509050806000015490806001018054600181600116156101000203166002900480601f01602080910402602001604051908101604052809291908181526020018280546001816001161561010002031660029004801561292d5780601f106129025761010080835404028352916020019161292d565b820191906000526020600020905b81548152906001019060200180831161291057829003601f168201915b505050505090806002018054600181600116156101000203166002900480601f0160208091040260200160405190810160405280929190818152602001828054600181600116156101000203166002900480156129cb5780601f106129a0576101008083540402835291602001916129cb565b820191906000526020600020905b8154815290600101906020018083116129ae57829003601f168201915b505050505090806003018054600181600116156101000203166002900480601f016020809104026020016040519081016040528092919081815260200182805460018160011615610100020316600290048015612a695780601f10612a3e57610100808354040283529160200191612a69565b820191906000526020600020905b815481529060010190602001808311612a4c57829003601f168201915b505050505090806004018054600181600116156101000203166002900480601f016020809104026020016040519081016040528092919081815260200182805460018160011615610100020316600290048015612b075780601f10612adc57610100808354040283529160200191612b07565b820191906000526020600020905b815481529060010190602001808311612aea57829003601f168201915b5050505050908060050160009054906101000a900473ffffffffffffffffffffffffffffffffffffffff16905086565b600660009054906101000a900473ffffffffffffffffffffffffffffffffffffffff1673ffffffffffffffffffffffffffffffffffffffff163373ffffffffffffffffffffffffffffffffffffffff16141515612bfc576040517f08c379a00000000000000000000000000000000000000000000000000000000081526004018080602001828103825260148152602001807f596f7520617265206e6f7420616e2061646d696e00000000000000000000000081525060200191505060405180910390fd5b600085111515612c74576040517f08c379a00000000000000000000000000000000000000000000000000000000081526004018080602001828103825260128152602001807f7761716620696420697320696e76616c6964000000000000000000000000000081525060200191505060405180910390fd5b600085111515612cec576040517f08c379a00000000000000000000000000000000000000000000000000000000081526004018080602001828103825260128152602001807f7761716620696420697320696e76616c6964000000000000000000000000000081525060200191505060405180910390fd5b60008451111515612d65576040517f08c379a000000000000000000000000000000000000000000000000000000000815260040180806020018281038252600d8152602001807f6461746120697320656d7074790000000000000000000000000000000000000081525060200191505060405180910390fd5b60008351111515612dde576040517f08c379a000000000000000000000000000000000000000000000000000000000815260040180806020018281038252600d8152602001807f6461746520697320656d7074790000000000000000000000000000000000000081525060200191505060405180910390fd5b60008251111515612e57576040517f08c379a00000000000000000000000000000000000000000000000000000000081526004018080602001828103825260118152602001807f6c6f636174696f6e20697320656d70747900000000000000000000000000000081525060200191505060405180910390fd5b60008151111515612ed0576040517f08c379a00000000000000000000000000000000000000000000000000000000081526004018080602001828103825260138152602001807f75736564206d6f6e657920697320656d7074790000000000000000000000000081525060200191505060405180910390fd5b60026000815480929190600101919050555060e06040519081016040528060025481526020018681526020018581526020018481526020018381526020018281526020013373ffffffffffffffffffffffffffffffffffffffff1681525060096000600254815260200190815260200160002060008201518160000155602082015181600101556040820151816002019080519060200190612f7392919061347a565b506060820151816003019080519060200190612f9092919061347a565b506080820151816004019080519060200190612fad92919061347a565b5060a0820151816005019080519060200190612fca92919061347a565b5060c08201518160060160006101000a81548173ffffffffffffffffffffffffffffffffffffffff021916908373ffffffffffffffffffffffffffffffffffffffff160217905550905050846002547f94e6392964f71a3fdcb9eb55166da9ba5bcd6320df2847eb524d0e57613fbaec868686863360405180806020018060200180602001806020018673ffffffffffffffffffffffffffffffffffffffff1673ffffffffffffffffffffffffffffffffffffffff16815260200185810385528a818151815260200191508051906020019080838360005b838110156130bd5780820151818401526020810190506130a2565b50505050905090810190601f1680156130ea5780820380516001836020036101000a031916815260200191505b50858103845289818151815260200191508051906020019080838360005b83811015613123578082015181840152602081019050613108565b50505050905090810190601f1680156131505780820380516001836020036101000a031916815260200191505b50858103835288818151815260200191508051906020019080838360005b8381101561318957808201518184015260208101905061316e565b50505050905090810190601f1680156131b65780820380516001836020036101000a031916815260200191505b50858103825287818151815260200191508051906020019080838360005b838110156131ef5780820151818401526020810190506131d4565b50505050905090810190601f16801561321c5780820380516001836020036101000a031916815260200191505b50995050505050505050505060405180910390a35050505050565b60015481565b60045481565b6007602052806000526040600020600091509050806000015490806001018054600181600116156101000203166002900480601f0160208091040260200160405190810160405280929190818152602001828054600181600116156101000203166002900480156132f55780601f106132ca576101008083540402835291602001916132f5565b820191906000526020600020905b8154815290600101906020018083116132d857829003601f168201915b505050505090806002018054600181600116156101000203166002900480601f0160208091040260200160405190810160405280929190818152602001828054600181600116156101000203166002900480156133935780601f1061336857610100808354040283529160200191613393565b820191906000526020600020905b81548152906001019060200180831161337657829003601f168201915b505050505090806003018054600181600116156101000203166002900480601f0160208091040260200160405190810160405280929190818152602001828054600181600116156101000203166002900480156134315780601f1061340657610100808354040283529160200191613431565b820191906000526020600020905b81548152906001019060200180831161341457829003601f168201915b5050505050908060040154908060050160009054906101000a900473ffffffffffffffffffffffffffffffffffffffff16908060050160149054906101000a900460ff16905087565b828054600181600116156101000203166002900490600052602060002090601f016020900481019282601f106134bb57805160ff19168380011785556134e9565b828001600101855582156134e9579182015b828111156134e85782518255916020019190600101906134cd565b5b5090506134f69190613550565b5090565b60e0604051908101604052806000815260200160608152602001606081526020016060815260200160008152602001600073ffffffffffffffffffffffffffffffffffffffff1681526020016000151581525090565b61357291905b8082111561356e576000816000905550600101613556565b5090565b9056fea165627a7a72305820ac1c88d65cd2c85246d4dda50216771295aa9113af4bbd2ff9426288369b60230029",
  "source": "pragma solidity ^0.5.0;\n\ncontract WaqfChain {\n    string public name;\n    uint public productCount = 0;\n    uint public updateCount = 0;\n    uint public sendCount = 0;\n    uint public accountCount = 0;\n    uint public closeCount = 0;\n    address public adminAccount = 0x7F66Cfc691119188AD1e25dD4504CDF2D611d0c4;\n    // APPLY ONLY OWNER!!!!!!!!!!!!!!!!!!!!!!!!!!!!!!!!!!!\n    modifier onlyOwner {\n        require(msg.sender == adminAccount, 'You are not an admin');\n        _;\n    }\n// nama user => {id waqf}\n    struct WaqfEvent {\n        uint id;\n        string name;\n        string details;\n        string product_type;\n        uint price;\n        address payable owner;\n        bool closed;\n    }\n\n    struct CreateAccount {\n        uint id;\n        string name;\n        string username;\n        string email;\n        string password;\n        address userAddress;\n    }\n\n    struct UpdateWaqfEvent {\n        uint id;\n        uint waqfId;\n        string data_1;\n        string date_1;\n        string location;\n        string moneyUsed;\n        address admin;\n    }\n\n    event WaqfEventCreated(\n        uint indexed id,\n        string name,\n        string details,\n        string product_type,\n        uint price,\n        address payable owner,\n        address indexed ownerAddress,\n        bool closed\n    );\n\n    event accountCreated(\n        uint indexed id,\n        string name,\n        string username,\n        string email,\n        string password,\n        address indexed userAddress\n    );\n\n    event SendWaqfCreated(\n        uint indexed id,\n        uint indexed waqfId,\n        string name,\n        uint price,\n        address payable seller,\n        address payable sender, \n        address indexed senderAddress\n    );\n\n    event updateWaqf(\n        uint indexed id,\n        uint indexed waqfId,\n        string data_1,\n        string date_1,\n        string location,\n        string moneyUsed,\n        address admin\n    );\n\n    event waqfClosedCreated(\n        uint id,\n        uint waqfId,\n        address sender\n    );\n    \n    mapping(uint => WaqfEvent) public waqfEvents;\n    mapping(uint => CreateAccount) public createAccount;\n    mapping(uint => UpdateWaqfEvent) public updateWaqfEvents;\n\n    constructor() public {\n        name = \"WaqfChain\";\n    }\n\n    function createAccounts(string memory _name, string memory _username, string memory _email, string memory _password) public {\n        require(bytes(_name).length > 0, 'name is empty');\n        require(bytes(_username).length > 0, 'username is empty');\n        require(bytes(_email).length > 0, 'email is empty');\n        require(bytes(_password).length > 0, 'password is empty');\n        accountCount++;\n        createAccount[accountCount] = CreateAccount(accountCount, _name, _username, _email, _password, msg.sender);\n        emit accountCreated(accountCount, _name, _username, _email, _password, msg.sender);\n    }\n\n    function createProduct(string memory _name, string memory _details, string memory _product_types, uint _price) onlyOwner public {\n        require(bytes(_name).length > 0, 'name is empty');\n        require(bytes(_details).length > 0, 'details is empty');\n        require(bytes(_product_types).length > 0, 'product types is empty');\n        require(_price > 0, 'prices types is empty');\n        productCount ++;\n        waqfEvents[productCount] = WaqfEvent(productCount, _name, _details, _product_types, _price, msg.sender, false);\n        emit WaqfEventCreated(productCount, _name, _details, _product_types, _price, msg.sender, msg.sender, false);\n        \n    }\n\n    function sendWaqf(uint _id, uint _price) public payable{\n        WaqfEvent memory _waqfevent = waqfEvents[_id];\n        address payable _owner = _waqfevent.owner;\n        address(_owner).transfer(msg.value);\n        sendCount ++;\n        emit SendWaqfCreated(sendCount, _id, _waqfevent.name, _price, _owner, msg.sender, msg.sender);\n    }\n\n    function closeWaqfStatus(uint _waqfId) onlyOwner public {\n        require(_waqfId > 0, 'waqf id is invalid');\n        closeCount++;\n        WaqfEvent memory _waqfevent = waqfEvents[_waqfId];\n        _waqfevent.closed = true;\n        waqfEvents[_waqfId] = _waqfevent;\n        emit waqfClosedCreated(closeCount, _waqfId, msg.sender);\n    }\n\n    function updatingWaqf(uint _waqfId, string memory _data, string memory _date, string memory _location, string memory _usedMoney) onlyOwner public {\n        require(_waqfId > 0, 'waqf id is invalid');\n        require(_waqfId > 0, 'waqf id is invalid');\n        require(bytes(_data).length > 0, 'data is empty');\n        require(bytes(_date).length > 0, 'date is empty');\n        require(bytes(_location).length > 0, 'location is empty');\n        require(bytes(_usedMoney).length > 0, 'used money is empty');\n        updateCount ++;\n        \n        updateWaqfEvents[updateCount] = UpdateWaqfEvent(updateCount, _waqfId, _data, _date, _location, _usedMoney, msg.sender);\n        emit updateWaqf(updateCount, _waqfId, _data, _date, _location, _usedMoney, msg.sender);\n    }\n\n    // function updateWaqfManage(uint _waqfId, string memory _data, string memory _date) onlyOwner public {\n    //     require(_waqfId > 0, 'waqf id is invalid');\n    //     require(bytes(_data).length > 0, 'data is empty');\n    //     require(bytes(_date).length > 0, 'date is empty');\n        \n    //     UpdateWaqfEvent memory _waqfevent = updateWaqfEvents[_waqfId];\n    //     _waqfevent.manageData = _data;\n    //     _waqfevent.manageDate = _date;\n    //     updateWaqfEvents[_waqfId] = _waqfevent;\n    //     emit updatedWaqf(_waqfevent.id, _waqfId, _data, _date, '', '', '', '', msg.sender);\n    // }\n\n    // function updateWaqfDevelop(uint _waqfId, string memory _data, string memory _date) onlyOwner public {\n    //     require(_waqfId > 0, 'waqf id is invalid');\n    //     require(bytes(_data).length > 0, 'data is empty');\n    //     require(bytes(_date).length > 0, 'date is empty');\n        \n    //     UpdateWaqfEvent memory _waqfevent = updateWaqfEvents[_waqfId];\n    //     _waqfevent.developData = _data;\n    //     _waqfevent.developDate = _date;\n    //     updateWaqfEvents[_waqfId] = _waqfevent;\n    //     emit updatedWaqf(_waqfevent.id, _waqfId, _waqfevent.manageData,_waqfevent.manageDate, _data, _date, '', '', msg.sender);\n    // }\n\n    // function updateWaqfCompleted(uint _waqfId, string memory _data, string memory _date) onlyOwner public {\n    //     require(_waqfId > 0, 'waqf id is invalid');\n    //     require(bytes(_data).length > 0, 'data is empty');\n    //     require(bytes(_date).length > 0, 'date is empty');\n        \n    //     UpdateWaqfEvent memory _waqfevent = updateWaqfEvents[_waqfId];\n    //     _waqfevent.completedData = _data;\n    //     _waqfevent.completedDate = _date;\n    //     updateWaqfEvents[_waqfId] = _waqfevent;\n    //     emit updatedWaqf(_waqfevent.id, _waqfId, _waqfevent.manageData,_waqfevent.manageDate, _waqfevent.developData,_waqfevent.developDate, _data, _date, msg.sender);\n    // }\n}",
  "sourcePath": "/Users/incognito99/Documents/FYP/Blockchain/waqf-chain/src/contracts/WaqfChain.sol",
  "compiler": {
    "name": "solc",
    "version": "0.5.0+commit.1d4f565a.Emscripten.clang"
  },
  "schemaVersion": "3.0.2",
  "updatedAt": "2020-12-22T10:25:46.623Z",
  "devdoc": {
    "methods": {}
  },
  "userdoc": {
    "methods": {}
  }
}