{
  "contractName": "WaqfChain",
  "abi": [
    {
      "constant": true,
      "inputs": [],
      "name": "name",
      "outputs": [
        {
          "name": "",
          "type": "string"
        }
      ],
      "payable": false,
      "stateMutability": "view",
      "type": "function",
      "signature": "0x06fdde03"
    },
    {
      "constant": true,
      "inputs": [],
      "name": "sendCount",
      "outputs": [
        {
          "name": "",
          "type": "uint256"
        }
      ],
      "payable": false,
      "stateMutability": "view",
      "type": "function",
      "signature": "0x6ed65dae"
    },
    {
      "constant": true,
      "inputs": [
        {
          "name": "",
          "type": "uint256"
        }
      ],
      "name": "createAccount",
      "outputs": [
        {
          "name": "id",
          "type": "uint256"
        },
        {
          "name": "name",
          "type": "string"
        },
        {
          "name": "username",
          "type": "string"
        },
        {
          "name": "email",
          "type": "string"
        },
        {
          "name": "password",
          "type": "string"
        },
        {
          "name": "userAddress",
          "type": "address"
        }
      ],
      "payable": false,
      "stateMutability": "view",
      "type": "function",
      "signature": "0xcab13915"
    },
    {
      "constant": true,
      "inputs": [],
      "name": "productCount",
      "outputs": [
        {
          "name": "",
          "type": "uint256"
        }
      ],
      "payable": false,
      "stateMutability": "view",
      "type": "function",
      "signature": "0xe0f6ef87"
    },
    {
      "constant": true,
      "inputs": [],
      "name": "accountCount",
      "outputs": [
        {
          "name": "",
          "type": "uint256"
        }
      ],
      "payable": false,
      "stateMutability": "view",
      "type": "function",
      "signature": "0xe4af29fc"
    },
    {
      "constant": true,
      "inputs": [
        {
          "name": "",
          "type": "uint256"
        }
      ],
      "name": "waqfEvents",
      "outputs": [
        {
          "name": "id",
          "type": "uint256"
        },
        {
          "name": "name",
          "type": "string"
        },
        {
          "name": "details",
          "type": "string"
        },
        {
          "name": "product_type",
          "type": "string"
        },
        {
          "name": "price",
          "type": "uint256"
        },
        {
          "name": "owner",
          "type": "address"
        },
        {
          "name": "closed",
          "type": "bool"
        }
      ],
      "payable": false,
      "stateMutability": "view",
      "type": "function",
      "signature": "0xfdcc7a73"
    },
    {
      "inputs": [],
      "payable": false,
      "stateMutability": "nonpayable",
      "type": "constructor",
      "signature": "constructor"
    },
    {
      "anonymous": false,
      "inputs": [
        {
          "indexed": false,
          "name": "id",
          "type": "uint256"
        },
        {
          "indexed": false,
          "name": "name",
          "type": "string"
        },
        {
          "indexed": false,
          "name": "details",
          "type": "string"
        },
        {
          "indexed": false,
          "name": "product_type",
          "type": "string"
        },
        {
          "indexed": false,
          "name": "price",
          "type": "uint256"
        },
        {
          "indexed": false,
          "name": "owner",
          "type": "address"
        },
        {
          "indexed": false,
          "name": "closed",
          "type": "bool"
        }
      ],
      "name": "WaqfEventCreated",
      "type": "event",
      "signature": "0x00781988ae09c7bb3359bdeabd8fbd56315ec9a98f9d97b73009ca28895a53b7"
    },
    {
      "anonymous": false,
      "inputs": [
        {
          "indexed": false,
          "name": "id",
          "type": "uint256"
        },
        {
          "indexed": false,
          "name": "name",
          "type": "string"
        },
        {
          "indexed": false,
          "name": "username",
          "type": "string"
        },
        {
          "indexed": false,
          "name": "email",
          "type": "string"
        },
        {
          "indexed": false,
          "name": "password",
          "type": "string"
        },
        {
          "indexed": false,
          "name": "userAddress",
          "type": "address"
        }
      ],
      "name": "accountCreated",
      "type": "event",
      "signature": "0x9a6fbf17002de0ec51587331553a6e99a598b99035e4dd10c1c64e866e5b60b5"
    },
    {
      "anonymous": false,
      "inputs": [
        {
          "indexed": false,
          "name": "id",
          "type": "uint256"
        },
        {
          "indexed": false,
          "name": "waqfId",
          "type": "uint256"
        },
        {
          "indexed": false,
          "name": "name",
          "type": "string"
        },
        {
          "indexed": false,
          "name": "price",
          "type": "uint256"
        },
        {
          "indexed": false,
          "name": "seller",
          "type": "address"
        },
        {
          "indexed": false,
          "name": "buyer",
          "type": "address"
        }
      ],
      "name": "SendWaqfCreated",
      "type": "event",
      "signature": "0x0465f513f1937002228883177f2d4fcdd63a8cd3f0e1558483294af93ba2cffd"
    },
    {
      "constant": false,
      "inputs": [
        {
          "name": "_name",
          "type": "string"
        },
        {
          "name": "_username",
          "type": "string"
        },
        {
          "name": "_email",
          "type": "string"
        },
        {
          "name": "_password",
          "type": "string"
        }
      ],
      "name": "createAccounts",
      "outputs": [],
      "payable": false,
      "stateMutability": "nonpayable",
      "type": "function",
      "signature": "0x10ddf9fe"
    },
    {
      "constant": false,
      "inputs": [
        {
          "name": "_name",
          "type": "string"
        },
        {
          "name": "_details",
          "type": "string"
        },
        {
          "name": "_product_types",
          "type": "string"
        },
        {
          "name": "_price",
          "type": "uint256"
        }
      ],
      "name": "createProduct",
      "outputs": [],
      "payable": false,
      "stateMutability": "nonpayable",
      "type": "function",
      "signature": "0x1b61040d"
    },
    {
      "constant": false,
      "inputs": [
        {
          "name": "_id",
          "type": "uint256"
        }
      ],
      "name": "sendWaqf",
      "outputs": [],
      "payable": true,
      "stateMutability": "payable",
      "type": "function",
      "signature": "0x58f55697"
    }
  ],
  "bytecode": "0x60806040526000600155600060025560006003553480156200002057600080fd5b506040805190810160405280600981526020017f57617166436861696e0000000000000000000000000000000000000000000000815250600090805190602001906200006e92919062000075565b5062000124565b828054600181600116156101000203166002900490600052602060002090601f016020900481019282601f10620000b857805160ff1916838001178555620000e9565b82800160010185558215620000e9579182015b82811115620000e8578251825591602001919060010190620000cb565b5b509050620000f89190620000fc565b5090565b6200012191905b808211156200011d57600081600090555060010162000103565b5090565b90565b611f9b80620001346000396000f3fe608060405260043610610099576000357c0100000000000000000000000000000000000000000000000000000000900463ffffffff16806306fdde031461009e57806310ddf9fe1461012e5780631b61040d146103bb57806358f55697146105bb5780636ed65dae146105e9578063cab1391514610614578063e0f6ef8714610846578063e4af29fc14610871578063fdcc7a731461089c575b600080fd5b3480156100aa57600080fd5b506100b3610a74565b6040518080602001828103825283818151815260200191508051906020019080838360005b838110156100f35780820151818401526020810190506100d8565b50505050905090810190601f1680156101205780820380516001836020036101000a031916815260200191505b509250505060405180910390f35b34801561013a57600080fd5b506103b96004803603608081101561015157600080fd5b810190808035906020019064010000000081111561016e57600080fd5b82018360208201111561018057600080fd5b803590602001918460018302840111640100000000831117156101a257600080fd5b91908080601f016020809104026020016040519081016040528093929190818152602001838380828437600081840152601f19601f8201169050808301925050505050505091929192908035906020019064010000000081111561020557600080fd5b82018360208201111561021757600080fd5b8035906020019184600183028401116401000000008311171561023957600080fd5b91908080601f016020809104026020016040519081016040528093929190818152602001838380828437600081840152601f19601f8201169050808301925050505050505091929192908035906020019064010000000081111561029c57600080fd5b8201836020820111156102ae57600080fd5b803590602001918460018302840111640100000000831117156102d057600080fd5b91908080601f016020809104026020016040519081016040528093929190818152602001838380828437600081840152601f19601f8201169050808301925050505050505091929192908035906020019064010000000081111561033357600080fd5b82018360208201111561034557600080fd5b8035906020019184600183028401116401000000008311171561036757600080fd5b91908080601f016020809104026020016040519081016040528093929190818152602001838380828437600081840152601f19601f820116905080830192505050505050509192919290505050610b12565b005b3480156103c757600080fd5b506105b9600480360360808110156103de57600080fd5b81019080803590602001906401000000008111156103fb57600080fd5b82018360208201111561040d57600080fd5b8035906020019184600183028401116401000000008311171561042f57600080fd5b91908080601f016020809104026020016040519081016040528093929190818152602001838380828437600081840152601f19601f8201169050808301925050505050505091929192908035906020019064010000000081111561049257600080fd5b8201836020820111156104a457600080fd5b803590602001918460018302840111640100000000831117156104c657600080fd5b91908080601f016020809104026020016040519081016040528093929190818152602001838380828437600081840152601f19601f8201169050808301925050505050505091929192908035906020019064010000000081111561052957600080fd5b82018360208201111561053b57600080fd5b8035906020019184600183028401116401000000008311171561055d57600080fd5b91908080601f016020809104026020016040519081016040528093929190818152602001838380828437600081840152601f19601f82011690508083019250505050505050919291929080359060200190929190505050611052565b005b6105e7600480360360208110156105d157600080fd5b810190808035906020019092919050505061154e565b005b3480156105f557600080fd5b506105fe61196f565b6040518082815260200191505060405180910390f35b34801561062057600080fd5b5061064d6004803603602081101561063757600080fd5b8101908080359060200190929190505050611975565b60405180878152602001806020018060200180602001806020018673ffffffffffffffffffffffffffffffffffffffff1673ffffffffffffffffffffffffffffffffffffffff16815260200185810385528a818151815260200191508051906020019080838360005b838110156106d15780820151818401526020810190506106b6565b50505050905090810190601f1680156106fe5780820380516001836020036101000a031916815260200191505b50858103845289818151815260200191508051906020019080838360005b8381101561073757808201518184015260208101905061071c565b50505050905090810190601f1680156107645780820380516001836020036101000a031916815260200191505b50858103835288818151815260200191508051906020019080838360005b8381101561079d578082015181840152602081019050610782565b50505050905090810190601f1680156107ca5780820380516001836020036101000a031916815260200191505b50858103825287818151815260200191508051906020019080838360005b838110156108035780820151818401526020810190506107e8565b50505050905090810190601f1680156108305780820380516001836020036101000a031916815260200191505b509a505050505050505050505060405180910390f35b34801561085257600080fd5b5061085b611c31565b6040518082815260200191505060405180910390f35b34801561087d57600080fd5b50610886611c37565b6040518082815260200191505060405180910390f35b3480156108a857600080fd5b506108d5600480360360208110156108bf57600080fd5b8101908080359060200190929190505050611c3d565b604051808881526020018060200180602001806020018781526020018673ffffffffffffffffffffffffffffffffffffffff1673ffffffffffffffffffffffffffffffffffffffff1681526020018515151515815260200184810384528a818151815260200191508051906020019080838360005b8381101561096557808201518184015260208101905061094a565b50505050905090810190601f1680156109925780820380516001836020036101000a031916815260200191505b50848103835289818151815260200191508051906020019080838360005b838110156109cb5780820151818401526020810190506109b0565b50505050905090810190601f1680156109f85780820380516001836020036101000a031916815260200191505b50848103825288818151815260200191508051906020019080838360005b83811015610a31578082015181840152602081019050610a16565b50505050905090810190601f168015610a5e5780820380516001836020036101000a031916815260200191505b509a505050505050505050505060405180910390f35b60008054600181600116156101000203166002900480601f016020809104026020016040519081016040528092919081815260200182805460018160011615610100020316600290048015610b0a5780601f10610adf57610100808354040283529160200191610b0a565b820191906000526020600020905b815481529060010190602001808311610aed57829003601f168201915b505050505081565b60008451111515610b8b576040517f08c379a000000000000000000000000000000000000000000000000000000000815260040180806020018281038252600d8152602001807f6e616d6520697320656d7074790000000000000000000000000000000000000081525060200191505060405180910390fd5b60008351111515610c04576040517f08c379a00000000000000000000000000000000000000000000000000000000081526004018080602001828103825260118152602001807f757365726e616d6520697320656d70747900000000000000000000000000000081525060200191505060405180910390fd5b60008251111515610c7d576040517f08c379a000000000000000000000000000000000000000000000000000000000815260040180806020018281038252600e8152602001807f656d61696c20697320656d70747900000000000000000000000000000000000081525060200191505060405180910390fd5b60008151111515610cf6576040517f08c379a00000000000000000000000000000000000000000000000000000000081526004018080602001828103825260118152602001807f70617373776f726420697320656d70747900000000000000000000000000000081525060200191505060405180910390fd5b60036000815480929190600101919050555060c06040519081016040528060035481526020018581526020018481526020018381526020018281526020013373ffffffffffffffffffffffffffffffffffffffff16815250600560006003548152602001908152602001600020600082015181600001556020820151816001019080519060200190610d89929190611e74565b506040820151816002019080519060200190610da6929190611e74565b506060820151816003019080519060200190610dc3929190611e74565b506080820151816004019080519060200190610de0929190611e74565b5060a08201518160050160006101000a81548173ffffffffffffffffffffffffffffffffffffffff021916908373ffffffffffffffffffffffffffffffffffffffff1602179055509050507f9a6fbf17002de0ec51587331553a6e99a598b99035e4dd10c1c64e866e5b60b5600354858585853360405180878152602001806020018060200180602001806020018673ffffffffffffffffffffffffffffffffffffffff1673ffffffffffffffffffffffffffffffffffffffff16815260200185810385528a818151815260200191508051906020019080838360005b83811015610ed8578082015181840152602081019050610ebd565b50505050905090810190601f168015610f055780820380516001836020036101000a031916815260200191505b50858103845289818151815260200191508051906020019080838360005b83811015610f3e578082015181840152602081019050610f23565b50505050905090810190601f168015610f6b5780820380516001836020036101000a031916815260200191505b50858103835288818151815260200191508051906020019080838360005b83811015610fa4578082015181840152602081019050610f89565b50505050905090810190601f168015610fd15780820380516001836020036101000a031916815260200191505b50858103825287818151815260200191508051906020019080838360005b8381101561100a578082015181840152602081019050610fef565b50505050905090810190601f1680156110375780820380516001836020036101000a031916815260200191505b509a505050505050505050505060405180910390a150505050565b600084511115156110cb576040517f08c379a000000000000000000000000000000000000000000000000000000000815260040180806020018281038252600d8152602001807f6e616d6520697320656d7074790000000000000000000000000000000000000081525060200191505060405180910390fd5b60008351111515611144576040517f08c379a00000000000000000000000000000000000000000000000000000000081526004018080602001828103825260108152602001807f64657461696c7320697320656d7074790000000000000000000000000000000081525060200191505060405180910390fd5b600082511115156111bd576040517f08c379a00000000000000000000000000000000000000000000000000000000081526004018080602001828103825260168152602001807f70726f6475637420747970657320697320656d7074790000000000000000000081525060200191505060405180910390fd5b600081111515611235576040517f08c379a00000000000000000000000000000000000000000000000000000000081526004018080602001828103825260158152602001807f70726963657320747970657320697320656d707479000000000000000000000081525060200191505060405180910390fd5b60016000815480929190600101919050555060e06040519081016040528060015481526020018581526020018481526020018381526020018281526020013373ffffffffffffffffffffffffffffffffffffffff168152602001600015158152506004600060015481526020019081526020016000206000820151816000015560208201518160010190805190602001906112d1929190611e74565b5060408201518160020190805190602001906112ee929190611e74565b50606082015181600301908051906020019061130b929190611e74565b506080820151816004015560a08201518160050160006101000a81548173ffffffffffffffffffffffffffffffffffffffff021916908373ffffffffffffffffffffffffffffffffffffffff16021790555060c08201518160050160146101000a81548160ff0219169083151502179055509050507e781988ae09c7bb3359bdeabd8fbd56315ec9a98f9d97b73009ca28895a53b760015485858585336000604051808881526020018060200180602001806020018781526020018673ffffffffffffffffffffffffffffffffffffffff1673ffffffffffffffffffffffffffffffffffffffff1681526020018515151515815260200184810384528a818151815260200191508051906020019080838360005b8381101561143a57808201518184015260208101905061141f565b50505050905090810190601f1680156114675780820380516001836020036101000a031916815260200191505b50848103835289818151815260200191508051906020019080838360005b838110156114a0578082015181840152602081019050611485565b50505050905090810190601f1680156114cd5780820380516001836020036101000a031916815260200191505b50848103825288818151815260200191508051906020019080838360005b838110156115065780820151818401526020810190506114eb565b50505050905090810190601f1680156115335780820380516001836020036101000a031916815260200191505b509a505050505050505050505060405180910390a150505050565b611556611ef4565b6004600083815260200190815260200160002060e0604051908101604052908160008201548152602001600182018054600181600116156101000203166002900480601f0160208091040260200160405190810160405280929190818152602001828054600181600116156101000203166002900480156116185780601f106115ed57610100808354040283529160200191611618565b820191906000526020600020905b8154815290600101906020018083116115fb57829003601f168201915b50505050508152602001600282018054600181600116156101000203166002900480601f0160208091040260200160405190810160405280929190818152602001828054600181600116156101000203166002900480156116ba5780601f1061168f576101008083540402835291602001916116ba565b820191906000526020600020905b81548152906001019060200180831161169d57829003601f168201915b50505050508152602001600382018054600181600116156101000203166002900480601f01602080910402602001604051908101604052809291908181526020018280546001816001161561010002031660029004801561175c5780601f106117315761010080835404028352916020019161175c565b820191906000526020600020905b81548152906001019060200180831161173f57829003601f168201915b50505050508152602001600482015481526020016005820160009054906101000a900473ffffffffffffffffffffffffffffffffffffffff1673ffffffffffffffffffffffffffffffffffffffff1673ffffffffffffffffffffffffffffffffffffffff1681526020016005820160149054906101000a900460ff161515151581525050905060008160a0015190508073ffffffffffffffffffffffffffffffffffffffff166108fc349081150290604051600060405180830381858888f19350505050158015611831573d6000803e3d6000fd5b506002600081548092919060010191905055507f0465f513f1937002228883177f2d4fcdd63a8cd3f0e1558483294af93ba2cffd6002548484602001518560800151853360405180878152602001868152602001806020018581526020018473ffffffffffffffffffffffffffffffffffffffff1673ffffffffffffffffffffffffffffffffffffffff1681526020018373ffffffffffffffffffffffffffffffffffffffff1673ffffffffffffffffffffffffffffffffffffffff168152602001828103825286818151815260200191508051906020019080838360005b8381101561192b578082015181840152602081019050611910565b50505050905090810190601f1680156119585780820380516001836020036101000a031916815260200191505b5097505050505050505060405180910390a1505050565b60025481565b6005602052806000526040600020600091509050806000015490806001018054600181600116156101000203166002900480601f016020809104026020016040519081016040528092919081815260200182805460018160011615610100020316600290048015611a275780601f106119fc57610100808354040283529160200191611a27565b820191906000526020600020905b815481529060010190602001808311611a0a57829003601f168201915b505050505090806002018054600181600116156101000203166002900480601f016020809104026020016040519081016040528092919081815260200182805460018160011615610100020316600290048015611ac55780601f10611a9a57610100808354040283529160200191611ac5565b820191906000526020600020905b815481529060010190602001808311611aa857829003601f168201915b505050505090806003018054600181600116156101000203166002900480601f016020809104026020016040519081016040528092919081815260200182805460018160011615610100020316600290048015611b635780601f10611b3857610100808354040283529160200191611b63565b820191906000526020600020905b815481529060010190602001808311611b4657829003601f168201915b505050505090806004018054600181600116156101000203166002900480601f016020809104026020016040519081016040528092919081815260200182805460018160011615610100020316600290048015611c015780601f10611bd657610100808354040283529160200191611c01565b820191906000526020600020905b815481529060010190602001808311611be457829003601f168201915b5050505050908060050160009054906101000a900473ffffffffffffffffffffffffffffffffffffffff16905086565b60015481565b60035481565b6004602052806000526040600020600091509050806000015490806001018054600181600116156101000203166002900480601f016020809104026020016040519081016040528092919081815260200182805460018160011615610100020316600290048015611cef5780601f10611cc457610100808354040283529160200191611cef565b820191906000526020600020905b815481529060010190602001808311611cd257829003601f168201915b505050505090806002018054600181600116156101000203166002900480601f016020809104026020016040519081016040528092919081815260200182805460018160011615610100020316600290048015611d8d5780601f10611d6257610100808354040283529160200191611d8d565b820191906000526020600020905b815481529060010190602001808311611d7057829003601f168201915b505050505090806003018054600181600116156101000203166002900480601f016020809104026020016040519081016040528092919081815260200182805460018160011615610100020316600290048015611e2b5780601f10611e0057610100808354040283529160200191611e2b565b820191906000526020600020905b815481529060010190602001808311611e0e57829003601f168201915b5050505050908060040154908060050160009054906101000a900473ffffffffffffffffffffffffffffffffffffffff16908060050160149054906101000a900460ff16905087565b828054600181600116156101000203166002900490600052602060002090601f016020900481019282601f10611eb557805160ff1916838001178555611ee3565b82800160010185558215611ee3579182015b82811115611ee2578251825591602001919060010190611ec7565b5b509050611ef09190611f4a565b5090565b60e0604051908101604052806000815260200160608152602001606081526020016060815260200160008152602001600073ffffffffffffffffffffffffffffffffffffffff1681526020016000151581525090565b611f6c91905b80821115611f68576000816000905550600101611f50565b5090565b9056fea165627a7a7230582066388b12549a04eb4c5d15e6e62e4a9544d67d01a9e16e3f4eb415f75ff458be0029",
  "source": "pragma solidity ^0.5.0;\r\n\r\ncontract WaqfChain {\r\n    string public name;\r\n    uint public productCount = 0;\r\n    uint public sendCount = 0;\r\n    uint public accountCount = 0;\r\n    // APPLY ONLY OWNER!!!!!!!!!!!!!!!!!!!!!!!!!!!!!!!!!!!\r\n    modifier onlyOwner {\r\n        require(msg.sender == 0xc8136a608036C7FbbF7d052a70b76EDeAB864Ab4, 'You are not an admin');\r\n        _;\r\n    }\r\n\r\n    struct WaqfEvent {\r\n        uint id;\r\n        string name;\r\n        string details;\r\n        string product_type;\r\n        uint price;\r\n        address payable owner;\r\n        bool closed;\r\n    }\r\n\r\n    struct CreateAccount {\r\n        uint id;\r\n        string name;\r\n        string username;\r\n        string email;\r\n        string password;\r\n        address userAddress;\r\n    }\r\n\r\n    event WaqfEventCreated(\r\n        uint id,\r\n        string name,\r\n        string details,\r\n        string product_type,\r\n        uint price,\r\n        address payable owner,\r\n        bool closed\r\n    );\r\n\r\n    event accountCreated(\r\n        uint id,\r\n        string name,\r\n        string username,\r\n        string email,\r\n        string password,\r\n        address userAddress\r\n    );\r\n\r\n    event SendWaqfCreated(\r\n        uint id,\r\n        uint waqfId,\r\n        string name,\r\n        uint price,\r\n        address payable seller,\r\n        address payable buyer\r\n    );\r\n\r\n    mapping(uint => WaqfEvent) public waqfEvents;\r\n    mapping(uint => CreateAccount) public createAccount;\r\n\r\n    constructor() public {\r\n        name = \"WaqfChain\";\r\n    }\r\n\r\n    function createAccounts(string memory _name, string memory _username, string memory _email, string memory _password) public {\r\n        require(bytes(_name).length > 0, 'name is empty');\r\n        require(bytes(_username).length > 0, 'username is empty');\r\n        require(bytes(_email).length > 0, 'email is empty');\r\n        require(bytes(_password).length > 0, 'password is empty');\r\n        accountCount++;\r\n        createAccount[accountCount] = CreateAccount(accountCount, _name, _username, _email, _password, msg.sender);\r\n        emit accountCreated(accountCount, _name, _username, _email, _password, msg.sender);\r\n    }\r\n\r\n    function createProduct(string memory _name, string memory _details, string memory _product_types, uint _price) public {\r\n        require(bytes(_name).length > 0, 'name is empty');\r\n        require(bytes(_details).length > 0, 'details is empty');\r\n        require(bytes(_product_types).length > 0, 'product types is empty');\r\n        require(_price > 0, 'prices types is empty');\r\n        productCount ++;\r\n        waqfEvents[productCount] = WaqfEvent(productCount, _name, _details, _product_types, _price, msg.sender, false);\r\n        emit WaqfEventCreated(productCount, _name, _details, _product_types, _price, msg.sender, false);\r\n    }\r\n\r\n    function sendWaqf(uint _id) public payable{\r\n        WaqfEvent memory _waqfevent = waqfEvents[_id];\r\n        address payable _owner = _waqfevent.owner;\r\n        address(_owner).transfer(msg.value);\r\n        sendCount ++;\r\n        emit SendWaqfCreated(sendCount, _id, _waqfevent.name, _waqfevent.price, _owner, msg.sender);\r\n    }   \r\n}",
  "sourcePath": "D:/Blockchain/Project/waqf-chain/src/contracts/WaqfChain.sol",
  "compiler": {
    "name": "solc",
    "version": "0.5.0+commit.1d4f565a.Emscripten.clang"
  },
  "schemaVersion": "3.0.2",
  "updatedAt": "2020-09-09T05:00:47.834Z",
  "devdoc": {
    "methods": {}
  },
  "userdoc": {
    "methods": {}
  }
}