{
  "contractName": "WaqfChain",
  "abi": [
    {
      "constant": true,
      "inputs": [],
      "name": "name",
      "outputs": [
        {
          "name": "",
          "type": "string"
        }
      ],
      "payable": false,
      "stateMutability": "view",
      "type": "function",
      "signature": "0x06fdde03"
    },
    {
      "constant": true,
      "inputs": [
        {
          "name": "",
          "type": "uint256"
        }
      ],
      "name": "updateWaqfEvents",
      "outputs": [
        {
          "name": "id",
          "type": "uint256"
        },
        {
          "name": "waqfId",
          "type": "uint256"
        },
        {
          "name": "manageData",
          "type": "string"
        },
        {
          "name": "manageDate",
          "type": "string"
        },
        {
          "name": "developData",
          "type": "string"
        },
        {
          "name": "developDate",
          "type": "string"
        },
        {
          "name": "completedData",
          "type": "string"
        },
        {
          "name": "completedDate",
          "type": "string"
        },
        {
          "name": "admin",
          "type": "address"
        }
      ],
      "payable": false,
      "stateMutability": "view",
      "type": "function",
      "signature": "0x4de2e748"
    },
    {
      "constant": true,
      "inputs": [],
      "name": "sendCount",
      "outputs": [
        {
          "name": "",
          "type": "uint256"
        }
      ],
      "payable": false,
      "stateMutability": "view",
      "type": "function",
      "signature": "0x6ed65dae"
    },
    {
      "constant": true,
      "inputs": [],
      "name": "closeCount",
      "outputs": [
        {
          "name": "",
          "type": "uint256"
        }
      ],
      "payable": false,
      "stateMutability": "view",
      "type": "function",
      "signature": "0xbaa03fd0"
    },
    {
      "constant": true,
      "inputs": [],
      "name": "adminAccount",
      "outputs": [
        {
          "name": "",
          "type": "address"
        }
      ],
      "payable": false,
      "stateMutability": "view",
      "type": "function",
      "signature": "0xc26e9118"
    },
    {
      "constant": true,
      "inputs": [
        {
          "name": "",
          "type": "uint256"
        }
      ],
      "name": "createAccount",
      "outputs": [
        {
          "name": "id",
          "type": "uint256"
        },
        {
          "name": "name",
          "type": "string"
        },
        {
          "name": "username",
          "type": "string"
        },
        {
          "name": "email",
          "type": "string"
        },
        {
          "name": "password",
          "type": "string"
        },
        {
          "name": "userAddress",
          "type": "address"
        }
      ],
      "payable": false,
      "stateMutability": "view",
      "type": "function",
      "signature": "0xcab13915"
    },
    {
      "constant": true,
      "inputs": [],
      "name": "productCount",
      "outputs": [
        {
          "name": "",
          "type": "uint256"
        }
      ],
      "payable": false,
      "stateMutability": "view",
      "type": "function",
      "signature": "0xe0f6ef87"
    },
    {
      "constant": true,
      "inputs": [],
      "name": "accountCount",
      "outputs": [
        {
          "name": "",
          "type": "uint256"
        }
      ],
      "payable": false,
      "stateMutability": "view",
      "type": "function",
      "signature": "0xe4af29fc"
    },
    {
      "constant": true,
      "inputs": [
        {
          "name": "",
          "type": "uint256"
        }
      ],
      "name": "waqfEvents",
      "outputs": [
        {
          "name": "id",
          "type": "uint256"
        },
        {
          "name": "name",
          "type": "string"
        },
        {
          "name": "details",
          "type": "string"
        },
        {
          "name": "product_type",
          "type": "string"
        },
        {
          "name": "price",
          "type": "uint256"
        },
        {
          "name": "owner",
          "type": "address"
        },
        {
          "name": "closed",
          "type": "bool"
        }
      ],
      "payable": false,
      "stateMutability": "view",
      "type": "function",
      "signature": "0xfdcc7a73"
    },
    {
      "inputs": [],
      "payable": false,
      "stateMutability": "nonpayable",
      "type": "constructor",
      "signature": "constructor"
    },
    {
      "anonymous": false,
      "inputs": [
        {
          "indexed": true,
          "name": "id",
          "type": "uint256"
        },
        {
          "indexed": false,
          "name": "name",
          "type": "string"
        },
        {
          "indexed": false,
          "name": "details",
          "type": "string"
        },
        {
          "indexed": false,
          "name": "product_type",
          "type": "string"
        },
        {
          "indexed": false,
          "name": "price",
          "type": "uint256"
        },
        {
          "indexed": false,
          "name": "owner",
          "type": "address"
        },
        {
          "indexed": true,
          "name": "ownerAddress",
          "type": "address"
        },
        {
          "indexed": false,
          "name": "closed",
          "type": "bool"
        }
      ],
      "name": "WaqfEventCreated",
      "type": "event",
      "signature": "0xb42a33e9d9fa79d202870b04356f7bdd71bc6c571cf188fd0f777c7b23af39f2"
    },
    {
      "anonymous": false,
      "inputs": [
        {
          "indexed": true,
          "name": "id",
          "type": "uint256"
        },
        {
          "indexed": false,
          "name": "name",
          "type": "string"
        },
        {
          "indexed": false,
          "name": "username",
          "type": "string"
        },
        {
          "indexed": false,
          "name": "email",
          "type": "string"
        },
        {
          "indexed": false,
          "name": "password",
          "type": "string"
        },
        {
          "indexed": true,
          "name": "userAddress",
          "type": "address"
        }
      ],
      "name": "accountCreated",
      "type": "event",
      "signature": "0x9a6fbf17002de0ec51587331553a6e99a598b99035e4dd10c1c64e866e5b60b5"
    },
    {
      "anonymous": false,
      "inputs": [
        {
          "indexed": true,
          "name": "id",
          "type": "uint256"
        },
        {
          "indexed": true,
          "name": "waqfId",
          "type": "uint256"
        },
        {
          "indexed": false,
          "name": "name",
          "type": "string"
        },
        {
          "indexed": false,
          "name": "price",
          "type": "uint256"
        },
        {
          "indexed": false,
          "name": "seller",
          "type": "address"
        },
        {
          "indexed": false,
          "name": "sender",
          "type": "address"
        },
        {
          "indexed": true,
          "name": "senderAddress",
          "type": "address"
        }
      ],
      "name": "SendWaqfCreated",
      "type": "event",
      "signature": "0x13da99543681fc852b62949ab1d5a9e540e5dc6b2b61974730727512793d7986"
    },
    {
      "anonymous": false,
      "inputs": [
        {
          "indexed": true,
          "name": "id",
          "type": "uint256"
        },
        {
          "indexed": true,
          "name": "waqfId",
          "type": "uint256"
        },
        {
          "indexed": false,
          "name": "manageData",
          "type": "string"
        },
        {
          "indexed": false,
          "name": "manageDate",
          "type": "string"
        },
        {
          "indexed": false,
          "name": "developData",
          "type": "string"
        },
        {
          "indexed": false,
          "name": "developDate",
          "type": "string"
        },
        {
          "indexed": false,
          "name": "completedData",
          "type": "string"
        },
        {
          "indexed": false,
          "name": "completedDate",
          "type": "string"
        },
        {
          "indexed": false,
          "name": "admin",
          "type": "address"
        }
      ],
      "name": "updatedWaqf",
      "type": "event",
      "signature": "0xc5cba06e052f290ddc93f339bd6a1e70dff09d6a54f79f9aa6e625a0806f21c9"
    },
    {
      "anonymous": false,
      "inputs": [
        {
          "indexed": false,
          "name": "id",
          "type": "uint256"
        },
        {
          "indexed": false,
          "name": "waqfId",
          "type": "uint256"
        },
        {
          "indexed": false,
          "name": "sender",
          "type": "address"
        }
      ],
      "name": "waqfClosedCreated",
      "type": "event",
      "signature": "0x8df8b3eb734edb91db6c4dab55bec8085b4f8ce89bbfe44c2a3fa016a184f89c"
    },
    {
      "constant": false,
      "inputs": [
        {
          "name": "_name",
          "type": "string"
        },
        {
          "name": "_username",
          "type": "string"
        },
        {
          "name": "_email",
          "type": "string"
        },
        {
          "name": "_password",
          "type": "string"
        }
      ],
      "name": "createAccounts",
      "outputs": [],
      "payable": false,
      "stateMutability": "nonpayable",
      "type": "function",
      "signature": "0x10ddf9fe"
    },
    {
      "constant": false,
      "inputs": [
        {
          "name": "_name",
          "type": "string"
        },
        {
          "name": "_details",
          "type": "string"
        },
        {
          "name": "_product_types",
          "type": "string"
        },
        {
          "name": "_price",
          "type": "uint256"
        }
      ],
      "name": "createProduct",
      "outputs": [],
      "payable": false,
      "stateMutability": "nonpayable",
      "type": "function",
      "signature": "0x1b61040d"
    },
    {
      "constant": false,
      "inputs": [
        {
          "name": "_id",
          "type": "uint256"
        },
        {
          "name": "_price",
          "type": "uint256"
        }
      ],
      "name": "sendWaqf",
      "outputs": [],
      "payable": true,
      "stateMutability": "payable",
      "type": "function",
      "signature": "0x7da532b4"
    },
    {
      "constant": false,
      "inputs": [
        {
          "name": "_waqfId",
          "type": "uint256"
        },
        {
          "name": "_data",
          "type": "string"
        },
        {
          "name": "_date",
          "type": "string"
        }
      ],
      "name": "updateWaqfManage",
      "outputs": [],
      "payable": false,
      "stateMutability": "nonpayable",
      "type": "function",
      "signature": "0x895253e4"
    },
    {
      "constant": false,
      "inputs": [
        {
          "name": "_waqfId",
          "type": "uint256"
        },
        {
          "name": "_data",
          "type": "string"
        },
        {
          "name": "_date",
          "type": "string"
        }
      ],
      "name": "updateWaqfDevelop",
      "outputs": [],
      "payable": false,
      "stateMutability": "nonpayable",
      "type": "function",
      "signature": "0x08b82f59"
    },
    {
      "constant": false,
      "inputs": [
        {
          "name": "_waqfId",
          "type": "uint256"
        },
        {
          "name": "_data",
          "type": "string"
        },
        {
          "name": "_date",
          "type": "string"
        }
      ],
      "name": "updateWaqfCompleted",
      "outputs": [],
      "payable": false,
      "stateMutability": "nonpayable",
      "type": "function",
      "signature": "0xf87f10c1"
    },
    {
      "constant": false,
      "inputs": [
        {
          "name": "_waqfId",
          "type": "uint256"
        }
      ],
      "name": "closeWaqfStatus",
      "outputs": [],
      "payable": false,
      "stateMutability": "nonpayable",
      "type": "function",
      "signature": "0x903210eb"
    }
  ],
  "bytecode": "0x6080604052600060015560006002556000600355600060045573514c533a845166a7cdef40114473f89e3e359a5c600560006101000a81548173ffffffffffffffffffffffffffffffffffffffff021916908373ffffffffffffffffffffffffffffffffffffffff1602179055503480156200007a57600080fd5b506040805190810160405280600981526020017f57617166436861696e000000000000000000000000000000000000000000000081525060009080519060200190620000c8929190620000cf565b506200017e565b828054600181600116156101000203166002900490600052602060002090601f016020900481019282601f106200011257805160ff191683800117855562000143565b8280016001018555821562000143579182015b828111156200014257825182559160200191906001019062000125565b5b50905062000152919062000156565b5090565b6200017b91905b80821115620001775760008160009055506001016200015d565b5090565b90565b615393806200018e6000396000f3fe6080604052600436106100e6576000357c0100000000000000000000000000000000000000000000000000000000900463ffffffff16806306fdde03146100eb57806308b82f591461017b57806310ddf9fe146102e45780631b61040d146105715780634de2e748146107715780636ed65dae14610a825780637da532b414610aad578063895253e414610ae5578063903210eb14610c4e578063baa03fd014610c89578063c26e911814610cb4578063cab1391514610d0b578063e0f6ef8714610f3d578063e4af29fc14610f68578063f87f10c114610f93578063fdcc7a73146110fc575b600080fd5b3480156100f757600080fd5b506101006112d4565b6040518080602001828103825283818151815260200191508051906020019080838360005b83811015610140578082015181840152602081019050610125565b50505050905090810190601f16801561016d5780820380516001836020036101000a031916815260200191505b509250505060405180910390f35b34801561018757600080fd5b506102e26004803603606081101561019e57600080fd5b8101908080359060200190929190803590602001906401000000008111156101c557600080fd5b8201836020820111156101d757600080fd5b803590602001918460018302840111640100000000831117156101f957600080fd5b91908080601f016020809104026020016040519081016040528093929190818152602001838380828437600081840152601f19601f8201169050808301925050505050505091929192908035906020019064010000000081111561025c57600080fd5b82018360208201111561026e57600080fd5b8035906020019184600183028401116401000000008311171561029057600080fd5b91908080601f016020809104026020016040519081016040528093929190818152602001838380828437600081840152601f19601f820116905080830192505050505050509192919290505050611372565b005b3480156102f057600080fd5b5061056f6004803603608081101561030757600080fd5b810190808035906020019064010000000081111561032457600080fd5b82018360208201111561033657600080fd5b8035906020019184600183028401116401000000008311171561035857600080fd5b91908080601f016020809104026020016040519081016040528093929190818152602001838380828437600081840152601f19601f820116905080830192505050505050509192919290803590602001906401000000008111156103bb57600080fd5b8201836020820111156103cd57600080fd5b803590602001918460018302840111640100000000831117156103ef57600080fd5b91908080601f016020809104026020016040519081016040528093929190818152602001838380828437600081840152601f19601f8201169050808301925050505050505091929192908035906020019064010000000081111561045257600080fd5b82018360208201111561046457600080fd5b8035906020019184600183028401116401000000008311171561048657600080fd5b91908080601f016020809104026020016040519081016040528093929190818152602001838380828437600081840152601f19601f820116905080830192505050505050509192919290803590602001906401000000008111156104e957600080fd5b8201836020820111156104fb57600080fd5b8035906020019184600183028401116401000000008311171561051d57600080fd5b91908080601f016020809104026020016040519081016040528093929190818152602001838380828437600081840152601f19601f820116905080830192505050505050509192919290505050611d87565b005b34801561057d57600080fd5b5061076f6004803603608081101561059457600080fd5b81019080803590602001906401000000008111156105b157600080fd5b8201836020820111156105c357600080fd5b803590602001918460018302840111640100000000831117156105e557600080fd5b91908080601f016020809104026020016040519081016040528093929190818152602001838380828437600081840152601f19601f8201169050808301925050505050505091929192908035906020019064010000000081111561064857600080fd5b82018360208201111561065a57600080fd5b8035906020019184600183028401116401000000008311171561067c57600080fd5b91908080601f016020809104026020016040519081016040528093929190818152602001838380828437600081840152601f19601f820116905080830192505050505050509192919290803590602001906401000000008111156106df57600080fd5b8201836020820111156106f157600080fd5b8035906020019184600183028401116401000000008311171561071357600080fd5b91908080601f016020809104026020016040519081016040528093929190818152602001838380828437600081840152601f19601f820116905080830192505050505050509192919290803590602001909291905050506122a3565b005b34801561077d57600080fd5b506107aa6004803603602081101561079457600080fd5b8101908080359060200190929190505050612b33565b604051808a81526020018981526020018060200180602001806020018060200180602001806020018873ffffffffffffffffffffffffffffffffffffffff1673ffffffffffffffffffffffffffffffffffffffff16815260200187810387528e818151815260200191508051906020019080838360005b8381101561083c578082015181840152602081019050610821565b50505050905090810190601f1680156108695780820380516001836020036101000a031916815260200191505b5087810386528d818151815260200191508051906020019080838360005b838110156108a2578082015181840152602081019050610887565b50505050905090810190601f1680156108cf5780820380516001836020036101000a031916815260200191505b5087810385528c818151815260200191508051906020019080838360005b838110156109085780820151818401526020810190506108ed565b50505050905090810190601f1680156109355780820380516001836020036101000a031916815260200191505b5087810384528b818151815260200191508051906020019080838360005b8381101561096e578082015181840152602081019050610953565b50505050905090810190601f16801561099b5780820380516001836020036101000a031916815260200191505b5087810383528a818151815260200191508051906020019080838360005b838110156109d45780820151818401526020810190506109b9565b50505050905090810190601f168015610a015780820380516001836020036101000a031916815260200191505b50878103825289818151815260200191508051906020019080838360005b83811015610a3a578082015181840152602081019050610a1f565b50505050905090810190601f168015610a675780820380516001836020036101000a031916815260200191505b509f5050505050505050505050505050505060405180910390f35b348015610a8e57600080fd5b50610a97612f31565b6040518082815260200191505060405180910390f35b610ae360048036036040811015610ac357600080fd5b810190808035906020019092919080359060200190929190505050612f37565b005b348015610af157600080fd5b50610c4c60048036036060811015610b0857600080fd5b810190808035906020019092919080359060200190640100000000811115610b2f57600080fd5b820183602082011115610b4157600080fd5b80359060200191846001830284011164010000000083111715610b6357600080fd5b91908080601f016020809104026020016040519081016040528093929190818152602001838380828437600081840152601f19601f82011690508083019250505050505050919291929080359060200190640100000000811115610bc657600080fd5b820183602082011115610bd857600080fd5b80359060200191846001830284011164010000000083111715610bfa57600080fd5b91908080601f016020809104026020016040519081016040528093929190818152602001838380828437600081840152601f19601f82011690508083019250505050505050919291929050505061335e565b005b348015610c5a57600080fd5b50610c8760048036036020811015610c7157600080fd5b8101908080359060200190929190505050613cb9565b005b348015610c9557600080fd5b50610c9e61420f565b6040518082815260200191505060405180910390f35b348015610cc057600080fd5b50610cc9614215565b604051808273ffffffffffffffffffffffffffffffffffffffff1673ffffffffffffffffffffffffffffffffffffffff16815260200191505060405180910390f35b348015610d1757600080fd5b50610d4460048036036020811015610d2e57600080fd5b810190808035906020019092919050505061423b565b60405180878152602001806020018060200180602001806020018673ffffffffffffffffffffffffffffffffffffffff1673ffffffffffffffffffffffffffffffffffffffff16815260200185810385528a818151815260200191508051906020019080838360005b83811015610dc8578082015181840152602081019050610dad565b50505050905090810190601f168015610df55780820380516001836020036101000a031916815260200191505b50858103845289818151815260200191508051906020019080838360005b83811015610e2e578082015181840152602081019050610e13565b50505050905090810190601f168015610e5b5780820380516001836020036101000a031916815260200191505b50858103835288818151815260200191508051906020019080838360005b83811015610e94578082015181840152602081019050610e79565b50505050905090810190601f168015610ec15780820380516001836020036101000a031916815260200191505b50858103825287818151815260200191508051906020019080838360005b83811015610efa578082015181840152602081019050610edf565b50505050905090810190601f168015610f275780820380516001836020036101000a031916815260200191505b509a505050505050505050505060405180910390f35b348015610f4957600080fd5b50610f526144f7565b6040518082815260200191505060405180910390f35b348015610f7457600080fd5b50610f7d6144fd565b6040518082815260200191505060405180910390f35b348015610f9f57600080fd5b506110fa60048036036060811015610fb657600080fd5b810190808035906020019092919080359060200190640100000000811115610fdd57600080fd5b820183602082011115610fef57600080fd5b8035906020019184600183028401116401000000008311171561101157600080fd5b91908080601f016020809104026020016040519081016040528093929190818152602001838380828437600081840152601f19601f8201169050808301925050505050505091929192908035906020019064010000000081111561107457600080fd5b82018360208201111561108657600080fd5b803590602001918460018302840111640100000000831117156110a857600080fd5b91908080601f016020809104026020016040519081016040528093929190818152602001838380828437600081840152601f19601f820116905080830192505050505050509192919290505050614503565b005b34801561110857600080fd5b506111356004803603602081101561111f57600080fd5b8101908080359060200190929190505050614fd2565b604051808881526020018060200180602001806020018781526020018673ffffffffffffffffffffffffffffffffffffffff1673ffffffffffffffffffffffffffffffffffffffff1681526020018515151515815260200184810384528a818151815260200191508051906020019080838360005b838110156111c55780820151818401526020810190506111aa565b50505050905090810190601f1680156111f25780820380516001836020036101000a031916815260200191505b50848103835289818151815260200191508051906020019080838360005b8381101561122b578082015181840152602081019050611210565b50505050905090810190601f1680156112585780820380516001836020036101000a031916815260200191505b50848103825288818151815260200191508051906020019080838360005b83811015611291578082015181840152602081019050611276565b50505050905090810190601f1680156112be5780820380516001836020036101000a031916815260200191505b509a505050505050505050505060405180910390f35b60008054600181600116156101000203166002900480601f01602080910402602001604051908101604052809291908181526020018280546001816001161561010002031660029004801561136a5780601f1061133f5761010080835404028352916020019161136a565b820191906000526020600020905b81548152906001019060200180831161134d57829003601f168201915b505050505081565b600560009054906101000a900473ffffffffffffffffffffffffffffffffffffffff1673ffffffffffffffffffffffffffffffffffffffff163373ffffffffffffffffffffffffffffffffffffffff16141515611437576040517f08c379a00000000000000000000000000000000000000000000000000000000081526004018080602001828103825260148152602001807f596f7520617265206e6f7420616e2061646d696e00000000000000000000000081525060200191505060405180910390fd5b6000831115156114af576040517f08c379a00000000000000000000000000000000000000000000000000000000081526004018080602001828103825260128152602001807f7761716620696420697320696e76616c6964000000000000000000000000000081525060200191505060405180910390fd5b60008251111515611528576040517f08c379a000000000000000000000000000000000000000000000000000000000815260040180806020018281038252600d8152602001807f6461746120697320656d7074790000000000000000000000000000000000000081525060200191505060405180910390fd5b600081511115156115a1576040517f08c379a000000000000000000000000000000000000000000000000000000000815260040180806020018281038252600d8152602001807f6461746520697320656d7074790000000000000000000000000000000000000081525060200191505060405180910390fd5b6115a9615209565b6006600085815260200190815260200160002061012060405190810160405290816000820154815260200160018201548152602001600282018054600181600116156101000203166002900480601f0160208091040260200160405190810160405280929190818152602001828054600181600116156101000203166002900480156116765780601f1061164b57610100808354040283529160200191611676565b820191906000526020600020905b81548152906001019060200180831161165957829003601f168201915b50505050508152602001600382018054600181600116156101000203166002900480601f0160208091040260200160405190810160405280929190818152602001828054600181600116156101000203166002900480156117185780601f106116ed57610100808354040283529160200191611718565b820191906000526020600020905b8154815290600101906020018083116116fb57829003601f168201915b50505050508152602001600482018054600181600116156101000203166002900480601f0160208091040260200160405190810160405280929190818152602001828054600181600116156101000203166002900480156117ba5780601f1061178f576101008083540402835291602001916117ba565b820191906000526020600020905b81548152906001019060200180831161179d57829003601f168201915b50505050508152602001600582018054600181600116156101000203166002900480601f01602080910402602001604051908101604052809291908181526020018280546001816001161561010002031660029004801561185c5780601f106118315761010080835404028352916020019161185c565b820191906000526020600020905b81548152906001019060200180831161183f57829003601f168201915b50505050508152602001600682018054600181600116156101000203166002900480601f0160208091040260200160405190810160405280929190818152602001828054600181600116156101000203166002900480156118fe5780601f106118d3576101008083540402835291602001916118fe565b820191906000526020600020905b8154815290600101906020018083116118e157829003601f168201915b50505050508152602001600782018054600181600116156101000203166002900480601f0160208091040260200160405190810160405280929190818152602001828054600181600116156101000203166002900480156119a05780601f10611975576101008083540402835291602001916119a0565b820191906000526020600020905b81548152906001019060200180831161198357829003601f168201915b505050505081526020016008820160009054906101000a900473ffffffffffffffffffffffffffffffffffffffff1673ffffffffffffffffffffffffffffffffffffffff1673ffffffffffffffffffffffffffffffffffffffff16815250509050828160800181905250818160a00181905250806006600086815260200190815260200160002060008201518160000155602082015181600101556040820151816002019080519060200190611a5792919061526c565b506060820151816003019080519060200190611a7492919061526c565b506080820151816004019080519060200190611a9192919061526c565b5060a0820151816005019080519060200190611aae92919061526c565b5060c0820151816006019080519060200190611acb92919061526c565b5060e0820151816007019080519060200190611ae892919061526c565b506101008201518160080160006101000a81548173ffffffffffffffffffffffffffffffffffffffff021916908373ffffffffffffffffffffffffffffffffffffffff1602179055509050508381600001517fc5cba06e052f290ddc93f339bd6a1e70dff09d6a54f79f9aa6e625a0806f21c983604001518460600151878733604051808060200180602001806020018060200180602001806020018873ffffffffffffffffffffffffffffffffffffffff1673ffffffffffffffffffffffffffffffffffffffff16815260200187810387528c818151815260200191508051906020019080838360005b83811015611bee578082015181840152602081019050611bd3565b50505050905090810190601f168015611c1b5780820380516001836020036101000a031916815260200191505b5087810386528b818151815260200191508051906020019080838360005b83811015611c54578082015181840152602081019050611c39565b50505050905090810190601f168015611c815780820380516001836020036101000a031916815260200191505b5087810385528a818151815260200191508051906020019080838360005b83811015611cba578082015181840152602081019050611c9f565b50505050905090810190601f168015611ce75780820380516001836020036101000a031916815260200191505b50878103845289818151815260200191508051906020019080838360005b83811015611d20578082015181840152602081019050611d05565b50505050905090810190601f168015611d4d5780820380516001836020036101000a031916815260200191505b508781038352600081526020016020018781038252600081526020016020019b50505050505050505050505060405180910390a350505050565b60008451111515611e00576040517f08c379a000000000000000000000000000000000000000000000000000000000815260040180806020018281038252600d8152602001807f6e616d6520697320656d7074790000000000000000000000000000000000000081525060200191505060405180910390fd5b60008351111515611e79576040517f08c379a00000000000000000000000000000000000000000000000000000000081526004018080602001828103825260118152602001807f757365726e616d6520697320656d70747900000000000000000000000000000081525060200191505060405180910390fd5b60008251111515611ef2576040517f08c379a000000000000000000000000000000000000000000000000000000000815260040180806020018281038252600e8152602001807f656d61696c20697320656d70747900000000000000000000000000000000000081525060200191505060405180910390fd5b60008151111515611f6b576040517f08c379a00000000000000000000000000000000000000000000000000000000081526004018080602001828103825260118152602001807f70617373776f726420697320656d70747900000000000000000000000000000081525060200191505060405180910390fd5b60036000815480929190600101919050555060c06040519081016040528060035481526020018581526020018481526020018381526020018281526020013373ffffffffffffffffffffffffffffffffffffffff16815250600860006003548152602001908152602001600020600082015181600001556020820151816001019080519060200190611ffe92919061526c565b50604082015181600201908051906020019061201b92919061526c565b50606082015181600301908051906020019061203892919061526c565b50608082015181600401908051906020019061205592919061526c565b5060a08201518160050160006101000a81548173ffffffffffffffffffffffffffffffffffffffff021916908373ffffffffffffffffffffffffffffffffffffffff1602179055509050503373ffffffffffffffffffffffffffffffffffffffff166003547f9a6fbf17002de0ec51587331553a6e99a598b99035e4dd10c1c64e866e5b60b5868686866040518080602001806020018060200180602001858103855289818151815260200191508051906020019080838360005b8381101561212b578082015181840152602081019050612110565b50505050905090810190601f1680156121585780820380516001836020036101000a031916815260200191505b50858103845288818151815260200191508051906020019080838360005b83811015612191578082015181840152602081019050612176565b50505050905090810190601f1680156121be5780820380516001836020036101000a031916815260200191505b50858103835287818151815260200191508051906020019080838360005b838110156121f75780820151818401526020810190506121dc565b50505050905090810190601f1680156122245780820380516001836020036101000a031916815260200191505b50858103825286818151815260200191508051906020019080838360005b8381101561225d578082015181840152602081019050612242565b50505050905090810190601f16801561228a5780820380516001836020036101000a031916815260200191505b509850505050505050505060405180910390a350505050565b600560009054906101000a900473ffffffffffffffffffffffffffffffffffffffff1673ffffffffffffffffffffffffffffffffffffffff163373ffffffffffffffffffffffffffffffffffffffff16141515612368576040517f08c379a00000000000000000000000000000000000000000000000000000000081526004018080602001828103825260148152602001807f596f7520617265206e6f7420616e2061646d696e00000000000000000000000081525060200191505060405180910390fd5b600084511115156123e1576040517f08c379a000000000000000000000000000000000000000000000000000000000815260040180806020018281038252600d8152602001807f6e616d6520697320656d7074790000000000000000000000000000000000000081525060200191505060405180910390fd5b6000835111151561245a576040517f08c379a00000000000000000000000000000000000000000000000000000000081526004018080602001828103825260108152602001807f64657461696c7320697320656d7074790000000000000000000000000000000081525060200191505060405180910390fd5b600082511115156124d3576040517f08c379a00000000000000000000000000000000000000000000000000000000081526004018080602001828103825260168152602001807f70726f6475637420747970657320697320656d7074790000000000000000000081525060200191505060405180910390fd5b60008111151561254b576040517f08c379a00000000000000000000000000000000000000000000000000000000081526004018080602001828103825260158152602001807f70726963657320747970657320697320656d707479000000000000000000000081525060200191505060405180910390fd5b60016000815480929190600101919050555060e06040519081016040528060015481526020018581526020018481526020018381526020018281526020013373ffffffffffffffffffffffffffffffffffffffff168152602001600015158152506007600060015481526020019081526020016000206000820151816000015560208201518160010190805190602001906125e792919061526c565b50604082015181600201908051906020019061260492919061526c565b50606082015181600301908051906020019061262192919061526c565b506080820151816004015560a08201518160050160006101000a81548173ffffffffffffffffffffffffffffffffffffffff021916908373ffffffffffffffffffffffffffffffffffffffff16021790555060c08201518160050160146101000a81548160ff0219169083151502179055509050503373ffffffffffffffffffffffffffffffffffffffff166001547fb42a33e9d9fa79d202870b04356f7bdd71bc6c571cf188fd0f777c7b23af39f286868686336000604051808060200180602001806020018781526020018673ffffffffffffffffffffffffffffffffffffffff1673ffffffffffffffffffffffffffffffffffffffff1681526020018515151515815260200184810384528a818151815260200191508051906020019080838360005b83811015612762578082015181840152602081019050612747565b50505050905090810190601f16801561278f5780820380516001836020036101000a031916815260200191505b50848103835289818151815260200191508051906020019080838360005b838110156127c85780820151818401526020810190506127ad565b50505050905090810190601f1680156127f55780820380516001836020036101000a031916815260200191505b50848103825288818151815260200191508051906020019080838360005b8381101561282e578082015181840152602081019050612813565b50505050905090810190601f16801561285b5780820380516001836020036101000a031916815260200191505b50995050505050505050505060405180910390a361012060405190810160405280600154815260200160015481526020016020604051908101604052806000815250815260200160206040519081016040528060008152508152602001602060405190810160405280600081525081526020016020604051908101604052806000815250815260200160206040519081016040528060008152508152602001602060405190810160405280600081525081526020013373ffffffffffffffffffffffffffffffffffffffff168152506006600060015481526020019081526020016000206000820151816000015560208201518160010155604082015181600201908051906020019061296f92919061526c565b50606082015181600301908051906020019061298c92919061526c565b5060808201518160040190805190602001906129a992919061526c565b5060a08201518160050190805190602001906129c692919061526c565b5060c08201518160060190805190602001906129e392919061526c565b5060e0820151816007019080519060200190612a0092919061526c565b506101008201518160080160006101000a81548173ffffffffffffffffffffffffffffffffffffffff021916908373ffffffffffffffffffffffffffffffffffffffff1602179055509050506001546001547fc5cba06e052f290ddc93f339bd6a1e70dff09d6a54f79f9aa6e625a0806f21c933604051808060200180602001806020018060200180602001806020018873ffffffffffffffffffffffffffffffffffffffff1673ffffffffffffffffffffffffffffffffffffffff16815260200187810387526000815260200160200187810386526000815260200160200187810385526000815260200160200187810384526000815260200160200187810383526000815260200160200187810382526000815260200160200197505050505050505060405180910390a350505050565b6006602052806000526040600020600091509050806000015490806001015490806002018054600181600116156101000203166002900480601f016020809104026020016040519081016040528092919081815260200182805460018160011615610100020316600290048015612beb5780601f10612bc057610100808354040283529160200191612beb565b820191906000526020600020905b815481529060010190602001808311612bce57829003601f168201915b505050505090806003018054600181600116156101000203166002900480601f016020809104026020016040519081016040528092919081815260200182805460018160011615610100020316600290048015612c895780601f10612c5e57610100808354040283529160200191612c89565b820191906000526020600020905b815481529060010190602001808311612c6c57829003601f168201915b505050505090806004018054600181600116156101000203166002900480601f016020809104026020016040519081016040528092919081815260200182805460018160011615610100020316600290048015612d275780601f10612cfc57610100808354040283529160200191612d27565b820191906000526020600020905b815481529060010190602001808311612d0a57829003601f168201915b505050505090806005018054600181600116156101000203166002900480601f016020809104026020016040519081016040528092919081815260200182805460018160011615610100020316600290048015612dc55780601f10612d9a57610100808354040283529160200191612dc5565b820191906000526020600020905b815481529060010190602001808311612da857829003601f168201915b505050505090806006018054600181600116156101000203166002900480601f016020809104026020016040519081016040528092919081815260200182805460018160011615610100020316600290048015612e635780601f10612e3857610100808354040283529160200191612e63565b820191906000526020600020905b815481529060010190602001808311612e4657829003601f168201915b505050505090806007018054600181600116156101000203166002900480601f016020809104026020016040519081016040528092919081815260200182805460018160011615610100020316600290048015612f015780601f10612ed657610100808354040283529160200191612f01565b820191906000526020600020905b815481529060010190602001808311612ee457829003601f168201915b5050505050908060080160009054906101000a900473ffffffffffffffffffffffffffffffffffffffff16905089565b60025481565b612f3f6152ec565b6007600084815260200190815260200160002060e0604051908101604052908160008201548152602001600182018054600181600116156101000203166002900480601f0160208091040260200160405190810160405280929190818152602001828054600181600116156101000203166002900480156130015780601f10612fd657610100808354040283529160200191613001565b820191906000526020600020905b815481529060010190602001808311612fe457829003601f168201915b50505050508152602001600282018054600181600116156101000203166002900480601f0160208091040260200160405190810160405280929190818152602001828054600181600116156101000203166002900480156130a35780601f10613078576101008083540402835291602001916130a3565b820191906000526020600020905b81548152906001019060200180831161308657829003601f168201915b50505050508152602001600382018054600181600116156101000203166002900480601f0160208091040260200160405190810160405280929190818152602001828054600181600116156101000203166002900480156131455780601f1061311a57610100808354040283529160200191613145565b820191906000526020600020905b81548152906001019060200180831161312857829003601f168201915b50505050508152602001600482015481526020016005820160009054906101000a900473ffffffffffffffffffffffffffffffffffffffff1673ffffffffffffffffffffffffffffffffffffffff1673ffffffffffffffffffffffffffffffffffffffff1681526020016005820160149054906101000a900460ff161515151581525050905060008160a0015190508073ffffffffffffffffffffffffffffffffffffffff166108fc349081150290604051600060405180830381858888f1935050505015801561321a573d6000803e3d6000fd5b506002600081548092919060010191905055503373ffffffffffffffffffffffffffffffffffffffff16846002547f13da99543681fc852b62949ab1d5a9e540e5dc6b2b61974730727512793d7986856020015187863360405180806020018581526020018473ffffffffffffffffffffffffffffffffffffffff1673ffffffffffffffffffffffffffffffffffffffff1681526020018373ffffffffffffffffffffffffffffffffffffffff1673ffffffffffffffffffffffffffffffffffffffff168152602001828103825286818151815260200191508051906020019080838360005b8381101561331b578082015181840152602081019050613300565b50505050905090810190601f1680156133485780820380516001836020036101000a031916815260200191505b509550505050505060405180910390a450505050565b600560009054906101000a900473ffffffffffffffffffffffffffffffffffffffff1673ffffffffffffffffffffffffffffffffffffffff163373ffffffffffffffffffffffffffffffffffffffff16141515613423576040517f08c379a00000000000000000000000000000000000000000000000000000000081526004018080602001828103825260148152602001807f596f7520617265206e6f7420616e2061646d696e00000000000000000000000081525060200191505060405180910390fd5b60008311151561349b576040517f08c379a00000000000000000000000000000000000000000000000000000000081526004018080602001828103825260128152602001807f7761716620696420697320696e76616c6964000000000000000000000000000081525060200191505060405180910390fd5b60008251111515613514576040517f08c379a000000000000000000000000000000000000000000000000000000000815260040180806020018281038252600d8152602001807f6461746120697320656d7074790000000000000000000000000000000000000081525060200191505060405180910390fd5b6000815111151561358d576040517f08c379a000000000000000000000000000000000000000000000000000000000815260040180806020018281038252600d8152602001807f6461746520697320656d7074790000000000000000000000000000000000000081525060200191505060405180910390fd5b613595615209565b6006600085815260200190815260200160002061012060405190810160405290816000820154815260200160018201548152602001600282018054600181600116156101000203166002900480601f0160208091040260200160405190810160405280929190818152602001828054600181600116156101000203166002900480156136625780601f1061363757610100808354040283529160200191613662565b820191906000526020600020905b81548152906001019060200180831161364557829003601f168201915b50505050508152602001600382018054600181600116156101000203166002900480601f0160208091040260200160405190810160405280929190818152602001828054600181600116156101000203166002900480156137045780601f106136d957610100808354040283529160200191613704565b820191906000526020600020905b8154815290600101906020018083116136e757829003601f168201915b50505050508152602001600482018054600181600116156101000203166002900480601f0160208091040260200160405190810160405280929190818152602001828054600181600116156101000203166002900480156137a65780601f1061377b576101008083540402835291602001916137a6565b820191906000526020600020905b81548152906001019060200180831161378957829003601f168201915b50505050508152602001600582018054600181600116156101000203166002900480601f0160208091040260200160405190810160405280929190818152602001828054600181600116156101000203166002900480156138485780601f1061381d57610100808354040283529160200191613848565b820191906000526020600020905b81548152906001019060200180831161382b57829003601f168201915b50505050508152602001600682018054600181600116156101000203166002900480601f0160208091040260200160405190810160405280929190818152602001828054600181600116156101000203166002900480156138ea5780601f106138bf576101008083540402835291602001916138ea565b820191906000526020600020905b8154815290600101906020018083116138cd57829003601f168201915b50505050508152602001600782018054600181600116156101000203166002900480601f01602080910402602001604051908101604052809291908181526020018280546001816001161561010002031660029004801561398c5780601f106139615761010080835404028352916020019161398c565b820191906000526020600020905b81548152906001019060200180831161396f57829003601f168201915b505050505081526020016008820160009054906101000a900473ffffffffffffffffffffffffffffffffffffffff1673ffffffffffffffffffffffffffffffffffffffff1673ffffffffffffffffffffffffffffffffffffffff16815250509050828160400181905250818160600181905250806006600086815260200190815260200160002060008201518160000155602082015181600101556040820151816002019080519060200190613a4392919061526c565b506060820151816003019080519060200190613a6092919061526c565b506080820151816004019080519060200190613a7d92919061526c565b5060a0820151816005019080519060200190613a9a92919061526c565b5060c0820151816006019080519060200190613ab792919061526c565b5060e0820151816007019080519060200190613ad492919061526c565b506101008201518160080160006101000a81548173ffffffffffffffffffffffffffffffffffffffff021916908373ffffffffffffffffffffffffffffffffffffffff1602179055509050508381600001517fc5cba06e052f290ddc93f339bd6a1e70dff09d6a54f79f9aa6e625a0806f21c9858533604051808060200180602001806020018060200180602001806020018873ffffffffffffffffffffffffffffffffffffffff1673ffffffffffffffffffffffffffffffffffffffff16815260200187810387528a818151815260200191508051906020019080838360005b83811015613bd0578082015181840152602081019050613bb5565b50505050905090810190601f168015613bfd5780820380516001836020036101000a031916815260200191505b50878103865289818151815260200191508051906020019080838360005b83811015613c36578082015181840152602081019050613c1b565b50505050905090810190601f168015613c635780820380516001836020036101000a031916815260200191505b50878103855260008152602001602001878103845260008152602001602001878103835260008152602001602001878103825260008152602001602001995050505050505050505060405180910390a350505050565b600560009054906101000a900473ffffffffffffffffffffffffffffffffffffffff1673ffffffffffffffffffffffffffffffffffffffff163373ffffffffffffffffffffffffffffffffffffffff16141515613d7e576040517f08c379a00000000000000000000000000000000000000000000000000000000081526004018080602001828103825260148152602001807f596f7520617265206e6f7420616e2061646d696e00000000000000000000000081525060200191505060405180910390fd5b600081111515613df6576040517f08c379a00000000000000000000000000000000000000000000000000000000081526004018080602001828103825260118152602001807f77616620696420697320696e76616c696400000000000000000000000000000081525060200191505060405180910390fd5b600460008154809291906001019190505550613e106152ec565b6007600083815260200190815260200160002060e0604051908101604052908160008201548152602001600182018054600181600116156101000203166002900480601f016020809104026020016040519081016040528092919081815260200182805460018160011615610100020316600290048015613ed25780601f10613ea757610100808354040283529160200191613ed2565b820191906000526020600020905b815481529060010190602001808311613eb557829003601f168201915b50505050508152602001600282018054600181600116156101000203166002900480601f016020809104026020016040519081016040528092919081815260200182805460018160011615610100020316600290048015613f745780601f10613f4957610100808354040283529160200191613f74565b820191906000526020600020905b815481529060010190602001808311613f5757829003601f168201915b50505050508152602001600382018054600181600116156101000203166002900480601f0160208091040260200160405190810160405280929190818152602001828054600181600116156101000203166002900480156140165780601f10613feb57610100808354040283529160200191614016565b820191906000526020600020905b815481529060010190602001808311613ff957829003601f168201915b50505050508152602001600482015481526020016005820160009054906101000a900473ffffffffffffffffffffffffffffffffffffffff1673ffffffffffffffffffffffffffffffffffffffff1673ffffffffffffffffffffffffffffffffffffffff1681526020016005820160149054906101000a900460ff161515151581525050905060018160c001901515908115158152505080600760008481526020019081526020016000206000820151816000015560208201518160010190805190602001906140e792919061526c565b50604082015181600201908051906020019061410492919061526c565b50606082015181600301908051906020019061412192919061526c565b506080820151816004015560a08201518160050160006101000a81548173ffffffffffffffffffffffffffffffffffffffff021916908373ffffffffffffffffffffffffffffffffffffffff16021790555060c08201518160050160146101000a81548160ff0219169083151502179055509050507f8df8b3eb734edb91db6c4dab55bec8085b4f8ce89bbfe44c2a3fa016a184f89c6004548333604051808481526020018381526020018273ffffffffffffffffffffffffffffffffffffffff1673ffffffffffffffffffffffffffffffffffffffff168152602001935050505060405180910390a15050565b60045481565b600560009054906101000a900473ffffffffffffffffffffffffffffffffffffffff1681565b6008602052806000526040600020600091509050806000015490806001018054600181600116156101000203166002900480601f0160208091040260200160405190810160405280929190818152602001828054600181600116156101000203166002900480156142ed5780601f106142c2576101008083540402835291602001916142ed565b820191906000526020600020905b8154815290600101906020018083116142d057829003601f168201915b505050505090806002018054600181600116156101000203166002900480601f01602080910402602001604051908101604052809291908181526020018280546001816001161561010002031660029004801561438b5780601f106143605761010080835404028352916020019161438b565b820191906000526020600020905b81548152906001019060200180831161436e57829003601f168201915b505050505090806003018054600181600116156101000203166002900480601f0160208091040260200160405190810160405280929190818152602001828054600181600116156101000203166002900480156144295780601f106143fe57610100808354040283529160200191614429565b820191906000526020600020905b81548152906001019060200180831161440c57829003601f168201915b505050505090806004018054600181600116156101000203166002900480601f0160208091040260200160405190810160405280929190818152602001828054600181600116156101000203166002900480156144c75780601f1061449c576101008083540402835291602001916144c7565b820191906000526020600020905b8154815290600101906020018083116144aa57829003601f168201915b5050505050908060050160009054906101000a900473ffffffffffffffffffffffffffffffffffffffff16905086565b60015481565b60035481565b600560009054906101000a900473ffffffffffffffffffffffffffffffffffffffff1673ffffffffffffffffffffffffffffffffffffffff163373ffffffffffffffffffffffffffffffffffffffff161415156145c8576040517f08c379a00000000000000000000000000000000000000000000000000000000081526004018080602001828103825260148152602001807f596f7520617265206e6f7420616e2061646d696e00000000000000000000000081525060200191505060405180910390fd5b600083111515614640576040517f08c379a00000000000000000000000000000000000000000000000000000000081526004018080602001828103825260128152602001807f7761716620696420697320696e76616c6964000000000000000000000000000081525060200191505060405180910390fd5b600082511115156146b9576040517f08c379a000000000000000000000000000000000000000000000000000000000815260040180806020018281038252600d8152602001807f6461746120697320656d7074790000000000000000000000000000000000000081525060200191505060405180910390fd5b60008151111515614732576040517f08c379a000000000000000000000000000000000000000000000000000000000815260040180806020018281038252600d8152602001807f6461746520697320656d7074790000000000000000000000000000000000000081525060200191505060405180910390fd5b61473a615209565b6006600085815260200190815260200160002061012060405190810160405290816000820154815260200160018201548152602001600282018054600181600116156101000203166002900480601f0160208091040260200160405190810160405280929190818152602001828054600181600116156101000203166002900480156148075780601f106147dc57610100808354040283529160200191614807565b820191906000526020600020905b8154815290600101906020018083116147ea57829003601f168201915b50505050508152602001600382018054600181600116156101000203166002900480601f0160208091040260200160405190810160405280929190818152602001828054600181600116156101000203166002900480156148a95780601f1061487e576101008083540402835291602001916148a9565b820191906000526020600020905b81548152906001019060200180831161488c57829003601f168201915b50505050508152602001600482018054600181600116156101000203166002900480601f01602080910402602001604051908101604052809291908181526020018280546001816001161561010002031660029004801561494b5780601f106149205761010080835404028352916020019161494b565b820191906000526020600020905b81548152906001019060200180831161492e57829003601f168201915b50505050508152602001600582018054600181600116156101000203166002900480601f0160208091040260200160405190810160405280929190818152602001828054600181600116156101000203166002900480156149ed5780601f106149c2576101008083540402835291602001916149ed565b820191906000526020600020905b8154815290600101906020018083116149d057829003601f168201915b50505050508152602001600682018054600181600116156101000203166002900480601f016020809104026020016040519081016040528092919081815260200182805460018160011615610100020316600290048015614a8f5780601f10614a6457610100808354040283529160200191614a8f565b820191906000526020600020905b815481529060010190602001808311614a7257829003601f168201915b50505050508152602001600782018054600181600116156101000203166002900480601f016020809104026020016040519081016040528092919081815260200182805460018160011615610100020316600290048015614b315780601f10614b0657610100808354040283529160200191614b31565b820191906000526020600020905b815481529060010190602001808311614b1457829003601f168201915b505050505081526020016008820160009054906101000a900473ffffffffffffffffffffffffffffffffffffffff1673ffffffffffffffffffffffffffffffffffffffff1673ffffffffffffffffffffffffffffffffffffffff16815250509050828160c00181905250818160e00181905250806006600086815260200190815260200160002060008201518160000155602082015181600101556040820151816002019080519060200190614be892919061526c565b506060820151816003019080519060200190614c0592919061526c565b506080820151816004019080519060200190614c2292919061526c565b5060a0820151816005019080519060200190614c3f92919061526c565b5060c0820151816006019080519060200190614c5c92919061526c565b5060e0820151816007019080519060200190614c7992919061526c565b506101008201518160080160006101000a81548173ffffffffffffffffffffffffffffffffffffffff021916908373ffffffffffffffffffffffffffffffffffffffff1602179055509050508381600001517fc5cba06e052f290ddc93f339bd6a1e70dff09d6a54f79f9aa6e625a0806f21c98360400151846060015185608001518660a00151898933604051808060200180602001806020018060200180602001806020018873ffffffffffffffffffffffffffffffffffffffff1673ffffffffffffffffffffffffffffffffffffffff16815260200187810387528e818151815260200191508051906020019080838360005b83811015614d89578082015181840152602081019050614d6e565b50505050905090810190601f168015614db65780820380516001836020036101000a031916815260200191505b5087810386528d818151815260200191508051906020019080838360005b83811015614def578082015181840152602081019050614dd4565b50505050905090810190601f168015614e1c5780820380516001836020036101000a031916815260200191505b5087810385528c818151815260200191508051906020019080838360005b83811015614e55578082015181840152602081019050614e3a565b50505050905090810190601f168015614e825780820380516001836020036101000a031916815260200191505b5087810384528b818151815260200191508051906020019080838360005b83811015614ebb578082015181840152602081019050614ea0565b50505050905090810190601f168015614ee85780820380516001836020036101000a031916815260200191505b5087810383528a818151815260200191508051906020019080838360005b83811015614f21578082015181840152602081019050614f06565b50505050905090810190601f168015614f4e5780820380516001836020036101000a031916815260200191505b50878103825289818151815260200191508051906020019080838360005b83811015614f87578082015181840152602081019050614f6c565b50505050905090810190601f168015614fb45780820380516001836020036101000a031916815260200191505b509d505050505050505050505050505060405180910390a350505050565b6007602052806000526040600020600091509050806000015490806001018054600181600116156101000203166002900480601f0160208091040260200160405190810160405280929190818152602001828054600181600116156101000203166002900480156150845780601f1061505957610100808354040283529160200191615084565b820191906000526020600020905b81548152906001019060200180831161506757829003601f168201915b505050505090806002018054600181600116156101000203166002900480601f0160208091040260200160405190810160405280929190818152602001828054600181600116156101000203166002900480156151225780601f106150f757610100808354040283529160200191615122565b820191906000526020600020905b81548152906001019060200180831161510557829003601f168201915b505050505090806003018054600181600116156101000203166002900480601f0160208091040260200160405190810160405280929190818152602001828054600181600116156101000203166002900480156151c05780601f10615195576101008083540402835291602001916151c0565b820191906000526020600020905b8154815290600101906020018083116151a357829003601f168201915b5050505050908060040154908060050160009054906101000a900473ffffffffffffffffffffffffffffffffffffffff16908060050160149054906101000a900460ff16905087565b610120604051908101604052806000815260200160008152602001606081526020016060815260200160608152602001606081526020016060815260200160608152602001600073ffffffffffffffffffffffffffffffffffffffff1681525090565b828054600181600116156101000203166002900490600052602060002090601f016020900481019282601f106152ad57805160ff19168380011785556152db565b828001600101855582156152db579182015b828111156152da5782518255916020019190600101906152bf565b5b5090506152e89190615342565b5090565b60e0604051908101604052806000815260200160608152602001606081526020016060815260200160008152602001600073ffffffffffffffffffffffffffffffffffffffff1681526020016000151581525090565b61536491905b80821115615360576000816000905550600101615348565b5090565b9056fea165627a7a7230582048cde822f43fd9b9f5f7295349a184660863dff1d2faf1657a7be5330cfec0fa0029",
  "source": "pragma solidity ^0.5.0;\n\ncontract WaqfChain {\n    string public name;\n    uint public productCount = 0;\n    uint public sendCount = 0;\n    uint public accountCount = 0;\n    uint public closeCount = 0;\n    address public adminAccount = 0x514C533A845166A7cDef40114473F89E3E359A5c;\n    // APPLY ONLY OWNER!!!!!!!!!!!!!!!!!!!!!!!!!!!!!!!!!!!\n    modifier onlyOwner {\n        require(msg.sender == adminAccount, 'You are not an admin');\n        _;\n    }\n// nama user => {id waqf}\n    struct WaqfEvent {\n        uint id;\n        string name;\n        string details;\n        string product_type;\n        uint price;\n        address payable owner;\n        bool closed;\n    }\n\n    struct CreateAccount {\n        uint id;\n        string name;\n        string username;\n        string email;\n        string password;\n        address userAddress;\n    }\n\n    struct UpdateWaqfEvent {\n        uint id;\n        uint waqfId;\n        string manageData;\n        string manageDate;\n        string developData;\n        string developDate;\n        string completedData;\n        string completedDate;\n        address admin;\n    }\n\n    event WaqfEventCreated(\n        uint indexed id,\n        string name,\n        string details,\n        string product_type,\n        uint price,\n        address payable owner,\n        address indexed ownerAddress,\n        bool closed\n    );\n\n    event accountCreated(\n        uint indexed id,\n        string name,\n        string username,\n        string email,\n        string password,\n        address indexed userAddress\n    );\n\n    event SendWaqfCreated(\n        uint indexed id,\n        uint indexed waqfId,\n        string name,\n        uint price,\n        address payable seller,\n        address payable sender, \n        address indexed senderAddress\n    );\n\n    event updatedWaqf(\n        uint indexed id,\n        uint indexed waqfId,\n        string manageData,\n        string manageDate,\n        string developData,\n        string developDate,\n        string completedData,\n        string completedDate,\n        address admin\n    );\n\n    event waqfClosedCreated(\n        uint id,\n        uint waqfId,\n        address sender\n    );\n    \n    mapping(uint => UpdateWaqfEvent) public updateWaqfEvents;\n    mapping(uint => WaqfEvent) public waqfEvents;\n    mapping(uint => CreateAccount) public createAccount;\n\n    constructor() public {\n        name = \"WaqfChain\";\n    }\n\n    function createAccounts(string memory _name, string memory _username, string memory _email, string memory _password) public {\n        require(bytes(_name).length > 0, 'name is empty');\n        require(bytes(_username).length > 0, 'username is empty');\n        require(bytes(_email).length > 0, 'email is empty');\n        require(bytes(_password).length > 0, 'password is empty');\n        accountCount++;\n        createAccount[accountCount] = CreateAccount(accountCount, _name, _username, _email, _password, msg.sender);\n        emit accountCreated(accountCount, _name, _username, _email, _password, msg.sender);\n    }\n\n    function createProduct(string memory _name, string memory _details, string memory _product_types, uint _price) onlyOwner public {\n        require(bytes(_name).length > 0, 'name is empty');\n        require(bytes(_details).length > 0, 'details is empty');\n        require(bytes(_product_types).length > 0, 'product types is empty');\n        require(_price > 0, 'prices types is empty');\n        productCount ++;\n        waqfEvents[productCount] = WaqfEvent(productCount, _name, _details, _product_types, _price, msg.sender, false);\n        emit WaqfEventCreated(productCount, _name, _details, _product_types, _price, msg.sender, msg.sender, false);\n        updateWaqfEvents[productCount] = UpdateWaqfEvent(productCount, productCount, '', '', '', '', '', '', msg.sender);\n        emit updatedWaqf(productCount, productCount, '', '', '', '', '', '', msg.sender);\n    }\n\n    function sendWaqf(uint _id, uint _price) public payable{\n        WaqfEvent memory _waqfevent = waqfEvents[_id];\n        address payable _owner = _waqfevent.owner;\n        address(_owner).transfer(msg.value);\n        sendCount ++;\n        emit SendWaqfCreated(sendCount, _id, _waqfevent.name, _price, _owner, msg.sender, msg.sender);\n    }\n\n    function updateWaqfManage(uint _waqfId, string memory _data, string memory _date) onlyOwner public {\n        require(_waqfId > 0, 'waqf id is invalid');\n        require(bytes(_data).length > 0, 'data is empty');\n        require(bytes(_date).length > 0, 'date is empty');\n        \n        UpdateWaqfEvent memory _waqfevent = updateWaqfEvents[_waqfId];\n        _waqfevent.manageData = _data;\n        _waqfevent.manageDate = _date;\n        updateWaqfEvents[_waqfId] = _waqfevent;\n        emit updatedWaqf(_waqfevent.id, _waqfId, _data, _date, '', '', '', '', msg.sender);\n    }\n\n    function updateWaqfDevelop(uint _waqfId, string memory _data, string memory _date) onlyOwner public {\n        require(_waqfId > 0, 'waqf id is invalid');\n        require(bytes(_data).length > 0, 'data is empty');\n        require(bytes(_date).length > 0, 'date is empty');\n        \n        UpdateWaqfEvent memory _waqfevent = updateWaqfEvents[_waqfId];\n        _waqfevent.developData = _data;\n        _waqfevent.developDate = _date;\n        updateWaqfEvents[_waqfId] = _waqfevent;\n        emit updatedWaqf(_waqfevent.id, _waqfId, _waqfevent.manageData,_waqfevent.manageDate, _data, _date, '', '', msg.sender);\n    }\n\n    function updateWaqfCompleted(uint _waqfId, string memory _data, string memory _date) onlyOwner public {\n        require(_waqfId > 0, 'waqf id is invalid');\n        require(bytes(_data).length > 0, 'data is empty');\n        require(bytes(_date).length > 0, 'date is empty');\n        \n        UpdateWaqfEvent memory _waqfevent = updateWaqfEvents[_waqfId];\n        _waqfevent.completedData = _data;\n        _waqfevent.completedDate = _date;\n        updateWaqfEvents[_waqfId] = _waqfevent;\n        emit updatedWaqf(_waqfevent.id, _waqfId, _waqfevent.manageData,_waqfevent.manageDate, _waqfevent.developData,_waqfevent.developDate, _data, _date, msg.sender);\n    }\n\n    function closeWaqfStatus(uint _waqfId) onlyOwner public {\n        require(_waqfId > 0, 'waf id is invalid');\n        closeCount++;\n        WaqfEvent memory _waqfevent = waqfEvents[_waqfId];\n        _waqfevent.closed = true;\n        waqfEvents[_waqfId] = _waqfevent;\n        emit waqfClosedCreated(closeCount, _waqfId, msg.sender);\n    }\n}",
  "sourcePath": "/home/incognito99/Documents/Blockchain/waqf-chain/src/contracts/WaqfChain.sol",
  "compiler": {
    "name": "solc",
    "version": "0.5.0+commit.1d4f565a.Emscripten.clang"
  },
  "schemaVersion": "3.0.2",
  "updatedAt": "2020-10-07T07:57:46.486Z",
  "devdoc": {
    "methods": {}
  },
  "userdoc": {
    "methods": {}
  }
}