{
  "contractName": "WaqfChain",
  "abi": [
    {
      "constant": true,
      "inputs": [],
      "name": "name",
      "outputs": [
        {
          "name": "",
          "type": "string"
        }
      ],
      "payable": false,
      "stateMutability": "view",
      "type": "function"
    },
    {
      "constant": true,
      "inputs": [
        {
          "name": "",
          "type": "uint256"
        }
      ],
      "name": "updateWaqfEvents",
      "outputs": [
        {
          "name": "id",
          "type": "uint256"
        },
        {
          "name": "waqfId",
          "type": "uint256"
        },
        {
          "name": "data_1",
          "type": "string"
        },
        {
          "name": "date_1",
          "type": "string"
        },
        {
          "name": "location",
          "type": "string"
        },
        {
          "name": "moneyUsed",
          "type": "string"
        },
        {
          "name": "admin",
          "type": "address"
        }
      ],
      "payable": false,
      "stateMutability": "view",
      "type": "function"
    },
    {
      "constant": true,
      "inputs": [],
      "name": "updateCount",
      "outputs": [
        {
          "name": "",
          "type": "uint256"
        }
      ],
      "payable": false,
      "stateMutability": "view",
      "type": "function"
    },
    {
      "constant": true,
      "inputs": [],
      "name": "sendCount",
      "outputs": [
        {
          "name": "",
          "type": "uint256"
        }
      ],
      "payable": false,
      "stateMutability": "view",
      "type": "function"
    },
    {
      "constant": true,
      "inputs": [],
      "name": "closeCount",
      "outputs": [
        {
          "name": "",
          "type": "uint256"
        }
      ],
      "payable": false,
      "stateMutability": "view",
      "type": "function"
    },
    {
      "constant": true,
      "inputs": [],
      "name": "adminAccount",
      "outputs": [
        {
          "name": "",
          "type": "address"
        }
      ],
      "payable": false,
      "stateMutability": "view",
      "type": "function"
    },
    {
      "constant": true,
      "inputs": [
        {
          "name": "",
          "type": "uint256"
        }
      ],
      "name": "createAccount",
      "outputs": [
        {
          "name": "id",
          "type": "uint256"
        },
        {
          "name": "name",
          "type": "string"
        },
        {
          "name": "username",
          "type": "string"
        },
        {
          "name": "email",
          "type": "string"
        },
        {
          "name": "password",
          "type": "string"
        },
        {
          "name": "userAddress",
          "type": "address"
        }
      ],
      "payable": false,
      "stateMutability": "view",
      "type": "function"
    },
    {
      "constant": true,
      "inputs": [],
      "name": "productCount",
      "outputs": [
        {
          "name": "",
          "type": "uint256"
        }
      ],
      "payable": false,
      "stateMutability": "view",
      "type": "function"
    },
    {
      "constant": true,
      "inputs": [],
      "name": "accountCount",
      "outputs": [
        {
          "name": "",
          "type": "uint256"
        }
      ],
      "payable": false,
      "stateMutability": "view",
      "type": "function"
    },
    {
      "constant": true,
      "inputs": [
        {
          "name": "",
          "type": "uint256"
        }
      ],
      "name": "waqfEvents",
      "outputs": [
        {
          "name": "id",
          "type": "uint256"
        },
        {
          "name": "name",
          "type": "string"
        },
        {
          "name": "details",
          "type": "string"
        },
        {
          "name": "product_type",
          "type": "string"
        },
        {
          "name": "price",
          "type": "uint256"
        },
        {
          "name": "owner",
          "type": "address"
        },
        {
          "name": "closed",
          "type": "bool"
        }
      ],
      "payable": false,
      "stateMutability": "view",
      "type": "function"
    },
    {
      "inputs": [],
      "payable": false,
      "stateMutability": "nonpayable",
      "type": "constructor"
    },
    {
      "anonymous": false,
      "inputs": [
        {
          "indexed": true,
          "name": "id",
          "type": "uint256"
        },
        {
          "indexed": false,
          "name": "name",
          "type": "string"
        },
        {
          "indexed": false,
          "name": "details",
          "type": "string"
        },
        {
          "indexed": false,
          "name": "product_type",
          "type": "string"
        },
        {
          "indexed": false,
          "name": "price",
          "type": "uint256"
        },
        {
          "indexed": false,
          "name": "owner",
          "type": "address"
        },
        {
          "indexed": true,
          "name": "ownerAddress",
          "type": "address"
        },
        {
          "indexed": false,
          "name": "closed",
          "type": "bool"
        }
      ],
      "name": "WaqfEventCreated",
      "type": "event"
    },
    {
      "anonymous": false,
      "inputs": [
        {
          "indexed": true,
          "name": "id",
          "type": "uint256"
        },
        {
          "indexed": false,
          "name": "name",
          "type": "string"
        },
        {
          "indexed": false,
          "name": "username",
          "type": "string"
        },
        {
          "indexed": false,
          "name": "email",
          "type": "string"
        },
        {
          "indexed": false,
          "name": "password",
          "type": "string"
        },
        {
          "indexed": true,
          "name": "userAddress",
          "type": "address"
        }
      ],
      "name": "accountCreated",
      "type": "event"
    },
    {
      "anonymous": false,
      "inputs": [
        {
          "indexed": true,
          "name": "id",
          "type": "uint256"
        },
        {
          "indexed": true,
          "name": "waqfId",
          "type": "uint256"
        },
        {
          "indexed": false,
          "name": "name",
          "type": "string"
        },
        {
          "indexed": false,
          "name": "price",
          "type": "uint256"
        },
        {
          "indexed": false,
          "name": "seller",
          "type": "address"
        },
        {
          "indexed": false,
          "name": "sender",
          "type": "address"
        },
        {
          "indexed": true,
          "name": "senderAddress",
          "type": "address"
        }
      ],
      "name": "SendWaqfCreated",
      "type": "event"
    },
    {
      "anonymous": false,
      "inputs": [
        {
          "indexed": true,
          "name": "id",
          "type": "uint256"
        },
        {
          "indexed": true,
          "name": "waqfId",
          "type": "uint256"
        },
        {
          "indexed": false,
          "name": "data_1",
          "type": "string"
        },
        {
          "indexed": false,
          "name": "date_1",
          "type": "string"
        },
        {
          "indexed": false,
          "name": "location",
          "type": "string"
        },
        {
          "indexed": false,
          "name": "moneyUsed",
          "type": "string"
        },
        {
          "indexed": false,
          "name": "admin",
          "type": "address"
        }
      ],
      "name": "updateWaqf",
      "type": "event"
    },
    {
      "anonymous": false,
      "inputs": [
        {
          "indexed": false,
          "name": "id",
          "type": "uint256"
        },
        {
          "indexed": false,
          "name": "waqfId",
          "type": "uint256"
        },
        {
          "indexed": false,
          "name": "sender",
          "type": "address"
        }
      ],
      "name": "waqfClosedCreated",
      "type": "event"
    },
    {
      "constant": false,
      "inputs": [
        {
          "name": "_name",
          "type": "string"
        },
        {
          "name": "_username",
          "type": "string"
        },
        {
          "name": "_email",
          "type": "string"
        },
        {
          "name": "_password",
          "type": "string"
        }
      ],
      "name": "createAccounts",
      "outputs": [],
      "payable": false,
      "stateMutability": "nonpayable",
      "type": "function"
    },
    {
      "constant": false,
      "inputs": [
        {
          "name": "_name",
          "type": "string"
        },
        {
          "name": "_details",
          "type": "string"
        },
        {
          "name": "_product_types",
          "type": "string"
        },
        {
          "name": "_price",
          "type": "uint256"
        }
      ],
      "name": "createProduct",
      "outputs": [],
      "payable": false,
      "stateMutability": "nonpayable",
      "type": "function"
    },
    {
      "constant": false,
      "inputs": [
        {
          "name": "_id",
          "type": "uint256"
        },
        {
          "name": "_price",
          "type": "uint256"
        }
      ],
      "name": "sendWaqf",
      "outputs": [],
      "payable": true,
      "stateMutability": "payable",
      "type": "function"
    },
    {
      "constant": false,
      "inputs": [
        {
          "name": "_waqfId",
          "type": "uint256"
        }
      ],
      "name": "closeWaqfStatus",
      "outputs": [],
      "payable": false,
      "stateMutability": "nonpayable",
      "type": "function"
    },
    {
      "constant": false,
      "inputs": [
        {
          "name": "_waqfId",
          "type": "uint256"
        },
        {
          "name": "_data",
          "type": "string"
        },
        {
          "name": "_date",
          "type": "string"
        },
        {
          "name": "_location",
          "type": "string"
        },
        {
          "name": "_usedMoney",
          "type": "string"
        }
      ],
      "name": "updatingWaqf",
      "outputs": [],
      "payable": false,
      "stateMutability": "nonpayable",
      "type": "function"
    }
  ],
  "bytecode": "0x60806040526000600155600060025560006003556000600455600060055573514c533a845166a7cdef40114473f89e3e359a5c600660006101000a81548173ffffffffffffffffffffffffffffffffffffffff021916908373ffffffffffffffffffffffffffffffffffffffff1602179055503480156200007f57600080fd5b506040805190810160405280600981526020017f57617166436861696e000000000000000000000000000000000000000000000081525060009080519060200190620000cd929190620000d4565b5062000183565b828054600181600116156101000203166002900490600052602060002090601f016020900481019282601f106200011757805160ff191683800117855562000148565b8280016001018555821562000148579182015b82811115620001475782518255916020019190600101906200012a565b5b5090506200015791906200015b565b5090565b6200018091905b808211156200017c57600081600090555060010162000162565b5090565b90565b6135b380620001936000396000f3fe6080604052600436106100db576000357c0100000000000000000000000000000000000000000000000000000000900463ffffffff16806306fdde03146100e057806310ddf9fe146101705780631b61040d146103fd5780634de2e748146105fd57806369b4ecc9146108365780636ed65dae146108615780637da532b41461088c578063903210eb146108c4578063baa03fd0146108ff578063c26e91181461092a578063cab1391514610981578063cf60485314610bb3578063e0f6ef8714610e4a578063e4af29fc14610e75578063fdcc7a7314610ea0575b600080fd5b3480156100ec57600080fd5b506100f5611078565b6040518080602001828103825283818151815260200191508051906020019080838360005b8381101561013557808201518184015260208101905061011a565b50505050905090810190601f1680156101625780820380516001836020036101000a031916815260200191505b509250505060405180910390f35b34801561017c57600080fd5b506103fb6004803603608081101561019357600080fd5b81019080803590602001906401000000008111156101b057600080fd5b8201836020820111156101c257600080fd5b803590602001918460018302840111640100000000831117156101e457600080fd5b91908080601f016020809104026020016040519081016040528093929190818152602001838380828437600081840152601f19601f8201169050808301925050505050505091929192908035906020019064010000000081111561024757600080fd5b82018360208201111561025957600080fd5b8035906020019184600183028401116401000000008311171561027b57600080fd5b91908080601f016020809104026020016040519081016040528093929190818152602001838380828437600081840152601f19601f820116905080830192505050505050509192919290803590602001906401000000008111156102de57600080fd5b8201836020820111156102f057600080fd5b8035906020019184600183028401116401000000008311171561031257600080fd5b91908080601f016020809104026020016040519081016040528093929190818152602001838380828437600081840152601f19601f8201169050808301925050505050505091929192908035906020019064010000000081111561037557600080fd5b82018360208201111561038757600080fd5b803590602001918460018302840111640100000000831117156103a957600080fd5b91908080601f016020809104026020016040519081016040528093929190818152602001838380828437600081840152601f19601f820116905080830192505050505050509192919290505050611116565b005b34801561040957600080fd5b506105fb6004803603608081101561042057600080fd5b810190808035906020019064010000000081111561043d57600080fd5b82018360208201111561044f57600080fd5b8035906020019184600183028401116401000000008311171561047157600080fd5b91908080601f016020809104026020016040519081016040528093929190818152602001838380828437600081840152601f19601f820116905080830192505050505050509192919290803590602001906401000000008111156104d457600080fd5b8201836020820111156104e657600080fd5b8035906020019184600183028401116401000000008311171561050857600080fd5b91908080601f016020809104026020016040519081016040528093929190818152602001838380828437600081840152601f19601f8201169050808301925050505050505091929192908035906020019064010000000081111561056b57600080fd5b82018360208201111561057d57600080fd5b8035906020019184600183028401116401000000008311171561059f57600080fd5b91908080601f016020809104026020016040519081016040528093929190818152602001838380828437600081840152601f19601f82011690508083019250505050505050919291929080359060200190929190505050611632565b005b34801561060957600080fd5b506106366004803603602081101561062057600080fd5b8101908080359060200190929190505050611c16565b60405180888152602001878152602001806020018060200180602001806020018673ffffffffffffffffffffffffffffffffffffffff1673ffffffffffffffffffffffffffffffffffffffff16815260200185810385528a818151815260200191508051906020019080838360005b838110156106c05780820151818401526020810190506106a5565b50505050905090810190601f1680156106ed5780820380516001836020036101000a031916815260200191505b50858103845289818151815260200191508051906020019080838360005b8381101561072657808201518184015260208101905061070b565b50505050905090810190601f1680156107535780820380516001836020036101000a031916815260200191505b50858103835288818151815260200191508051906020019080838360005b8381101561078c578082015181840152602081019050610771565b50505050905090810190601f1680156107b95780820380516001836020036101000a031916815260200191505b50858103825287818151815260200191508051906020019080838360005b838110156107f25780820151818401526020810190506107d7565b50505050905090810190601f16801561081f5780820380516001836020036101000a031916815260200191505b509b50505050505050505050505060405180910390f35b34801561084257600080fd5b5061084b611ed8565b6040518082815260200191505060405180910390f35b34801561086d57600080fd5b50610876611ede565b6040518082815260200191505060405180910390f35b6108c2600480360360408110156108a257600080fd5b810190808035906020019092919080359060200190929190505050611ee4565b005b3480156108d057600080fd5b506108fd600480360360208110156108e757600080fd5b810190808035906020019092919050505061230b565b005b34801561090b57600080fd5b50610914612861565b6040518082815260200191505060405180910390f35b34801561093657600080fd5b5061093f612867565b604051808273ffffffffffffffffffffffffffffffffffffffff1673ffffffffffffffffffffffffffffffffffffffff16815260200191505060405180910390f35b34801561098d57600080fd5b506109ba600480360360208110156109a457600080fd5b810190808035906020019092919050505061288d565b60405180878152602001806020018060200180602001806020018673ffffffffffffffffffffffffffffffffffffffff1673ffffffffffffffffffffffffffffffffffffffff16815260200185810385528a818151815260200191508051906020019080838360005b83811015610a3e578082015181840152602081019050610a23565b50505050905090810190601f168015610a6b5780820380516001836020036101000a031916815260200191505b50858103845289818151815260200191508051906020019080838360005b83811015610aa4578082015181840152602081019050610a89565b50505050905090810190601f168015610ad15780820380516001836020036101000a031916815260200191505b50858103835288818151815260200191508051906020019080838360005b83811015610b0a578082015181840152602081019050610aef565b50505050905090810190601f168015610b375780820380516001836020036101000a031916815260200191505b50858103825287818151815260200191508051906020019080838360005b83811015610b70578082015181840152602081019050610b55565b50505050905090810190601f168015610b9d5780820380516001836020036101000a031916815260200191505b509a505050505050505050505060405180910390f35b348015610bbf57600080fd5b50610e48600480360360a0811015610bd657600080fd5b810190808035906020019092919080359060200190640100000000811115610bfd57600080fd5b820183602082011115610c0f57600080fd5b80359060200191846001830284011164010000000083111715610c3157600080fd5b91908080601f016020809104026020016040519081016040528093929190818152602001838380828437600081840152601f19601f82011690508083019250505050505050919291929080359060200190640100000000811115610c9457600080fd5b820183602082011115610ca657600080fd5b80359060200191846001830284011164010000000083111715610cc857600080fd5b91908080601f016020809104026020016040519081016040528093929190818152602001838380828437600081840152601f19601f82011690508083019250505050505050919291929080359060200190640100000000811115610d2b57600080fd5b820183602082011115610d3d57600080fd5b80359060200191846001830284011164010000000083111715610d5f57600080fd5b91908080601f016020809104026020016040519081016040528093929190818152602001838380828437600081840152601f19601f82011690508083019250505050505050919291929080359060200190640100000000811115610dc257600080fd5b820183602082011115610dd457600080fd5b80359060200191846001830284011164010000000083111715610df657600080fd5b91908080601f016020809104026020016040519081016040528093929190818152602001838380828437600081840152601f19601f820116905080830192505050505050509192919290505050612b49565b005b348015610e5657600080fd5b50610e5f613249565b6040518082815260200191505060405180910390f35b348015610e8157600080fd5b50610e8a61324f565b6040518082815260200191505060405180910390f35b348015610eac57600080fd5b50610ed960048036036020811015610ec357600080fd5b8101908080359060200190929190505050613255565b604051808881526020018060200180602001806020018781526020018673ffffffffffffffffffffffffffffffffffffffff1673ffffffffffffffffffffffffffffffffffffffff1681526020018515151515815260200184810384528a818151815260200191508051906020019080838360005b83811015610f69578082015181840152602081019050610f4e565b50505050905090810190601f168015610f965780820380516001836020036101000a031916815260200191505b50848103835289818151815260200191508051906020019080838360005b83811015610fcf578082015181840152602081019050610fb4565b50505050905090810190601f168015610ffc5780820380516001836020036101000a031916815260200191505b50848103825288818151815260200191508051906020019080838360005b8381101561103557808201518184015260208101905061101a565b50505050905090810190601f1680156110625780820380516001836020036101000a031916815260200191505b509a505050505050505050505060405180910390f35b60008054600181600116156101000203166002900480601f01602080910402602001604051908101604052809291908181526020018280546001816001161561010002031660029004801561110e5780601f106110e35761010080835404028352916020019161110e565b820191906000526020600020905b8154815290600101906020018083116110f157829003601f168201915b505050505081565b6000845111151561118f576040517f08c379a000000000000000000000000000000000000000000000000000000000815260040180806020018281038252600d8152602001807f6e616d6520697320656d7074790000000000000000000000000000000000000081525060200191505060405180910390fd5b60008351111515611208576040517f08c379a00000000000000000000000000000000000000000000000000000000081526004018080602001828103825260118152602001807f757365726e616d6520697320656d70747900000000000000000000000000000081525060200191505060405180910390fd5b60008251111515611281576040517f08c379a000000000000000000000000000000000000000000000000000000000815260040180806020018281038252600e8152602001807f656d61696c20697320656d70747900000000000000000000000000000000000081525060200191505060405180910390fd5b600081511115156112fa576040517f08c379a00000000000000000000000000000000000000000000000000000000081526004018080602001828103825260118152602001807f70617373776f726420697320656d70747900000000000000000000000000000081525060200191505060405180910390fd5b60046000815480929190600101919050555060c06040519081016040528060045481526020018581526020018481526020018381526020018281526020013373ffffffffffffffffffffffffffffffffffffffff1681525060086000600454815260200190815260200160002060008201518160000155602082015181600101908051906020019061138d92919061348c565b5060408201518160020190805190602001906113aa92919061348c565b5060608201518160030190805190602001906113c792919061348c565b5060808201518160040190805190602001906113e492919061348c565b5060a08201518160050160006101000a81548173ffffffffffffffffffffffffffffffffffffffff021916908373ffffffffffffffffffffffffffffffffffffffff1602179055509050503373ffffffffffffffffffffffffffffffffffffffff166004547f9a6fbf17002de0ec51587331553a6e99a598b99035e4dd10c1c64e866e5b60b5868686866040518080602001806020018060200180602001858103855289818151815260200191508051906020019080838360005b838110156114ba57808201518184015260208101905061149f565b50505050905090810190601f1680156114e75780820380516001836020036101000a031916815260200191505b50858103845288818151815260200191508051906020019080838360005b83811015611520578082015181840152602081019050611505565b50505050905090810190601f16801561154d5780820380516001836020036101000a031916815260200191505b50858103835287818151815260200191508051906020019080838360005b8381101561158657808201518184015260208101905061156b565b50505050905090810190601f1680156115b35780820380516001836020036101000a031916815260200191505b50858103825286818151815260200191508051906020019080838360005b838110156115ec5780820151818401526020810190506115d1565b50505050905090810190601f1680156116195780820380516001836020036101000a031916815260200191505b509850505050505050505060405180910390a350505050565b600660009054906101000a900473ffffffffffffffffffffffffffffffffffffffff1673ffffffffffffffffffffffffffffffffffffffff163373ffffffffffffffffffffffffffffffffffffffff161415156116f7576040517f08c379a00000000000000000000000000000000000000000000000000000000081526004018080602001828103825260148152602001807f596f7520617265206e6f7420616e2061646d696e00000000000000000000000081525060200191505060405180910390fd5b60008451111515611770576040517f08c379a000000000000000000000000000000000000000000000000000000000815260040180806020018281038252600d8152602001807f6e616d6520697320656d7074790000000000000000000000000000000000000081525060200191505060405180910390fd5b600083511115156117e9576040517f08c379a00000000000000000000000000000000000000000000000000000000081526004018080602001828103825260108152602001807f64657461696c7320697320656d7074790000000000000000000000000000000081525060200191505060405180910390fd5b60008251111515611862576040517f08c379a00000000000000000000000000000000000000000000000000000000081526004018080602001828103825260168152602001807f70726f6475637420747970657320697320656d7074790000000000000000000081525060200191505060405180910390fd5b6000811115156118da576040517f08c379a00000000000000000000000000000000000000000000000000000000081526004018080602001828103825260158152602001807f70726963657320747970657320697320656d707479000000000000000000000081525060200191505060405180910390fd5b60016000815480929190600101919050555060026000815480929190600101919050555060e06040519081016040528060015481526020018581526020018481526020018381526020018281526020013373ffffffffffffffffffffffffffffffffffffffff1681526020016000151581525060076000600154815260200190815260200160002060008201518160000155602082015181600101908051906020019061198892919061348c565b5060408201518160020190805190602001906119a592919061348c565b5060608201518160030190805190602001906119c292919061348c565b506080820151816004015560a08201518160050160006101000a81548173ffffffffffffffffffffffffffffffffffffffff021916908373ffffffffffffffffffffffffffffffffffffffff16021790555060c08201518160050160146101000a81548160ff0219169083151502179055509050503373ffffffffffffffffffffffffffffffffffffffff166001547fb42a33e9d9fa79d202870b04356f7bdd71bc6c571cf188fd0f777c7b23af39f286868686336000604051808060200180602001806020018781526020018673ffffffffffffffffffffffffffffffffffffffff1673ffffffffffffffffffffffffffffffffffffffff1681526020018515151515815260200184810384528a818151815260200191508051906020019080838360005b83811015611b03578082015181840152602081019050611ae8565b50505050905090810190601f168015611b305780820380516001836020036101000a031916815260200191505b50848103835289818151815260200191508051906020019080838360005b83811015611b69578082015181840152602081019050611b4e565b50505050905090810190601f168015611b965780820380516001836020036101000a031916815260200191505b50848103825288818151815260200191508051906020019080838360005b83811015611bcf578082015181840152602081019050611bb4565b50505050905090810190601f168015611bfc5780820380516001836020036101000a031916815260200191505b50995050505050505050505060405180910390a350505050565b6009602052806000526040600020600091509050806000015490806001015490806002018054600181600116156101000203166002900480601f016020809104026020016040519081016040528092919081815260200182805460018160011615610100020316600290048015611cce5780601f10611ca357610100808354040283529160200191611cce565b820191906000526020600020905b815481529060010190602001808311611cb157829003601f168201915b505050505090806003018054600181600116156101000203166002900480601f016020809104026020016040519081016040528092919081815260200182805460018160011615610100020316600290048015611d6c5780601f10611d4157610100808354040283529160200191611d6c565b820191906000526020600020905b815481529060010190602001808311611d4f57829003601f168201915b505050505090806004018054600181600116156101000203166002900480601f016020809104026020016040519081016040528092919081815260200182805460018160011615610100020316600290048015611e0a5780601f10611ddf57610100808354040283529160200191611e0a565b820191906000526020600020905b815481529060010190602001808311611ded57829003601f168201915b505050505090806005018054600181600116156101000203166002900480601f016020809104026020016040519081016040528092919081815260200182805460018160011615610100020316600290048015611ea85780601f10611e7d57610100808354040283529160200191611ea8565b820191906000526020600020905b815481529060010190602001808311611e8b57829003601f168201915b5050505050908060060160009054906101000a900473ffffffffffffffffffffffffffffffffffffffff16905087565b60025481565b60035481565b611eec61350c565b6007600084815260200190815260200160002060e0604051908101604052908160008201548152602001600182018054600181600116156101000203166002900480601f016020809104026020016040519081016040528092919081815260200182805460018160011615610100020316600290048015611fae5780601f10611f8357610100808354040283529160200191611fae565b820191906000526020600020905b815481529060010190602001808311611f9157829003601f168201915b50505050508152602001600282018054600181600116156101000203166002900480601f0160208091040260200160405190810160405280929190818152602001828054600181600116156101000203166002900480156120505780601f1061202557610100808354040283529160200191612050565b820191906000526020600020905b81548152906001019060200180831161203357829003601f168201915b50505050508152602001600382018054600181600116156101000203166002900480601f0160208091040260200160405190810160405280929190818152602001828054600181600116156101000203166002900480156120f25780601f106120c7576101008083540402835291602001916120f2565b820191906000526020600020905b8154815290600101906020018083116120d557829003601f168201915b50505050508152602001600482015481526020016005820160009054906101000a900473ffffffffffffffffffffffffffffffffffffffff1673ffffffffffffffffffffffffffffffffffffffff1673ffffffffffffffffffffffffffffffffffffffff1681526020016005820160149054906101000a900460ff161515151581525050905060008160a0015190508073ffffffffffffffffffffffffffffffffffffffff166108fc349081150290604051600060405180830381858888f193505050501580156121c7573d6000803e3d6000fd5b506003600081548092919060010191905055503373ffffffffffffffffffffffffffffffffffffffff16846003547f13da99543681fc852b62949ab1d5a9e540e5dc6b2b61974730727512793d7986856020015187863360405180806020018581526020018473ffffffffffffffffffffffffffffffffffffffff1673ffffffffffffffffffffffffffffffffffffffff1681526020018373ffffffffffffffffffffffffffffffffffffffff1673ffffffffffffffffffffffffffffffffffffffff168152602001828103825286818151815260200191508051906020019080838360005b838110156122c85780820151818401526020810190506122ad565b50505050905090810190601f1680156122f55780820380516001836020036101000a031916815260200191505b509550505050505060405180910390a450505050565b600660009054906101000a900473ffffffffffffffffffffffffffffffffffffffff1673ffffffffffffffffffffffffffffffffffffffff163373ffffffffffffffffffffffffffffffffffffffff161415156123d0576040517f08c379a00000000000000000000000000000000000000000000000000000000081526004018080602001828103825260148152602001807f596f7520617265206e6f7420616e2061646d696e00000000000000000000000081525060200191505060405180910390fd5b600081111515612448576040517f08c379a00000000000000000000000000000000000000000000000000000000081526004018080602001828103825260128152602001807f7761716620696420697320696e76616c6964000000000000000000000000000081525060200191505060405180910390fd5b60056000815480929190600101919050555061246261350c565b6007600083815260200190815260200160002060e0604051908101604052908160008201548152602001600182018054600181600116156101000203166002900480601f0160208091040260200160405190810160405280929190818152602001828054600181600116156101000203166002900480156125245780601f106124f957610100808354040283529160200191612524565b820191906000526020600020905b81548152906001019060200180831161250757829003601f168201915b50505050508152602001600282018054600181600116156101000203166002900480601f0160208091040260200160405190810160405280929190818152602001828054600181600116156101000203166002900480156125c65780601f1061259b576101008083540402835291602001916125c6565b820191906000526020600020905b8154815290600101906020018083116125a957829003601f168201915b50505050508152602001600382018054600181600116156101000203166002900480601f0160208091040260200160405190810160405280929190818152602001828054600181600116156101000203166002900480156126685780601f1061263d57610100808354040283529160200191612668565b820191906000526020600020905b81548152906001019060200180831161264b57829003601f168201915b50505050508152602001600482015481526020016005820160009054906101000a900473ffffffffffffffffffffffffffffffffffffffff1673ffffffffffffffffffffffffffffffffffffffff1673ffffffffffffffffffffffffffffffffffffffff1681526020016005820160149054906101000a900460ff161515151581525050905060018160c0019015159081151581525050806007600084815260200190815260200160002060008201518160000155602082015181600101908051906020019061273992919061348c565b50604082015181600201908051906020019061275692919061348c565b50606082015181600301908051906020019061277392919061348c565b506080820151816004015560a08201518160050160006101000a81548173ffffffffffffffffffffffffffffffffffffffff021916908373ffffffffffffffffffffffffffffffffffffffff16021790555060c08201518160050160146101000a81548160ff0219169083151502179055509050507f8df8b3eb734edb91db6c4dab55bec8085b4f8ce89bbfe44c2a3fa016a184f89c6005548333604051808481526020018381526020018273ffffffffffffffffffffffffffffffffffffffff1673ffffffffffffffffffffffffffffffffffffffff168152602001935050505060405180910390a15050565b60055481565b600660009054906101000a900473ffffffffffffffffffffffffffffffffffffffff1681565b6008602052806000526040600020600091509050806000015490806001018054600181600116156101000203166002900480601f01602080910402602001604051908101604052809291908181526020018280546001816001161561010002031660029004801561293f5780601f106129145761010080835404028352916020019161293f565b820191906000526020600020905b81548152906001019060200180831161292257829003601f168201915b505050505090806002018054600181600116156101000203166002900480601f0160208091040260200160405190810160405280929190818152602001828054600181600116156101000203166002900480156129dd5780601f106129b2576101008083540402835291602001916129dd565b820191906000526020600020905b8154815290600101906020018083116129c057829003601f168201915b505050505090806003018054600181600116156101000203166002900480601f016020809104026020016040519081016040528092919081815260200182805460018160011615610100020316600290048015612a7b5780601f10612a5057610100808354040283529160200191612a7b565b820191906000526020600020905b815481529060010190602001808311612a5e57829003601f168201915b505050505090806004018054600181600116156101000203166002900480601f016020809104026020016040519081016040528092919081815260200182805460018160011615610100020316600290048015612b195780601f10612aee57610100808354040283529160200191612b19565b820191906000526020600020905b815481529060010190602001808311612afc57829003601f168201915b5050505050908060050160009054906101000a900473ffffffffffffffffffffffffffffffffffffffff16905086565b600660009054906101000a900473ffffffffffffffffffffffffffffffffffffffff1673ffffffffffffffffffffffffffffffffffffffff163373ffffffffffffffffffffffffffffffffffffffff16141515612c0e576040517f08c379a00000000000000000000000000000000000000000000000000000000081526004018080602001828103825260148152602001807f596f7520617265206e6f7420616e2061646d696e00000000000000000000000081525060200191505060405180910390fd5b600085111515612c86576040517f08c379a00000000000000000000000000000000000000000000000000000000081526004018080602001828103825260128152602001807f7761716620696420697320696e76616c6964000000000000000000000000000081525060200191505060405180910390fd5b600085111515612cfe576040517f08c379a00000000000000000000000000000000000000000000000000000000081526004018080602001828103825260128152602001807f7761716620696420697320696e76616c6964000000000000000000000000000081525060200191505060405180910390fd5b60008451111515612d77576040517f08c379a000000000000000000000000000000000000000000000000000000000815260040180806020018281038252600d8152602001807f6461746120697320656d7074790000000000000000000000000000000000000081525060200191505060405180910390fd5b60008351111515612df0576040517f08c379a000000000000000000000000000000000000000000000000000000000815260040180806020018281038252600d8152602001807f6461746520697320656d7074790000000000000000000000000000000000000081525060200191505060405180910390fd5b60008251111515612e69576040517f08c379a00000000000000000000000000000000000000000000000000000000081526004018080602001828103825260118152602001807f6c6f636174696f6e20697320656d70747900000000000000000000000000000081525060200191505060405180910390fd5b60008151111515612ee2576040517f08c379a00000000000000000000000000000000000000000000000000000000081526004018080602001828103825260138152602001807f75736564206d6f6e657920697320656d7074790000000000000000000000000081525060200191505060405180910390fd5b60026000815480929190600101919050555060e06040519081016040528060025481526020018681526020018581526020018481526020018381526020018281526020013373ffffffffffffffffffffffffffffffffffffffff1681525060096000600254815260200190815260200160002060008201518160000155602082015181600101556040820151816002019080519060200190612f8592919061348c565b506060820151816003019080519060200190612fa292919061348c565b506080820151816004019080519060200190612fbf92919061348c565b5060a0820151816005019080519060200190612fdc92919061348c565b5060c08201518160060160006101000a81548173ffffffffffffffffffffffffffffffffffffffff021916908373ffffffffffffffffffffffffffffffffffffffff160217905550905050846002547f94e6392964f71a3fdcb9eb55166da9ba5bcd6320df2847eb524d0e57613fbaec868686863360405180806020018060200180602001806020018673ffffffffffffffffffffffffffffffffffffffff1673ffffffffffffffffffffffffffffffffffffffff16815260200185810385528a818151815260200191508051906020019080838360005b838110156130cf5780820151818401526020810190506130b4565b50505050905090810190601f1680156130fc5780820380516001836020036101000a031916815260200191505b50858103845289818151815260200191508051906020019080838360005b8381101561313557808201518184015260208101905061311a565b50505050905090810190601f1680156131625780820380516001836020036101000a031916815260200191505b50858103835288818151815260200191508051906020019080838360005b8381101561319b578082015181840152602081019050613180565b50505050905090810190601f1680156131c85780820380516001836020036101000a031916815260200191505b50858103825287818151815260200191508051906020019080838360005b838110156132015780820151818401526020810190506131e6565b50505050905090810190601f16801561322e5780820380516001836020036101000a031916815260200191505b50995050505050505050505060405180910390a35050505050565b60015481565b60045481565b6007602052806000526040600020600091509050806000015490806001018054600181600116156101000203166002900480601f0160208091040260200160405190810160405280929190818152602001828054600181600116156101000203166002900480156133075780601f106132dc57610100808354040283529160200191613307565b820191906000526020600020905b8154815290600101906020018083116132ea57829003601f168201915b505050505090806002018054600181600116156101000203166002900480601f0160208091040260200160405190810160405280929190818152602001828054600181600116156101000203166002900480156133a55780601f1061337a576101008083540402835291602001916133a5565b820191906000526020600020905b81548152906001019060200180831161338857829003601f168201915b505050505090806003018054600181600116156101000203166002900480601f0160208091040260200160405190810160405280929190818152602001828054600181600116156101000203166002900480156134435780601f1061341857610100808354040283529160200191613443565b820191906000526020600020905b81548152906001019060200180831161342657829003601f168201915b5050505050908060040154908060050160009054906101000a900473ffffffffffffffffffffffffffffffffffffffff16908060050160149054906101000a900460ff16905087565b828054600181600116156101000203166002900490600052602060002090601f016020900481019282601f106134cd57805160ff19168380011785556134fb565b828001600101855582156134fb579182015b828111156134fa5782518255916020019190600101906134df565b5b5090506135089190613562565b5090565b60e0604051908101604052806000815260200160608152602001606081526020016060815260200160008152602001600073ffffffffffffffffffffffffffffffffffffffff1681526020016000151581525090565b61358491905b80821115613580576000816000905550600101613568565b5090565b9056fea165627a7a723058201b95e027d1cfaf10d136d25d6716d34df4dffa704826d6b7232e886c1ff78a2d0029",
  "source": "pragma solidity ^0.5.0;\n\ncontract WaqfChain {\n    string public name;\n    uint public productCount = 0;\n    uint public updateCount = 0;\n    uint public sendCount = 0;\n    uint public accountCount = 0;\n    uint public closeCount = 0;\n    address public adminAccount = 0x514C533A845166A7cDef40114473F89E3E359A5c;\n    // APPLY ONLY OWNER!!!!!!!!!!!!!!!!!!!!!!!!!!!!!!!!!!!\n    modifier onlyOwner {\n        require(msg.sender == adminAccount, 'You are not an admin');\n        _;\n    }\n// nama user => {id waqf}\n    struct WaqfEvent {\n        uint id;\n        string name;\n        string details;\n        string product_type;\n        uint price;\n        address payable owner;\n        bool closed;\n    }\n\n    struct CreateAccount {\n        uint id;\n        string name;\n        string username;\n        string email;\n        string password;\n        address userAddress;\n    }\n\n    struct UpdateWaqfEvent {\n        uint id;\n        uint waqfId;\n        string data_1;\n        string date_1;\n        string location;\n        string moneyUsed;\n        address admin;\n    }\n\n    event WaqfEventCreated(\n        uint indexed id,\n        string name,\n        string details,\n        string product_type,\n        uint price,\n        address payable owner,\n        address indexed ownerAddress,\n        bool closed\n    );\n\n    event accountCreated(\n        uint indexed id,\n        string name,\n        string username,\n        string email,\n        string password,\n        address indexed userAddress\n    );\n\n    event SendWaqfCreated(\n        uint indexed id,\n        uint indexed waqfId,\n        string name,\n        uint price,\n        address payable seller,\n        address payable sender, \n        address indexed senderAddress\n    );\n\n    event updateWaqf(\n        uint indexed id,\n        uint indexed waqfId,\n        string data_1,\n        string date_1,\n        string location,\n        string moneyUsed,\n        address admin\n    );\n\n    event waqfClosedCreated(\n        uint id,\n        uint waqfId,\n        address sender\n    );\n    \n    mapping(uint => WaqfEvent) public waqfEvents;\n    mapping(uint => CreateAccount) public createAccount;\n    mapping(uint => UpdateWaqfEvent) public updateWaqfEvents;\n\n    constructor() public {\n        name = \"WaqfChain\";\n    }\n\n    function createAccounts(string memory _name, string memory _username, string memory _email, string memory _password) public {\n        require(bytes(_name).length > 0, 'name is empty');\n        require(bytes(_username).length > 0, 'username is empty');\n        require(bytes(_email).length > 0, 'email is empty');\n        require(bytes(_password).length > 0, 'password is empty');\n        accountCount++;\n        createAccount[accountCount] = CreateAccount(accountCount, _name, _username, _email, _password, msg.sender);\n        emit accountCreated(accountCount, _name, _username, _email, _password, msg.sender);\n    }\n\n    function createProduct(string memory _name, string memory _details, string memory _product_types, uint _price) onlyOwner public {\n        require(bytes(_name).length > 0, 'name is empty');\n        require(bytes(_details).length > 0, 'details is empty');\n        require(bytes(_product_types).length > 0, 'product types is empty');\n        require(_price > 0, 'prices types is empty');\n        productCount ++;\n        updateCount ++;\n        waqfEvents[productCount] = WaqfEvent(productCount, _name, _details, _product_types, _price, msg.sender, false);\n        emit WaqfEventCreated(productCount, _name, _details, _product_types, _price, msg.sender, msg.sender, false);\n        // updateWaqfEvents[updateCount] = UpdateWaqfEvent(updateCount, productCount, '', '', '', '', msg.sender);\n        // emit updateWaqf(updateCount, productCount, '', '', '', '', msg.sender);\n        //updateWaqfEvents[productCount] = UpdateWaqfEvent(productCount, productCount, 0, '', '', '', '', '', '', '', '', '', '', '', '', '', '', '', '', '', '', '', '', msg.sender);\n        //emit updatedWaqf(productCount, productCount, 0, '', '', '', '', '', '', '', '', '', '', '', '', '', '', '', '', '', '', '', '', msg.sender);\n    }\n\n    function sendWaqf(uint _id, uint _price) public payable{\n        WaqfEvent memory _waqfevent = waqfEvents[_id];\n        address payable _owner = _waqfevent.owner;\n        address(_owner).transfer(msg.value);\n        sendCount ++;\n        emit SendWaqfCreated(sendCount, _id, _waqfevent.name, _price, _owner, msg.sender, msg.sender);\n    }\n\n    function closeWaqfStatus(uint _waqfId) onlyOwner public {\n        require(_waqfId > 0, 'waqf id is invalid');\n        closeCount++;\n        WaqfEvent memory _waqfevent = waqfEvents[_waqfId];\n        _waqfevent.closed = true;\n        waqfEvents[_waqfId] = _waqfevent;\n        emit waqfClosedCreated(closeCount, _waqfId, msg.sender);\n    }\n\n    function updatingWaqf(uint _waqfId, string memory _data, string memory _date, string memory _location, string memory _usedMoney) onlyOwner public {\n        require(_waqfId > 0, 'waqf id is invalid');\n        require(_waqfId > 0, 'waqf id is invalid');\n        require(bytes(_data).length > 0, 'data is empty');\n        require(bytes(_date).length > 0, 'date is empty');\n        require(bytes(_location).length > 0, 'location is empty');\n        require(bytes(_usedMoney).length > 0, 'used money is empty');\n        updateCount ++;\n        \n        updateWaqfEvents[updateCount] = UpdateWaqfEvent(updateCount, _waqfId, _data, _date, _location, _usedMoney, msg.sender);\n        emit updateWaqf(updateCount, _waqfId, _data, _date, _location, _usedMoney, msg.sender);\n    }\n\n    // function updateWaqfManage(uint _waqfId, string memory _data, string memory _date) onlyOwner public {\n    //     require(_waqfId > 0, 'waqf id is invalid');\n    //     require(bytes(_data).length > 0, 'data is empty');\n    //     require(bytes(_date).length > 0, 'date is empty');\n        \n    //     UpdateWaqfEvent memory _waqfevent = updateWaqfEvents[_waqfId];\n    //     _waqfevent.manageData = _data;\n    //     _waqfevent.manageDate = _date;\n    //     updateWaqfEvents[_waqfId] = _waqfevent;\n    //     emit updatedWaqf(_waqfevent.id, _waqfId, _data, _date, '', '', '', '', msg.sender);\n    // }\n\n    // function updateWaqfDevelop(uint _waqfId, string memory _data, string memory _date) onlyOwner public {\n    //     require(_waqfId > 0, 'waqf id is invalid');\n    //     require(bytes(_data).length > 0, 'data is empty');\n    //     require(bytes(_date).length > 0, 'date is empty');\n        \n    //     UpdateWaqfEvent memory _waqfevent = updateWaqfEvents[_waqfId];\n    //     _waqfevent.developData = _data;\n    //     _waqfevent.developDate = _date;\n    //     updateWaqfEvents[_waqfId] = _waqfevent;\n    //     emit updatedWaqf(_waqfevent.id, _waqfId, _waqfevent.manageData,_waqfevent.manageDate, _data, _date, '', '', msg.sender);\n    // }\n\n    // function updateWaqfCompleted(uint _waqfId, string memory _data, string memory _date) onlyOwner public {\n    //     require(_waqfId > 0, 'waqf id is invalid');\n    //     require(bytes(_data).length > 0, 'data is empty');\n    //     require(bytes(_date).length > 0, 'date is empty');\n        \n    //     UpdateWaqfEvent memory _waqfevent = updateWaqfEvents[_waqfId];\n    //     _waqfevent.completedData = _data;\n    //     _waqfevent.completedDate = _date;\n    //     updateWaqfEvents[_waqfId] = _waqfevent;\n    //     emit updatedWaqf(_waqfevent.id, _waqfId, _waqfevent.manageData,_waqfevent.manageDate, _waqfevent.developData,_waqfevent.developDate, _data, _date, msg.sender);\n    // }\n}",
  "sourcePath": "/home/incognito99/Documents/Blockchain/waqf-chain/src/contracts/WaqfChain.sol",
  "compiler": {
    "name": "solc",
    "version": "0.5.0+commit.1d4f565a.Emscripten.clang"
  },
  "schemaVersion": "3.0.2",
  "updatedAt": "2020-10-14T09:27:44.957Z",
  "devdoc": {
    "methods": {}
  },
  "userdoc": {
    "methods": {}
  }
}