{
  "contractName": "WaqfChain",
  "abi": [
    {
      "constant": true,
      "inputs": [],
      "name": "name",
      "outputs": [
        {
          "name": "",
          "type": "string"
        }
      ],
      "payable": false,
      "stateMutability": "view",
      "type": "function",
      "signature": "0x06fdde03"
    },
    {
      "constant": true,
      "inputs": [
        {
          "name": "",
          "type": "uint256"
        }
      ],
      "name": "updateWaqfEvents",
      "outputs": [
        {
          "name": "id",
          "type": "uint256"
        },
        {
          "name": "waqfId",
          "type": "uint256"
        },
        {
          "name": "manageData",
          "type": "string"
        },
        {
          "name": "manageDate",
          "type": "string"
        },
        {
          "name": "developData",
          "type": "string"
        },
        {
          "name": "developDate",
          "type": "string"
        },
        {
          "name": "completedData",
          "type": "string"
        },
        {
          "name": "completedDate",
          "type": "string"
        },
        {
          "name": "admin",
          "type": "address"
        }
      ],
      "payable": false,
      "stateMutability": "view",
      "type": "function",
      "signature": "0x4de2e748"
    },
    {
      "constant": true,
      "inputs": [],
      "name": "updateCount",
      "outputs": [
        {
          "name": "",
          "type": "uint256"
        }
      ],
      "payable": false,
      "stateMutability": "view",
      "type": "function",
      "signature": "0x69b4ecc9"
    },
    {
      "constant": true,
      "inputs": [],
      "name": "sendCount",
      "outputs": [
        {
          "name": "",
          "type": "uint256"
        }
      ],
      "payable": false,
      "stateMutability": "view",
      "type": "function",
      "signature": "0x6ed65dae"
    },
    {
      "constant": true,
      "inputs": [],
      "name": "adminAccount",
      "outputs": [
        {
          "name": "",
          "type": "address"
        }
      ],
      "payable": false,
      "stateMutability": "view",
      "type": "function",
      "signature": "0xc26e9118"
    },
    {
      "constant": true,
      "inputs": [
        {
          "name": "",
          "type": "uint256"
        }
      ],
      "name": "createAccount",
      "outputs": [
        {
          "name": "id",
          "type": "uint256"
        },
        {
          "name": "name",
          "type": "string"
        },
        {
          "name": "username",
          "type": "string"
        },
        {
          "name": "email",
          "type": "string"
        },
        {
          "name": "password",
          "type": "string"
        },
        {
          "name": "userAddress",
          "type": "address"
        }
      ],
      "payable": false,
      "stateMutability": "view",
      "type": "function",
      "signature": "0xcab13915"
    },
    {
      "constant": true,
      "inputs": [],
      "name": "productCount",
      "outputs": [
        {
          "name": "",
          "type": "uint256"
        }
      ],
      "payable": false,
      "stateMutability": "view",
      "type": "function",
      "signature": "0xe0f6ef87"
    },
    {
      "constant": true,
      "inputs": [],
      "name": "accountCount",
      "outputs": [
        {
          "name": "",
          "type": "uint256"
        }
      ],
      "payable": false,
      "stateMutability": "view",
      "type": "function",
      "signature": "0xe4af29fc"
    },
    {
      "constant": true,
      "inputs": [
        {
          "name": "",
          "type": "uint256"
        }
      ],
      "name": "waqfEvents",
      "outputs": [
        {
          "name": "id",
          "type": "uint256"
        },
        {
          "name": "name",
          "type": "string"
        },
        {
          "name": "details",
          "type": "string"
        },
        {
          "name": "product_type",
          "type": "string"
        },
        {
          "name": "price",
          "type": "uint256"
        },
        {
          "name": "owner",
          "type": "address"
        },
        {
          "name": "closed",
          "type": "bool"
        }
      ],
      "payable": false,
      "stateMutability": "view",
      "type": "function",
      "signature": "0xfdcc7a73"
    },
    {
      "inputs": [],
      "payable": false,
      "stateMutability": "nonpayable",
      "type": "constructor",
      "signature": "constructor"
    },
    {
      "anonymous": false,
      "inputs": [
        {
          "indexed": true,
          "name": "id",
          "type": "uint256"
        },
        {
          "indexed": false,
          "name": "name",
          "type": "string"
        },
        {
          "indexed": false,
          "name": "details",
          "type": "string"
        },
        {
          "indexed": false,
          "name": "product_type",
          "type": "string"
        },
        {
          "indexed": false,
          "name": "price",
          "type": "uint256"
        },
        {
          "indexed": false,
          "name": "owner",
          "type": "address"
        },
        {
          "indexed": true,
          "name": "ownerAddress",
          "type": "address"
        },
        {
          "indexed": false,
          "name": "closed",
          "type": "bool"
        }
      ],
      "name": "WaqfEventCreated",
      "type": "event",
      "signature": "0xb42a33e9d9fa79d202870b04356f7bdd71bc6c571cf188fd0f777c7b23af39f2"
    },
    {
      "anonymous": false,
      "inputs": [
        {
          "indexed": true,
          "name": "id",
          "type": "uint256"
        },
        {
          "indexed": false,
          "name": "name",
          "type": "string"
        },
        {
          "indexed": false,
          "name": "username",
          "type": "string"
        },
        {
          "indexed": false,
          "name": "email",
          "type": "string"
        },
        {
          "indexed": false,
          "name": "password",
          "type": "string"
        },
        {
          "indexed": true,
          "name": "userAddress",
          "type": "address"
        }
      ],
      "name": "accountCreated",
      "type": "event",
      "signature": "0x9a6fbf17002de0ec51587331553a6e99a598b99035e4dd10c1c64e866e5b60b5"
    },
    {
      "anonymous": false,
      "inputs": [
        {
          "indexed": true,
          "name": "id",
          "type": "uint256"
        },
        {
          "indexed": true,
          "name": "waqfId",
          "type": "uint256"
        },
        {
          "indexed": false,
          "name": "name",
          "type": "string"
        },
        {
          "indexed": false,
          "name": "price",
          "type": "uint256"
        },
        {
          "indexed": false,
          "name": "seller",
          "type": "address"
        },
        {
          "indexed": false,
          "name": "sender",
          "type": "address"
        },
        {
          "indexed": true,
          "name": "senderAddress",
          "type": "address"
        }
      ],
      "name": "SendWaqfCreated",
      "type": "event",
      "signature": "0x13da99543681fc852b62949ab1d5a9e540e5dc6b2b61974730727512793d7986"
    },
    {
      "anonymous": false,
      "inputs": [
        {
          "indexed": true,
          "name": "id",
          "type": "uint256"
        },
        {
          "indexed": true,
          "name": "waqfId",
          "type": "uint256"
        },
        {
          "indexed": false,
          "name": "manageData",
          "type": "string"
        },
        {
          "indexed": false,
          "name": "manageDate",
          "type": "string"
        },
        {
          "indexed": false,
          "name": "developData",
          "type": "string"
        },
        {
          "indexed": false,
          "name": "developDate",
          "type": "string"
        },
        {
          "indexed": false,
          "name": "completedData",
          "type": "string"
        },
        {
          "indexed": false,
          "name": "completedDate",
          "type": "string"
        },
        {
          "indexed": false,
          "name": "admin",
          "type": "address"
        }
      ],
      "name": "updatedWaqfCreated",
      "type": "event",
      "signature": "0x2314fa63142c22071c6a560fc07f605edd69cec9f44e91b5584a64ddfcdc58d9"
    },
    {
      "constant": false,
      "inputs": [
        {
          "name": "_waqfId",
          "type": "uint256"
        },
        {
          "name": "_data",
          "type": "string"
        },
        {
          "name": "_date",
          "type": "string"
        }
      ],
      "name": "updateWaqfManage",
      "outputs": [],
      "payable": false,
      "stateMutability": "nonpayable",
      "type": "function",
      "signature": "0x895253e4"
    },
    {
      "constant": false,
      "inputs": [
        {
          "name": "_name",
          "type": "string"
        },
        {
          "name": "_username",
          "type": "string"
        },
        {
          "name": "_email",
          "type": "string"
        },
        {
          "name": "_password",
          "type": "string"
        }
      ],
      "name": "createAccounts",
      "outputs": [],
      "payable": false,
      "stateMutability": "nonpayable",
      "type": "function",
      "signature": "0x10ddf9fe"
    },
    {
      "constant": false,
      "inputs": [
        {
          "name": "_name",
          "type": "string"
        },
        {
          "name": "_details",
          "type": "string"
        },
        {
          "name": "_product_types",
          "type": "string"
        },
        {
          "name": "_price",
          "type": "uint256"
        }
      ],
      "name": "createProduct",
      "outputs": [],
      "payable": false,
      "stateMutability": "nonpayable",
      "type": "function",
      "signature": "0x1b61040d"
    },
    {
      "constant": false,
      "inputs": [
        {
          "name": "_id",
          "type": "uint256"
        },
        {
          "name": "_price",
          "type": "uint256"
        }
      ],
      "name": "sendWaqf",
      "outputs": [],
      "payable": true,
      "stateMutability": "payable",
      "type": "function",
      "signature": "0x7da532b4"
    }
  ],
  "bytecode": "0x6080604052600060015560006002556000600355600060045573733fde1c969640a7f70511cbc42879b127a0e27e600560006101000a81548173ffffffffffffffffffffffffffffffffffffffff021916908373ffffffffffffffffffffffffffffffffffffffff1602179055503480156200007a57600080fd5b506040805190810160405280600981526020017f57617166436861696e000000000000000000000000000000000000000000000081525060009080519060200190620000c8929190620000cf565b506200017e565b828054600181600116156101000203166002900490600052602060002090601f016020900481019282601f106200011257805160ff191683800117855562000143565b8280016001018555821562000143579182015b828111156200014257825182559160200191906001019062000125565b5b50905062000152919062000156565b5090565b6200017b91905b80821115620001775760008160009055506001016200015d565b5090565b90565b612f41806200018e6000396000f3fe6080604052600436106100c5576000357c0100000000000000000000000000000000000000000000000000000000900463ffffffff16806306fdde03146100ca57806310ddf9fe1461015a5780631b61040d146103e75780634de2e748146105e757806369b4ecc9146108f85780636ed65dae146109235780637da532b41461094e578063895253e414610986578063c26e911814610aef578063cab1391514610b46578063e0f6ef8714610d78578063e4af29fc14610da3578063fdcc7a7314610dce575b600080fd5b3480156100d657600080fd5b506100df610fa6565b6040518080602001828103825283818151815260200191508051906020019080838360005b8381101561011f578082015181840152602081019050610104565b50505050905090810190601f16801561014c5780820380516001836020036101000a031916815260200191505b509250505060405180910390f35b34801561016657600080fd5b506103e56004803603608081101561017d57600080fd5b810190808035906020019064010000000081111561019a57600080fd5b8201836020820111156101ac57600080fd5b803590602001918460018302840111640100000000831117156101ce57600080fd5b91908080601f016020809104026020016040519081016040528093929190818152602001838380828437600081840152601f19601f8201169050808301925050505050505091929192908035906020019064010000000081111561023157600080fd5b82018360208201111561024357600080fd5b8035906020019184600183028401116401000000008311171561026557600080fd5b91908080601f016020809104026020016040519081016040528093929190818152602001838380828437600081840152601f19601f820116905080830192505050505050509192919290803590602001906401000000008111156102c857600080fd5b8201836020820111156102da57600080fd5b803590602001918460018302840111640100000000831117156102fc57600080fd5b91908080601f016020809104026020016040519081016040528093929190818152602001838380828437600081840152601f19601f8201169050808301925050505050505091929192908035906020019064010000000081111561035f57600080fd5b82018360208201111561037157600080fd5b8035906020019184600183028401116401000000008311171561039357600080fd5b91908080601f016020809104026020016040519081016040528093929190818152602001838380828437600081840152601f19601f820116905080830192505050505050509192919290505050611044565b005b3480156103f357600080fd5b506105e56004803603608081101561040a57600080fd5b810190808035906020019064010000000081111561042757600080fd5b82018360208201111561043957600080fd5b8035906020019184600183028401116401000000008311171561045b57600080fd5b91908080601f016020809104026020016040519081016040528093929190818152602001838380828437600081840152601f19601f820116905080830192505050505050509192919290803590602001906401000000008111156104be57600080fd5b8201836020820111156104d057600080fd5b803590602001918460018302840111640100000000831117156104f257600080fd5b91908080601f016020809104026020016040519081016040528093929190818152602001838380828437600081840152601f19601f8201169050808301925050505050505091929192908035906020019064010000000081111561055557600080fd5b82018360208201111561056757600080fd5b8035906020019184600183028401116401000000008311171561058957600080fd5b91908080601f016020809104026020016040519081016040528093929190818152602001838380828437600081840152601f19601f82011690508083019250505050505050919291929080359060200190929190505050611560565b005b3480156105f357600080fd5b506106206004803603602081101561060a57600080fd5b8101908080359060200190929190505050611b32565b604051808a81526020018981526020018060200180602001806020018060200180602001806020018873ffffffffffffffffffffffffffffffffffffffff1673ffffffffffffffffffffffffffffffffffffffff16815260200187810387528e818151815260200191508051906020019080838360005b838110156106b2578082015181840152602081019050610697565b50505050905090810190601f1680156106df5780820380516001836020036101000a031916815260200191505b5087810386528d818151815260200191508051906020019080838360005b838110156107185780820151818401526020810190506106fd565b50505050905090810190601f1680156107455780820380516001836020036101000a031916815260200191505b5087810385528c818151815260200191508051906020019080838360005b8381101561077e578082015181840152602081019050610763565b50505050905090810190601f1680156107ab5780820380516001836020036101000a031916815260200191505b5087810384528b818151815260200191508051906020019080838360005b838110156107e45780820151818401526020810190506107c9565b50505050905090810190601f1680156108115780820380516001836020036101000a031916815260200191505b5087810383528a818151815260200191508051906020019080838360005b8381101561084a57808201518184015260208101905061082f565b50505050905090810190601f1680156108775780820380516001836020036101000a031916815260200191505b50878103825289818151815260200191508051906020019080838360005b838110156108b0578082015181840152602081019050610895565b50505050905090810190601f1680156108dd5780820380516001836020036101000a031916815260200191505b509f5050505050505050505050505050505060405180910390f35b34801561090457600080fd5b5061090d611f30565b6040518082815260200191505060405180910390f35b34801561092f57600080fd5b50610938611f36565b6040518082815260200191505060405180910390f35b6109846004803603604081101561096457600080fd5b810190808035906020019092919080359060200190929190505050611f3c565b005b34801561099257600080fd5b50610aed600480360360608110156109a957600080fd5b8101908080359060200190929190803590602001906401000000008111156109d057600080fd5b8201836020820111156109e257600080fd5b80359060200191846001830284011164010000000083111715610a0457600080fd5b91908080601f016020809104026020016040519081016040528093929190818152602001838380828437600081840152601f19601f82011690508083019250505050505050919291929080359060200190640100000000811115610a6757600080fd5b820183602082011115610a7957600080fd5b80359060200191846001830284011164010000000083111715610a9b57600080fd5b91908080601f016020809104026020016040519081016040528093929190818152602001838380828437600081840152601f19601f820116905080830192505050505050509192919290505050612363565b005b348015610afb57600080fd5b50610b046128f5565b604051808273ffffffffffffffffffffffffffffffffffffffff1673ffffffffffffffffffffffffffffffffffffffff16815260200191505060405180910390f35b348015610b5257600080fd5b50610b7f60048036036020811015610b6957600080fd5b810190808035906020019092919050505061291b565b60405180878152602001806020018060200180602001806020018673ffffffffffffffffffffffffffffffffffffffff1673ffffffffffffffffffffffffffffffffffffffff16815260200185810385528a818151815260200191508051906020019080838360005b83811015610c03578082015181840152602081019050610be8565b50505050905090810190601f168015610c305780820380516001836020036101000a031916815260200191505b50858103845289818151815260200191508051906020019080838360005b83811015610c69578082015181840152602081019050610c4e565b50505050905090810190601f168015610c965780820380516001836020036101000a031916815260200191505b50858103835288818151815260200191508051906020019080838360005b83811015610ccf578082015181840152602081019050610cb4565b50505050905090810190601f168015610cfc5780820380516001836020036101000a031916815260200191505b50858103825287818151815260200191508051906020019080838360005b83811015610d35578082015181840152602081019050610d1a565b50505050905090810190601f168015610d625780820380516001836020036101000a031916815260200191505b509a505050505050505050505060405180910390f35b348015610d8457600080fd5b50610d8d612bd7565b6040518082815260200191505060405180910390f35b348015610daf57600080fd5b50610db8612bdd565b6040518082815260200191505060405180910390f35b348015610dda57600080fd5b50610e0760048036036020811015610df157600080fd5b8101908080359060200190929190505050612be3565b604051808881526020018060200180602001806020018781526020018673ffffffffffffffffffffffffffffffffffffffff1673ffffffffffffffffffffffffffffffffffffffff1681526020018515151515815260200184810384528a818151815260200191508051906020019080838360005b83811015610e97578082015181840152602081019050610e7c565b50505050905090810190601f168015610ec45780820380516001836020036101000a031916815260200191505b50848103835289818151815260200191508051906020019080838360005b83811015610efd578082015181840152602081019050610ee2565b50505050905090810190601f168015610f2a5780820380516001836020036101000a031916815260200191505b50848103825288818151815260200191508051906020019080838360005b83811015610f63578082015181840152602081019050610f48565b50505050905090810190601f168015610f905780820380516001836020036101000a031916815260200191505b509a505050505050505050505060405180910390f35b60008054600181600116156101000203166002900480601f01602080910402602001604051908101604052809291908181526020018280546001816001161561010002031660029004801561103c5780601f106110115761010080835404028352916020019161103c565b820191906000526020600020905b81548152906001019060200180831161101f57829003601f168201915b505050505081565b600084511115156110bd576040517f08c379a000000000000000000000000000000000000000000000000000000000815260040180806020018281038252600d8152602001807f6e616d6520697320656d7074790000000000000000000000000000000000000081525060200191505060405180910390fd5b60008351111515611136576040517f08c379a00000000000000000000000000000000000000000000000000000000081526004018080602001828103825260118152602001807f757365726e616d6520697320656d70747900000000000000000000000000000081525060200191505060405180910390fd5b600082511115156111af576040517f08c379a000000000000000000000000000000000000000000000000000000000815260040180806020018281038252600e8152602001807f656d61696c20697320656d70747900000000000000000000000000000000000081525060200191505060405180910390fd5b60008151111515611228576040517f08c379a00000000000000000000000000000000000000000000000000000000081526004018080602001828103825260118152602001807f70617373776f726420697320656d70747900000000000000000000000000000081525060200191505060405180910390fd5b60036000815480929190600101919050555060c06040519081016040528060035481526020018581526020018481526020018381526020018281526020013373ffffffffffffffffffffffffffffffffffffffff168152506008600060035481526020019081526020016000206000820151816000015560208201518160010190805190602001906112bb929190612e1a565b5060408201518160020190805190602001906112d8929190612e1a565b5060608201518160030190805190602001906112f5929190612e1a565b506080820151816004019080519060200190611312929190612e1a565b5060a08201518160050160006101000a81548173ffffffffffffffffffffffffffffffffffffffff021916908373ffffffffffffffffffffffffffffffffffffffff1602179055509050503373ffffffffffffffffffffffffffffffffffffffff166003547f9a6fbf17002de0ec51587331553a6e99a598b99035e4dd10c1c64e866e5b60b5868686866040518080602001806020018060200180602001858103855289818151815260200191508051906020019080838360005b838110156113e85780820151818401526020810190506113cd565b50505050905090810190601f1680156114155780820380516001836020036101000a031916815260200191505b50858103845288818151815260200191508051906020019080838360005b8381101561144e578082015181840152602081019050611433565b50505050905090810190601f16801561147b5780820380516001836020036101000a031916815260200191505b50858103835287818151815260200191508051906020019080838360005b838110156114b4578082015181840152602081019050611499565b50505050905090810190601f1680156114e15780820380516001836020036101000a031916815260200191505b50858103825286818151815260200191508051906020019080838360005b8381101561151a5780820151818401526020810190506114ff565b50505050905090810190601f1680156115475780820380516001836020036101000a031916815260200191505b509850505050505050505060405180910390a350505050565b600560009054906101000a900473ffffffffffffffffffffffffffffffffffffffff1673ffffffffffffffffffffffffffffffffffffffff163373ffffffffffffffffffffffffffffffffffffffff16141515611625576040517f08c379a00000000000000000000000000000000000000000000000000000000081526004018080602001828103825260148152602001807f596f7520617265206e6f7420616e2061646d696e00000000000000000000000081525060200191505060405180910390fd5b6000845111151561169e576040517f08c379a000000000000000000000000000000000000000000000000000000000815260040180806020018281038252600d8152602001807f6e616d6520697320656d7074790000000000000000000000000000000000000081525060200191505060405180910390fd5b60008351111515611717576040517f08c379a00000000000000000000000000000000000000000000000000000000081526004018080602001828103825260108152602001807f64657461696c7320697320656d7074790000000000000000000000000000000081525060200191505060405180910390fd5b60008251111515611790576040517f08c379a00000000000000000000000000000000000000000000000000000000081526004018080602001828103825260168152602001807f70726f6475637420747970657320697320656d7074790000000000000000000081525060200191505060405180910390fd5b600081111515611808576040517f08c379a00000000000000000000000000000000000000000000000000000000081526004018080602001828103825260158152602001807f70726963657320747970657320697320656d707479000000000000000000000081525060200191505060405180910390fd5b60016000815480929190600101919050555060e06040519081016040528060015481526020018581526020018481526020018381526020018281526020013373ffffffffffffffffffffffffffffffffffffffff168152602001600015158152506007600060015481526020019081526020016000206000820151816000015560208201518160010190805190602001906118a4929190612e1a565b5060408201518160020190805190602001906118c1929190612e1a565b5060608201518160030190805190602001906118de929190612e1a565b506080820151816004015560a08201518160050160006101000a81548173ffffffffffffffffffffffffffffffffffffffff021916908373ffffffffffffffffffffffffffffffffffffffff16021790555060c08201518160050160146101000a81548160ff0219169083151502179055509050503373ffffffffffffffffffffffffffffffffffffffff166001547fb42a33e9d9fa79d202870b04356f7bdd71bc6c571cf188fd0f777c7b23af39f286868686336000604051808060200180602001806020018781526020018673ffffffffffffffffffffffffffffffffffffffff1673ffffffffffffffffffffffffffffffffffffffff1681526020018515151515815260200184810384528a818151815260200191508051906020019080838360005b83811015611a1f578082015181840152602081019050611a04565b50505050905090810190601f168015611a4c5780820380516001836020036101000a031916815260200191505b50848103835289818151815260200191508051906020019080838360005b83811015611a85578082015181840152602081019050611a6a565b50505050905090810190601f168015611ab25780820380516001836020036101000a031916815260200191505b50848103825288818151815260200191508051906020019080838360005b83811015611aeb578082015181840152602081019050611ad0565b50505050905090810190601f168015611b185780820380516001836020036101000a031916815260200191505b50995050505050505050505060405180910390a350505050565b6006602052806000526040600020600091509050806000015490806001015490806002018054600181600116156101000203166002900480601f016020809104026020016040519081016040528092919081815260200182805460018160011615610100020316600290048015611bea5780601f10611bbf57610100808354040283529160200191611bea565b820191906000526020600020905b815481529060010190602001808311611bcd57829003601f168201915b505050505090806003018054600181600116156101000203166002900480601f016020809104026020016040519081016040528092919081815260200182805460018160011615610100020316600290048015611c885780601f10611c5d57610100808354040283529160200191611c88565b820191906000526020600020905b815481529060010190602001808311611c6b57829003601f168201915b505050505090806004018054600181600116156101000203166002900480601f016020809104026020016040519081016040528092919081815260200182805460018160011615610100020316600290048015611d265780601f10611cfb57610100808354040283529160200191611d26565b820191906000526020600020905b815481529060010190602001808311611d0957829003601f168201915b505050505090806005018054600181600116156101000203166002900480601f016020809104026020016040519081016040528092919081815260200182805460018160011615610100020316600290048015611dc45780601f10611d9957610100808354040283529160200191611dc4565b820191906000526020600020905b815481529060010190602001808311611da757829003601f168201915b505050505090806006018054600181600116156101000203166002900480601f016020809104026020016040519081016040528092919081815260200182805460018160011615610100020316600290048015611e625780601f10611e3757610100808354040283529160200191611e62565b820191906000526020600020905b815481529060010190602001808311611e4557829003601f168201915b505050505090806007018054600181600116156101000203166002900480601f016020809104026020016040519081016040528092919081815260200182805460018160011615610100020316600290048015611f005780601f10611ed557610100808354040283529160200191611f00565b820191906000526020600020905b815481529060010190602001808311611ee357829003601f168201915b5050505050908060080160009054906101000a900473ffffffffffffffffffffffffffffffffffffffff16905089565b60045481565b60025481565b611f44612e9a565b6007600084815260200190815260200160002060e0604051908101604052908160008201548152602001600182018054600181600116156101000203166002900480601f0160208091040260200160405190810160405280929190818152602001828054600181600116156101000203166002900480156120065780601f10611fdb57610100808354040283529160200191612006565b820191906000526020600020905b815481529060010190602001808311611fe957829003601f168201915b50505050508152602001600282018054600181600116156101000203166002900480601f0160208091040260200160405190810160405280929190818152602001828054600181600116156101000203166002900480156120a85780601f1061207d576101008083540402835291602001916120a8565b820191906000526020600020905b81548152906001019060200180831161208b57829003601f168201915b50505050508152602001600382018054600181600116156101000203166002900480601f01602080910402602001604051908101604052809291908181526020018280546001816001161561010002031660029004801561214a5780601f1061211f5761010080835404028352916020019161214a565b820191906000526020600020905b81548152906001019060200180831161212d57829003601f168201915b50505050508152602001600482015481526020016005820160009054906101000a900473ffffffffffffffffffffffffffffffffffffffff1673ffffffffffffffffffffffffffffffffffffffff1673ffffffffffffffffffffffffffffffffffffffff1681526020016005820160149054906101000a900460ff161515151581525050905060008160a0015190508073ffffffffffffffffffffffffffffffffffffffff166108fc349081150290604051600060405180830381858888f1935050505015801561221f573d6000803e3d6000fd5b506002600081548092919060010191905055503373ffffffffffffffffffffffffffffffffffffffff16846002547f13da99543681fc852b62949ab1d5a9e540e5dc6b2b61974730727512793d7986856020015187863360405180806020018581526020018473ffffffffffffffffffffffffffffffffffffffff1673ffffffffffffffffffffffffffffffffffffffff1681526020018373ffffffffffffffffffffffffffffffffffffffff1673ffffffffffffffffffffffffffffffffffffffff168152602001828103825286818151815260200191508051906020019080838360005b83811015612320578082015181840152602081019050612305565b50505050905090810190601f16801561234d5780820380516001836020036101000a031916815260200191505b509550505050505060405180910390a450505050565b600560009054906101000a900473ffffffffffffffffffffffffffffffffffffffff1673ffffffffffffffffffffffffffffffffffffffff163373ffffffffffffffffffffffffffffffffffffffff16141515612428576040517f08c379a00000000000000000000000000000000000000000000000000000000081526004018080602001828103825260148152602001807f596f7520617265206e6f7420616e2061646d696e00000000000000000000000081525060200191505060405180910390fd5b6000831115156124a0576040517f08c379a00000000000000000000000000000000000000000000000000000000081526004018080602001828103825260128152602001807f7761716620696420697320696e76616c6964000000000000000000000000000081525060200191505060405180910390fd5b60008251111515612519576040517f08c379a000000000000000000000000000000000000000000000000000000000815260040180806020018281038252600d8152602001807f6461746120697320656d7074790000000000000000000000000000000000000081525060200191505060405180910390fd5b60008151111515612592576040517f08c379a000000000000000000000000000000000000000000000000000000000815260040180806020018281038252600d8152602001807f6461746520697320656d7074790000000000000000000000000000000000000081525060200191505060405180910390fd5b600460008154809291906001019190505550610120604051908101604052806004548152602001848152602001838152602001828152602001602060405190810160405280600081525081526020016020604051908101604052806000815250815260200160206040519081016040528060008152508152602001602060405190810160405280600081525081526020013373ffffffffffffffffffffffffffffffffffffffff1681525060066000600454815260200190815260200160002060008201518160000155602082015181600101556040820151816002019080519060200190612682929190612e1a565b50606082015181600301908051906020019061269f929190612e1a565b5060808201518160040190805190602001906126bc929190612e1a565b5060a08201518160050190805190602001906126d9929190612e1a565b5060c08201518160060190805190602001906126f6929190612e1a565b5060e0820151816007019080519060200190612713929190612e1a565b506101008201518160080160006101000a81548173ffffffffffffffffffffffffffffffffffffffff021916908373ffffffffffffffffffffffffffffffffffffffff160217905550905050826004547f2314fa63142c22071c6a560fc07f605edd69cec9f44e91b5584a64ddfcdc58d9848433604051808060200180602001806020018060200180602001806020018873ffffffffffffffffffffffffffffffffffffffff1673ffffffffffffffffffffffffffffffffffffffff16815260200187810387528a818151815260200191508051906020019080838360005b8381101561280d5780820151818401526020810190506127f2565b50505050905090810190601f16801561283a5780820380516001836020036101000a031916815260200191505b50878103865289818151815260200191508051906020019080838360005b83811015612873578082015181840152602081019050612858565b50505050905090810190601f1680156128a05780820380516001836020036101000a031916815260200191505b50878103855260008152602001602001878103845260008152602001602001878103835260008152602001602001878103825260008152602001602001995050505050505050505060405180910390a3505050565b600560009054906101000a900473ffffffffffffffffffffffffffffffffffffffff1681565b6008602052806000526040600020600091509050806000015490806001018054600181600116156101000203166002900480601f0160208091040260200160405190810160405280929190818152602001828054600181600116156101000203166002900480156129cd5780601f106129a2576101008083540402835291602001916129cd565b820191906000526020600020905b8154815290600101906020018083116129b057829003601f168201915b505050505090806002018054600181600116156101000203166002900480601f016020809104026020016040519081016040528092919081815260200182805460018160011615610100020316600290048015612a6b5780601f10612a4057610100808354040283529160200191612a6b565b820191906000526020600020905b815481529060010190602001808311612a4e57829003601f168201915b505050505090806003018054600181600116156101000203166002900480601f016020809104026020016040519081016040528092919081815260200182805460018160011615610100020316600290048015612b095780601f10612ade57610100808354040283529160200191612b09565b820191906000526020600020905b815481529060010190602001808311612aec57829003601f168201915b505050505090806004018054600181600116156101000203166002900480601f016020809104026020016040519081016040528092919081815260200182805460018160011615610100020316600290048015612ba75780601f10612b7c57610100808354040283529160200191612ba7565b820191906000526020600020905b815481529060010190602001808311612b8a57829003601f168201915b5050505050908060050160009054906101000a900473ffffffffffffffffffffffffffffffffffffffff16905086565b60015481565b60035481565b6007602052806000526040600020600091509050806000015490806001018054600181600116156101000203166002900480601f016020809104026020016040519081016040528092919081815260200182805460018160011615610100020316600290048015612c955780601f10612c6a57610100808354040283529160200191612c95565b820191906000526020600020905b815481529060010190602001808311612c7857829003601f168201915b505050505090806002018054600181600116156101000203166002900480601f016020809104026020016040519081016040528092919081815260200182805460018160011615610100020316600290048015612d335780601f10612d0857610100808354040283529160200191612d33565b820191906000526020600020905b815481529060010190602001808311612d1657829003601f168201915b505050505090806003018054600181600116156101000203166002900480601f016020809104026020016040519081016040528092919081815260200182805460018160011615610100020316600290048015612dd15780601f10612da657610100808354040283529160200191612dd1565b820191906000526020600020905b815481529060010190602001808311612db457829003601f168201915b5050505050908060040154908060050160009054906101000a900473ffffffffffffffffffffffffffffffffffffffff16908060050160149054906101000a900460ff16905087565b828054600181600116156101000203166002900490600052602060002090601f016020900481019282601f10612e5b57805160ff1916838001178555612e89565b82800160010185558215612e89579182015b82811115612e88578251825591602001919060010190612e6d565b5b509050612e969190612ef0565b5090565b60e0604051908101604052806000815260200160608152602001606081526020016060815260200160008152602001600073ffffffffffffffffffffffffffffffffffffffff1681526020016000151581525090565b612f1291905b80821115612f0e576000816000905550600101612ef6565b5090565b9056fea165627a7a72305820a460e5888c45cd15d80b23f441739e2b0884a707f5526f3fa2433aec793d5ab00029",
  "source": "pragma solidity ^0.5.0;\r\n\r\ncontract WaqfChain {\r\n    string public name;\r\n    uint public productCount = 0;\r\n    uint public sendCount = 0;\r\n    uint public accountCount = 0;\r\n    uint public updateCount = 0;\r\n    address public adminAccount = 0x733fDe1c969640a7F70511cbc42879b127a0e27E;\r\n    // APPLY ONLY OWNER!!!!!!!!!!!!!!!!!!!!!!!!!!!!!!!!!!!\r\n    modifier onlyOwner {\r\n        require(msg.sender == adminAccount, 'You are not an admin');\r\n        _;\r\n    }\r\n// nama user => {id waqf}\r\n    struct WaqfEvent {\r\n        uint id;\r\n        string name;\r\n        string details;\r\n        string product_type;\r\n        uint price;\r\n        address payable owner;\r\n        bool closed;\r\n    }\r\n\r\n    struct CreateAccount {\r\n        uint id;\r\n        string name;\r\n        string username;\r\n        string email;\r\n        string password;\r\n        address userAddress;\r\n    }\r\n\r\n    struct UpdateWaqfEvent {\r\n        uint id;\r\n        uint waqfId;\r\n        string manageData;\r\n        string manageDate;\r\n        string developData;\r\n        string developDate;\r\n        string completedData;\r\n        string completedDate;\r\n        address admin;\r\n    }\r\n\r\n    event WaqfEventCreated(\r\n        uint indexed id,\r\n        string name,\r\n        string details,\r\n        string product_type,\r\n        uint price,\r\n        address payable owner,\r\n        address indexed ownerAddress,\r\n        bool closed\r\n    );\r\n\r\n    event accountCreated(\r\n        uint indexed id,\r\n        string name,\r\n        string username,\r\n        string email,\r\n        string password,\r\n        address indexed userAddress\r\n    );\r\n\r\n    event SendWaqfCreated(\r\n        uint indexed id,\r\n        uint indexed waqfId,\r\n        string name,\r\n        uint price,\r\n        address payable seller,\r\n        address payable sender, \r\n        address indexed senderAddress\r\n    );\r\n\r\n    event updatedWaqfCreated(\r\n        uint indexed id,\r\n        uint indexed waqfId,\r\n        string manageData,\r\n        string manageDate,\r\n        string developData,\r\n        string developDate,\r\n        string completedData,\r\n        string completedDate,\r\n        address admin\r\n    );\r\n    \r\n    mapping(uint => UpdateWaqfEvent) public updateWaqfEvents;\r\n    mapping(uint => WaqfEvent) public waqfEvents;\r\n    mapping(uint => CreateAccount) public createAccount;\r\n\r\n    constructor() public {\r\n        name = \"WaqfChain\";\r\n    }\r\n\r\n    function updateWaqfManage(uint _waqfId, string memory _data, string memory _date) onlyOwner public {\r\n        require(_waqfId > 0, 'waqf id is invalid');\r\n        require(bytes(_data).length > 0, 'data is empty');\r\n        require(bytes(_date).length > 0, 'date is empty');\r\n        updateCount++;\r\n        updateWaqfEvents[updateCount] = UpdateWaqfEvent(updateCount, _waqfId, _data, _date, '', '', '', '', msg.sender);\r\n        emit updatedWaqfCreated(updateCount, _waqfId, _data, _date, '', '', '', '', msg.sender);\r\n    }\r\n\r\n    function createAccounts(string memory _name, string memory _username, string memory _email, string memory _password) public {\r\n        require(bytes(_name).length > 0, 'name is empty');\r\n        require(bytes(_username).length > 0, 'username is empty');\r\n        require(bytes(_email).length > 0, 'email is empty');\r\n        require(bytes(_password).length > 0, 'password is empty');\r\n        accountCount++;\r\n        createAccount[accountCount] = CreateAccount(accountCount, _name, _username, _email, _password, msg.sender);\r\n        emit accountCreated(accountCount, _name, _username, _email, _password, msg.sender);\r\n    }\r\n\r\n    function createProduct(string memory _name, string memory _details, string memory _product_types, uint _price) onlyOwner public {\r\n        require(bytes(_name).length > 0, 'name is empty');\r\n        require(bytes(_details).length > 0, 'details is empty');\r\n        require(bytes(_product_types).length > 0, 'product types is empty');\r\n        require(_price > 0, 'prices types is empty');\r\n        productCount ++;\r\n        waqfEvents[productCount] = WaqfEvent(productCount, _name, _details, _product_types, _price, msg.sender, false);\r\n        emit WaqfEventCreated(productCount, _name, _details, _product_types, _price, msg.sender, msg.sender, false);\r\n    }\r\n\r\n    function sendWaqf(uint _id, uint _price) public payable{\r\n        WaqfEvent memory _waqfevent = waqfEvents[_id];\r\n        address payable _owner = _waqfevent.owner;\r\n        address(_owner).transfer(msg.value);\r\n        sendCount ++;\r\n        emit SendWaqfCreated(sendCount, _id, _waqfevent.name, _price, _owner, msg.sender, msg.sender);\r\n    }   \r\n}",
  "sourcePath": "D:/Blockchain/Project/waqf-chain/src/contracts/WaqfChain.sol",
  "compiler": {
    "name": "solc",
    "version": "0.5.0+commit.1d4f565a.Emscripten.clang"
  },
  "schemaVersion": "3.0.2",
  "updatedAt": "2020-09-13T08:38:27.077Z",
  "devdoc": {
    "methods": {}
  },
  "userdoc": {
    "methods": {}
  }
}